:020000040800F2
:1000000020F00020313400087934000879340008E9
:1000100079340008793400087934000800000000C1
:1000200000000000000000000000000099D302085A
:100030007934000800000000EDD30208D1D6020890
:1000400079340008793400087934000879340008DC
:1000500079340008793400088109000879340008EF
:1000600079340008793400087934000879340008BC
:1000700079340008B9090008793400087934000897
:10008000793400087934000879340008E908000858
:10009000E108000879340008793400087934000850
:1000A000793400087934000879340008793400087C
:1000B000793400087934000879340008793400086C
:1000C000793400087934000879340008793400085C
:1000D000793400087934000879340008793400084C
:1000E000F1080008793400087934000879340008F0
:1000F000793400087934000879340008793400082C
:10010000793400087934000879340008793400081B
:10011000793400087934000879340008793400080B
:1001200079340008793400087934000879340008FB
:1001300010B5054C237833B9044B13B10448AFF321
:1001400000800123237010BD740300200000000014
:1001500078EC020808B5034B1BB103490348AFF321
:10016000008008BD000000007803002078EC020841
:100170007BB972B90029BEBF00204FF0004106E0F4
:1001800008BF00281CBF6FF000414FF0FF3000F0A7
:10019000D3B9ADF1080C6DE904CE002909DB002BC1
:1001A0001ADB00F04DF8DDF804E0DDE9022304B0CD
:1001B0007047404261EB4101002B1BDB00F040F82F
:1001C000DDF804E0DDE9022304B0404261EB4101C7
:1001D000524263EB43037047524263EB430300F028
:1001E0002FF8DDF804E0DDE9022304B0404261EBC2
:1001F00041017047524263EB430300F021F8DDF800
:1002000004E0DDE9022304B0524263EB430370478C
:1002100053B94AB9002908BF00281CBF4FF0FF316D
:100220004FF0FF3000F088B9ADF1080C6DE904CE55
:1002300000F006F8DDF804E0DDE9022304B07047C1
:100240002DE9F047089D0F4604468C46002B48D107
:100250008A42164661D9B2FA82F34BB1C3F1200249
:1002600001FA03FC20FA02F29E4042EA0C0C9C4088
:100270004FEA164EB7B2BCFBFEF1220C0EFB11CCBE
:1002800042EA0C4201FB07F0904209D9B21801F191
:10029000FF3C80F0EE80904240F2EB800239324425
:1002A000121AA4B2B2FBFEF00EFB102244EA024482
:1002B00000FB07F7A74209D9341900F1FF3280F09B
:1002C000DA80A74240F2D7803444023840EA014045
:1002D000E41B00211DB1DC400023C5E90043BDE85B
:1002E000F0878B4206D90DB1C5E90001002108460F
:1002F000BDE8F087B3FA83F1002948D1BB4202D3AD
:10030000824200F20781841A67EB030201209446BF
:10031000002DE4D0C5E9004CE1E7002A00F092800E
:10032000B2FA82F3002B40F0A8808A1A4FEA164EE8
:100330001FFA86FC0121200CB2FBFEF70EFB1722F0
:1003400040EA02420CFB07F0904207D9B21807F1CD
:10035000FF3802D2904200F2E2804746121AA4B25D
:10036000B2FBFEF00EFB102244EA02440CFB00FC40
:10037000A44507D9341900F1FF3202D2A44500F296
:10038000CB801046A4EB0C0440EA0740A2E7C1F181
:1003900020068B4022FA06FC4CEA030C07FA01F413
:1003A00020FA06F3F7404FEA1C49234300FA01F80C
:1003B0001FFA8CFEB7FBF9F01C0C09FB107744EA1E
:1003C000074400FB0EF7A74202FA01F20AD91CEB20
:1003D000040400F1FF3A80F09B80A74240F298802D
:1003E00002386444E41B9FB2B4FBF9F309FB1344E5
:1003F00047EA044403FB0EFEA64509D91CEB04049E
:1004000003F1FF3780F08280A6457FD9023B644428
:1004100043EA0040A4EB0E04A0FB02E7BC42734693
:10042000B94663D360D05DB1B8EB030264EB090455
:1004300004FA06F622FA01F31E43CC40C5E9006433
:1004400000214CE76208480842EAC1710B0C43EAFC
:1004500000438AB242EA0342B3FBF6F1E407B44632
:100460003746B6461F23B0FBF6F0D21B41EA0041E7
:1004700061E7614614E7104628E7C3F1200120FA3E
:1004800001F29E4027FA01F19F403A434FEA164E8F
:100490001FFA86FCB1FBFEF70EFB1710110C41EAA8
:1004A000004107FB0CF8884504FA03F43AD97118A7
:1004B00007F1FF3001D288451FD8A1EB0801B1FB3D
:1004C000FEF808FB0CF70EFB181192B242EA01424B
:1004D000BA422FD2B21808F1FF31C6D2BA42C4D202
:1004E000A8F102013244C0E7F0459CD2BEEB020302
:1004F00067EB0C070138B94695E7A6EB08084144BD
:10050000B81EB1FBFEF808FB0CF7DCE73B467FE7C3
:10051000504667E70846FBE63444023832E7023FBC
:1005200032441BE7A1EB08013846B1FBFEF808FB9B
:100530000CF7C8E7414698E7704700BF10F8012B59
:1005400011F8013B012A28BF9A42F7D0D01A704710
:10055000034613F8012B002AFBD1181A0138704703
:1005600001F0FF01102A2BDB10F0070F08D010F864
:10057000013B013A8B422DD010F0070F42B3F6D168
:10058000F0B441EA012141EA014122F007047FF081
:1005900000070023F0E80256083C85EA010586EAD8
:1005A000010685FA47F5A3FA87F586FA47F6A5FA14
:1005B00087F68EB9EED1F0BC01F0FF0102F0070220
:1005C00032B110F8013B013A83EA010313B1F8D1CB
:1005D0000020704701387047002D06BF35460338AC
:1005E000073815F0010F07D1013015F4807F02BFE5
:1005F000013015F4C03F0130F0BC0138704700BF36
:100600002DE9F04188B04FF4A06003F0DBF82C4DE9
:100610000221284603F032FC01AE304603F049FCCB
:10062000284B019300248DF81C40039401278DF87A
:100630001D70029404948DF81E7005944FF40058B8
:10064000CDF8188032460221284603F03FFC0221F3
:10065000284603F08BFC02221146284603F0B3FC27
:1006600002221146284603F0EFFC224605210D2008
:1006700003F0BEFB0421284603F000FC304603F0E3
:1006800018FC114B01938DF81C4003948DF81D70DC
:10069000029404948DF81E700594CDF818803246AB
:1006A0000421284603F012FC0421284603F05EFCD6
:1006B00002220421284603F086FC08B0BDE8F08140
:1006C000000002400C3001400C38004000296ED080
:1006D00070B504460E46002868D04FF0FF31344B09
:1006E00018682DF0B2F9334D22460221284603F056
:1006F0004DFC32460221284603F056FC02221146E8
:10070000284603F060FC0221284603F01FFC00216C
:10071000294803F028FA6421284B18682DF016FAAE
:10072000F0B98021244803F039FA0128F9D0214C8E
:1007300002221146204603F046FC0221204603F027
:1007400015FCA4F550440021204603F017FA40217F
:10075000204603F023FAF8B1204603F01CFA1BE010
:100760000021164B18682DF0F1F90221284603F0FC
:10077000FDFB114C0021204603F000FA204603F057
:10078000E8F9204603F0E0F9094B18682DF080F9EC
:100790000CE0094803F0FFF90121074803F0FEF9D6
:1007A0000028F6D1024B18682DF072F970BD704721
:1007B00098E200200000024000300140A4E2002046
:1007C00010B50446C0F3074000F0B0FAC4F30720A8
:1007D00000F0ACFAE0B200F0A9FA10BD08B54FF491
:1007E0008051024803F0E3F808BD00BF000C01404F
:1007F00008B54FF48051024803F0D7F808BD00BF98
:10080000000C014010B5FFF7E9FF052000F08EFA5B
:10081000FF2000F08BFA0446FFF7EAFF14F0010F07
:10082000F1D110BD08B5FFF7D9FF062000F07EFA20
:10083000FFF7DEFF08BD10B50446FFF7F3FFFFF733
:10084000CDFF202000F072FA2046FFF7B9FFFFF736
:10085000CFFFFFF7D7FF10BD70B504460E46154613
:10086000FFF7E0FFFFF7BAFF022000F05FFA204633
:10087000FFF7A6FF002404E0305D00F057FA0134D2
:10088000A4B2AC42F8D3FFF7B3FFFFF7BBFF70BDD4
:1008900070B504460E461546FFF7A0FF032000F092
:1008A00045FA2046FFF78CFF002405E0FF2000F00A
:1008B0003DFA30550134A4B2AC42F7D3FFF798FFAC
:1008C00070BD000029B108B50F2202482DF05BFD74
:1008D000FEE7FEE79003002008B52DF01FFC08BDE1
:1008E00008B502F041F808BD08B501F00FFF08BDDA
:1008F00000B583B000238DF807304FF4005003F0AB
:10090000F1F858B94FF4804003F0ECF8B0B94FF467
:10091000004003F0E7F808BB03B000BD4FF40050FF
:1009200003F0ECF801238DF8073000231A460DF18F
:100930000701124800682DF0A3F9E3E74FF4804067
:1009400003F0DCF802238DF8073000231A460DF17E
:1009500007010A4800682DF093F9D8E74FF40040EA
:1009600003F0CCF803238DF8073000231A460DF16D
:100970000701024800682DF083F9CDE7B4E20020BA
:1009800000B583B000238DF80730012003F0AAF8EA
:1009900008B903B000BD012003F0B0F804238DF8BE
:1009A000073000231A460DF10701024800682DF0B8
:1009B00067F9EEE7B4E2002008B5022211460748C5
:1009C00003F007FB00B908BD02221146034803F0FB
:1009D00035FB034B18682DF0EDF8F4E700000240FA
:1009E000A4E2002008B528B14FF40071044802F0D9
:1009F000DCFF08BD4FF40071014802F0D8FFF8E7B2
:100A0000000C014010B54FF4C06002F0DBFE40F274
:100A1000026002F0D7FE40F2036002F0D3FE40F223
:100A2000046002F0CFFE40F2056002F0CBFE254CE0
:100A3000522303221021204602F066FF5221204655
:100A400002F0B3FFA02303221821204602F05CFF2E
:100A50004FF46043032248211B4802F055FF012355
:100A600003224821204602F04FFF04F580644FF432
:100A7000007303221021204602F046FF0120FFF7F9
:100A8000B1FFC02303221C21204602F03DFF4FF49A
:100A9000805303221021204602F036FF4FF480518C
:100AA000204602F082FF4FF4204303221821204603
:100AB00002F02AFF4FF4804303220421204602F073
:100AC00023FF10BD000801400010014070B506462C
:100AD0000D461446B1B2064803F02EF9A84203D0E1
:100AE000631E1CB11C46F5E7012070BD0020FCE729
:100AF0000054004010B540F2157002F063FE0A4C3D
:100B000000220A49204603F051F832230022114600
:100B1000204603F0DFF8204603F0FAF84FF4806136
:100B2000204603F0E5F810BD00540040A086010007
:100B300070B506460D464CF2503440F201617148E2
:100B400003F0FAF8012805D1631E002C00F0D780CD
:100B50001C46F2E76B4803F0E0F842F21072012104
:100B60004FF4A060FFF7B2FF20B376006FF00102F0
:100B70003146644803F0C2F844F620642346013C41
:100B800013B340F201515F4803F0D6F8012816D0A4
:100B900040F20A515B4803F0CFF80128EED1594CDE
:100BA00040F20A51204603F0D3F8204603F0BAF889
:100BB000002003E0534803F0B5F8002070BD40F278
:100BC0000151504803F0C4F864B140F207514D4858
:100BD00003F0B2F858B9013CF7D14A4803F0A2F843
:100BE0000020EBE7474803F09DF80020E6E72946A0
:100BF000444803F09CF840F20251424803F09CF84C
:100C000030B9013CF7D13F4803F08CF80020D5E71C
:100C10003C4803F082F842F2107201214FF4A060C8
:100C2000FFF754FF10B301223146364803F066F84F
:100C300044F620642346013C13B340F2015131488D
:100C400003F07AF8012816D040F20A512D4803F03B
:100C500073F80128EED12B4C40F20A51204603F0E4
:100C600077F8204603F05EF80020A7E7254803F058
:100C700059F80020A2E740F20151224803F068F839
:100C80008CB14FF480611F4803F032F840F20651F6
:100C90001C4803F051F858B9013CF7D1194803F04A
:100CA00041F800208AE7174803F03CF8002085E768
:100CB000144E304603F03DF805460021304603F05F
:100CC00017F840F206510F4803F036F830B9013CEE
:100CD000F7D10C4803F026F800206FE7094E3046A4
:100CE00003F027F80446304603F01CF8012000F01A
:100CF0009AF82B029BB244EA030080B25EE7002020
:100D00005CE700BF0054004008B502F0D5FCFFF7D7
:100D100079FE00F025F8FFF7EDFEFFF771FC2CF0EF
:100D2000E3FCFFF7D9FD2CF0F1FCFEE710B504461B
:100D300002210A4802F032FF0028F9D02146074874
:100D400002F027FF0121054802F028FF0028F9D012
:100D5000024802F020FFC0B210BD00BF00380040C2
:100D60002DE9F04188B040F20C6002F02BFD01AD9E
:100D7000284602F0C9FE4FF4404302934FF48278B4
:100D8000CDF804800024039406944FF40077049770
:100D9000082307930594134E2946304602F0BDFE02
:100DA000304602F0DBFE304602F0CEFE40F20E701E
:100DB00002F008FD284602F0A7FE0294CDF8048058
:100DC000039406940497102307930594064C294630
:100DD000204602F0A2FE204602F0B6FE08B0BDE8B2
:100DE000F08100BF003001400038004010B44FF0E7
:100DF000E0235C69C0EB00104FEAC00C9B69002146
:100E000004E0E01A02441144614509D21A464FF049
:100E1000E0239B699A42FAD0F3D9D21A1144F3E73E
:100E20005DF8044B704710B504462BF05DFA0228BC
:100E300006D04FF47A7004FB00F0FFF7D7FF10BD27
:100E4000E30E6101091B63F100039B0043EA917308
:100E50008900091943F10003DC004FF47A72002382
:100E6000C80044EA5171FFF7D3F92BF075F8E6E7B3
:100E700008B52BF039FA012801D1002008BD2AF06D
:100E800009FFFBE708B5084B02221A75074A9A6169
:100E9000074ADA61074A1A624FF4316200210648B4
:100EA0002DF069FA08BD00BFB00E0020D7A32D4277
:100EB000D9CE67400AD783BFA003002008B50146FA
:100EC0004020FFF735FE08BD08B540F2046002F08F
:100ED00079FC40F2026002F075FC4FF4C06002F051
:100EE00071FC4FF4604303224821254802F00CFDB9
:100EF0000D21022002F05EFD0E21022002F05AFDBB
:100F00000F21022002F056FD0123032248211D4833
:100F100002F0FAFC0021084602F04CFD01220021FB
:100F20004FF4005002F082FD4FF4005002F0E6FD55
:100F3000012200214FF4804002F078FD4FF4804000
:100F400002F0DCFD012200214FF4004002F06EFDB2
:100F50004FF4004002F0D2FD01220021104602F0C1
:100F600065FD012002F0CAFD00220521282002F0C3
:100F70003FFF00220521062002F03AFF08BD00BF16
:100F8000001001400008014008B51021014802F09E
:100F90000EFD08BD0008014008B54021014802F0DF
:100FA00006FD08BD0008014008B51021014802F007
:100FB000FCFC08BD0008014008B54021014802F0D2
:100FC000F4FC08BD0008014010B5044602210848A1
:100FD00002F0E4FD0028F9D02146054802F0D9FDD1
:100FE0008021034802F0DAFD0128F9D010BD00BFCE
:100FF0000030014038B504460A4D4FF0FF312868F3
:101000002CF023FDFFF7C0FFFFF7C6FF2046FFF7D8
:10101000DBFFFFF7D1FFFFF7C7FF28682CF038FD93
:1010200038BD00BF98E2002038B504460D46FFF7F2
:10103000ABFFA9B22046FFF749FBFFF7B5FF38BD6C
:1010400000B583B08DF8070001210DF10700FFF70F
:10105000EBFF03B000BD00B583B028302832353136
:101060003533C0F3072C8DF800C08DF80100C2F3B2
:1010700007208DF802008DF80320C1F307228DF8B8
:1010800004208DF80510C3F307228DF806208DF893
:1010900007302A20FFF7AEFF04216846FFF7C4FFA0
:1010A0002B20FFF7A7FF04210DEB0100FFF7BCFF8A
:1010B0002C20FFF79FFF03B000BD10B5F8B0002350
:1010C00007E05A00010A0DF8131001320DF8020072
:1010D0000133EF2BF5D98623EF2200210846FFF7D5
:1010E000BAFF002405E04FF4F0716846FFF79CFF5B
:1010F0000134862CF7DD78B010BD000010B51B4C14
:101100000221204602F053FC1E20FFF78CFE022134
:10111000204602F04AFC7820FFF785FE0120FFF709
:1011200069FF9620FFF77FFE1120FFF763FF9620EF
:10113000FFF779FE3620FFF75DFF6020FFF780FFA5
:101140003A20FFF757FF0520FFF77AFF2120FFF72E
:1011500051FF1320FFF74EFF2920FFF74BFF3220EE
:10116000FFF761FE0020FFF7A8FF10BD0008014057
:10117000037B1BB1013B50F82300704700207047F0
:1011800070B108B50246074B1B7B022B07D80549F7
:10119000581C087341F82320136803B1984708BD11
:1011A000704700BFD40E002008B5034B00221A730D
:1011B000FFF7E6FF08BD00BFD40E002008B50248C7
:1011C000FFF7D6FF08BD00BFD40E002010B500F019
:1011D00059F900F08DF9084C084A0949204600F0F9
:1011E00093F900F086F9D4F8D0309B680120984735
:1011F0000523A37010BD00BFE40E00200C000020EA
:101200002C0000202DE9F04168B30D46074661B37C
:101210001A4B9B78032B2CD1184BD3F8D480B8F100
:10122000000F28D00026AE4220D2FFF721FE044650
:10123000124800F018F928B1FFF71AFE001B6428C5
:10124000F6D913E0AC1B402C00D940242246B91932
:1012500008F103002DF0D8F8C8F84440074800F022
:10126000F0F82644DFE7002600E00E463046BDE8F1
:10127000F0810026FAE70026F8E700BFE40E002020
:101280000FB410B5C2B044AB53F8042B01934FF424
:10129000807102A82DF048F8041E08DDFF2C00D94B
:1012A000FF24214602A8FFF7ADFF844205D1204666
:1012B00042B0BDE8104004B070474FF0FF34F6E78D
:1012C00070B50446D0F8D0301E6A194D2B464FF445
:1012D000A0720021B047D4F8D0301E6AEB1F4FF443
:1012E000807200212046B047D4F8D0301E6AA5F1A4
:1012F0001703C02200212046B0470E4B9A69C4F85C
:10130000AC20DB69C4F8C0300B4B00229A7001217D
:10131000597019705A64094903C99864A3F84C10AC
:10132000090C83F84E10C4F8D430104670BD00BFCD
:10133000180200200C000020C40F002090EC0208CE
:1013400010B50446D0F8D0305B6A81219847D4F8B4
:10135000D0305B6A032120469847D4F8D0305B6ACE
:10136000822120469847002010BDD0F8D430D0F814
:10137000CC201278FF2A06D001229A701A70D0F879
:10138000CC30FF221A7000207047D0F8D4300122F0
:101390009A70023100EB011042885A64704710B411
:1013A00085B00346002201920292ADF80C20D0F8DD
:1013B000D4004A78212A10D0222A17D0202A25D1F9
:1013C000D3F8CC4022704830CA88D8611A840020F3
:1013D000588405B05DF8044B70474830D865072243
:1013E000A3F860200020A3F86200F2E7A1238DF8A3
:1013F000043020238DF805300223ADF80A304B88E5
:1014000003F003038DF80C300020E2E70120E0E751
:1014100008B5D0F8D4208B1D00EB0313B3F802C03D
:1014200000EB0113B3F858309C4503D001235370EF
:10143000137008BD00231A4601F07F0100F09CF8EC
:10144000F7E738B5D0F8D440636C13B16278012A5D
:1014500000D038BD002565709BB2E21C812100F0F0
:101460008BF86564F5E7D0F8D4303BB11B6803F026
:10147000FF13B3F1011F03D005207047052070470B
:101480000020704710B5002002F0B4F904464FF474
:10149000C16002F097F9124B9C420DD0114B9C4257
:1014A0000FD0114B9C4210D0104B9C4212D040F2F6
:1014B000177002F087F910BD4FF4800002F090F928
:1014C000F5E7002002F08CF9F1E74FF4400002F05C
:1014D00087F9ECE74FF4000002F082F9E7E700BF7C
:1014E000006CDC0200A24A0400D8B805000E2707F1
:1014F000704708B54FF4A06002F070FC0022022192
:10150000142002F075FC08BD10B50446154B0820E8
:101510001870012058704FF4007CA3F802C05C6082
:10152000C4F8C810C4F8CC200F4AC4F8D020002357
:1015300023750E4BC4F898300D4BC4F89C300D4BFE
:10154000C4F8A0304B68DB79C3F380132371E071DA
:1015500013689847D4F8C830DB68D86800F0F4FA0C
:1015600010BD00BF1C10002034020020C31B000867
:10157000571C00089D1C00082DE9F047054617463A
:101580001E4601F07F0404F1805303F5B8539B001D
:101590001A6812F4C06F03D11A6812F4807F21D147
:1015A0001B6803F4C063B3F5806F1BD005EB04190F
:1015B000B9F85880B04528BFB046D5F8D030DB6ABE
:1015C00042462146384698474744A6EB0806C9F8E4
:1015D0005C700634230105EB0414EE52A4F802807B
:1015E000BDE8F08705EB0413B3F858804FEA4808CC
:1015F000B04528BFB0461FFA88F9D5F8D030D3F8E7
:1016000030A001234A4621463846D04706B305EBB1
:101610000413B3F85820B318013BB3FBF2F3A21D37
:1016200005EB02129380A31D05EB03139B88022B8D
:1016300014D017FA88F7A6EB090605EB0412D76554
:101640000634230105EB0414EE52A4F80290C7E718
:10165000A31D05EB031301229A80E4E717FA88F72C
:10166000A6EB090605EB0412B2F85830A9EB030308
:10167000D7650634220105EB0414AE526380AFE750
:1016800001207047D0F8C8301B681B781380D0F851
:10169000C83018687047D0F8C83059688B78C97856
:1016A00043EA01231380D0F8C830586870470346D6
:1016B000D0F8C810886840B18178C07841EA00212C
:1016C0001180D3F8C83098687047002313807047A2
:1016D000D0F8C830DB6853F82100037813807047D6
:1016E00010B40246B1F804C05FFA8CF40B7803F032
:1016F0000300012822D0022826D000283BD193786D
:10170000023B012B01D9012036E0137993B11C4B28
:1017100001211970137A23B119490B7843F00203A0
:101720000B70174BD3650223A2F86030A2F8623029
:10173000002021E0124B00211970EBE79378032B76
:101740001AD1002CEDD017E09378032B01D00120A3
:1017500012E01CF0800F05D102EB0414A17E084BAF
:101760001970DEE704F07F0402EB041494F85A10B9
:10177000034B1970D5E701205DF8044B704700BF9B
:1017800018100020F8B506460D460C7814F0030436
:1017900004D0022C10D001242046F8BD8378023BEF
:1017A000012B01D90124F7E74B88012B01D001243B
:1017B000F2E700230372EFE78B88DFB28378032B15
:1017C00001D00124E8E717F07C0419D14B88CBB98C
:1017D000D7B1802F1AD0D0F8D0301B6C394698473B
:1017E00008B90124D8E7D6F8D030DB6B394630464B
:1017F0009847D6F8CC30DB68294630469847CBE787
:101800000124C9E70124C7E70124C5E70124C3E790
:10181000F8B506460D460C7814F0030404D0022CEB
:101820000FD001242046F8BD8378023B012B01D95B
:101830000124F7E74B88012B01D00124F2E7037262
:10184000F0E78B88DFB28378032B01D00124E9E72E
:1018500017F07C0419D14B88CBB9D7B1802F1AD09F
:10186000D0F8D0301B6C3946984708B90124D9E725
:10187000D6F8D0309B6B394630469847D6F8CC30F6
:10188000DB68294630469847CCE70124CAE70124A3
:10189000C8E70124C6E70124C4E78B8883B9CB8855
:1018A00083B94B8803F07F0343708278032A0BD0FF
:1018B0001BB1022383700020704701238370FAE775
:1018C00001207047012070470120704770B5044621
:1018D0000D460B7813F003031FD0012B59D00126BE
:1018E000B4F86030002B5FD0EA88002A5CD09342C5
:1018F00028BF1346A4F86030B4F81120934252D2A6
:10190000B4F85820B3FBF2F102FB11339BB2002B69
:101910004CD10123E374002646E049880E0AC9B27F
:10192000731E0E2B3BD8DFE803F00817213A3A3A32
:101930003A3A3A3A3A3A3A3A2D00731E1C4A52F869
:10194000233000F160029847E065EB88402BC7D157
:101950000823A4F86030C3E7013E154B53F8263046
:1019600000F160029847E0650126B9E7EE2918D832
:10197000013E0F4B53F8263000F160029847E065B6
:101980000126ADE700F16002FFF791FEE065012658
:10199000A6E7D0F8CC30DB6898470646A0E70126DA
:1019A0009EE701269CE70026304670BD0026FBE737
:1019B000D8EC0208002070478378DAB2022B03D0FB
:1019C000032A05D00120704703781BB1012070471E
:1019D00003783BB1C0650123A0F86030A0F8623005
:1019E000002070470120704738B54C88E4B21E4B88
:1019F0001C70012C02D90124204638BD054683788D
:101A0000DAB2022B03D0032A0FD00124F4E7002C12
:101A1000F2D0D0F8CC305B6821469847124B1B7847
:101A20002B700323AB700024E6E754B9D0F8CC3018
:101A30009B68214698470C4B1B782B700223AB7098
:101A4000DAE701788C420DD0D0F8CC309B6898470B
:101A5000054B19782970D5F8CC305B682846984733
:101A60000024C9E70024C7E71A1000200346827843
:101A7000032A01D001207047888810F0FF0001D0B0
:101A800001207047D3F8CC200132DA650122A3F897
:101A90006020A3F86220704710B58378032B02D032
:101AA0000124204610BD8C8814F0FF0401D00124CD
:101AB000F7E74A88D0F8CC305A70D0F8CC30DB68E1
:101AC0009847EEE700207047002393421DD200B5EF
:101AD00010E00CF1370C01F813C000014FEA430C81
:101AE0000CF1010C4FF0000E01F80CE00133DBB2F9
:101AF000934209D24FEA107CB0F1204FE9D20CF1A9
:101B0000300C01F813C0E8E700BD704708B54A780B
:101B1000024B53F82230984708BD00BFE4EC02089E
:101B200008B58378032B01D0012008BD8B8813F002
:101B3000FF0F01D00120F8E7D0F8CC30DB689847E0
:101B4000F3E701207047000038B504460378062B00
:101B500014D00F4BD3F8E807D3F8EC57D3F8F0378D
:101B6000C01800D138BD0822A11CFFF7ADFF042228
:101B700004F112012846FFF7A7FFF3E7054BD3F85E
:101B80000031002BEED043801B0C8380EAE700BFBE
:101B900000F0FF1F0020024008B503230375D0F8B2
:101BA000D030DB6A00221146C06D984708BD08B5E9
:101BB00001230375B0F86030C26D0021FFF7DCFC33
:101BC00008BD38B50446D0F8D0305B6B00F10B058A
:101BD0000022114628469847082806D0D4F8D0306D
:101BE0009B6B00212046984738BDE37A03F06003E1
:101BF000202B17D0402B1AD033BB29462046FFF7A5
:101C000085FF08BBB4F81130B3B194F90B30002B49
:101C100016DB02232375D4F8D0309B6A00212046BE
:101C20009847E1E729462046FFF77AFFE9E729468A
:101C30002046FFF786FFE4E72046FFF7ADFFD3E736
:101C40002046FFF7B4FFCFE7D4F8D0309B6B0021DC
:101C500020469847C8E738B504460D468378032BDD
:101C600005D0237D022B09D0042B0BD038BDD0F832
:101C7000CC305B69002BF4D09847F2E72046FFF7A1
:101C80008BFFF3E704EB05120023D361A91C0A01C3
:101C900004EB0111A3524B802375E7E710B504460E
:101CA000C37C43B1D0F8D030DB6A00221146C06D4E
:101CB00098470023E374A378032B0ED0237D012BD8
:101CC00013D0032B1AD0637833B1D4F8D030DB684B
:101CD000204698470023637010BDD4F8CC301B69B0
:101CE000002BEBD020469847E8E704232375D4F86F
:101CF000D0309B6A002120469847E4E700232375F3
:101D0000E1E77047084B0122C3F8402C0022C3F8DA
:101D1000402CC3F8442CC3F8502CD3F8402C42F488
:101D20001F42C3F8402C704700500040054B012271
:101D3000C3F8402C0022C3F8442C0322C3F8402CE3
:101D4000704700BF00500040437843F08003024AD0
:101D5000C2F84C3C704700BF00500040184B1A6856
:101D6000802111601B6800225A604022A0F8582090
:101D70009A6002834FF40442DA6001220DE002F11E
:101D8000805303F5B85399000B6823F40F4323F0F5
:101D90008F0313430B600132D2B2032AEFD9094BF0
:101DA000D3F8002C92B2C3F8002C43F22022C3F8DF
:101DB000002C8022C3F84C2C01238370704700BF95
:101DC0007802002000500040F0B59E7806F07F0CAD
:101DD0009D88DB7803F00303B54C54F823400CF1E5
:101DE000805303F5B8539B0044EA0C041C6016F0C2
:101DF000800F21D11FFA85FE00EB0C1425830029EA
:101E000040F0A080AB4C246804EB0C14A260BEF13F
:101E10003E0F40F2048100EB0C10028B12F01F0FFA
:101E200000F0F28052099202A248006800EB0C1008
:101E300042F40042C260FEE000EB0C10A0F85850E3
:101E400099B94FEA0C1C9B49096841F80C201A68A3
:101E500022F4E04222F0400292B282F0200242F4E8
:101E6000004242F080021A60F3E0012940F0F18064
:101E7000196821F4E24121F0700189B241F4014175
:101E800041F080011960196811F0400F0AD01968FB
:101E900021F4E04121F0700189B241F4004141F0A8
:101EA000C0011960196811F4804F0AD0196821F433
:101EB000E04121F0700189B241F4404141F08001DC
:101EC0001960196821F4E04121F0700189B241F4F0
:101ED000404141F0800119604FEA0C1C75490868C7
:101EE00094B240F80C4009686144120C8A601A6888
:101EF00002F4C062B2F5806F18D01A6822F4E04292
:101F000022F0400292B282F0200242F4004242F0FB
:101F100080021A601A6892B222F4804222F07002A3
:101F200042F4004242F080021A6092E01A6892B2D3
:101F300022F4E04222F0400242F4004242F08002E9
:101F40001A60E7E701297FF462AF1C6824F4E244D9
:101F500024F07004A4B244F4014444F080041C60F2
:101F60001C6814F4804F0AD01C6824F4E04424F068
:101F70007004A4B244F4404444F080041C601C6823
:101F800014F0400F0AD01C6824F4E04424F07004DC
:101F9000A4B244F4004444F0C0041C601C6824F45F
:101FA000E04424F07004A4B244F4004444F0C004BB
:101FB0001C604FEA0C153F4E346897B26751346885
:101FC0002C44120CA260BEF13E0F14D900EB0C128F
:101FD000128B12F01F0F06D04FEA5E12920242F4EB
:101FE0000042626013E74FEA5E12013A920242F445
:101FF000004262600BE70EF10102520222F47F728E
:1020000022F00302626002E75209013A9202294873
:10201000006800EB0C1042F40042C2600BE00EF1CD
:1020200001022448006800EB0C10520222F47F7277
:1020300022F00302C26069B91A6822F4804222F0D9
:10204000700292B282F4005242F4004242F08002E6
:102050001A60F0BD0129FCD11A6802F4C062B2F521
:10206000806F18D01A6822F4804222F0700292B277
:1020700082F4005242F4004242F080021A601A6870
:1020800092B222F4E04222F0400242F4004242F0D6
:1020900080021A60DDE71A6892B222F4804222F0D0
:1020A000700242F4004242F080021A60E7E700BF8B
:1020B00018ED02087802002001F07F0311F0800F74
:1020C0001FD103F1805303F5B8539B001A6812F433
:1020D000804F0AD01A6822F4E04222F0700292B2D5
:1020E00042F4404242F080021A601A6892B222F42E
:1020F000804222F0700242F4004242F080021A60F4
:10210000704703F1805303F5B8539B001A6812F02F
:10211000400F0AD01A6822F4E04222F0700292B214
:1021200042F4004242F0C0021A601A6892B222F4ED
:10213000E04222F0400242F4004242F080021A6083
:10214000704701F07F0101F1805101F5B85189001C
:102150000B6823F4804323F070039BB283F4405355
:1021600043F4004343F080030B60704711F07F039A
:102170001BD1274AD2F8003C23F4E04323F040036C
:102180009BB283F0100348F280010B43C2F8003C7D
:10219000D2F8003C23F4804323F070039BB283F415
:1021A00080530B43C2F8003C704711F0800F16D1EA
:1021B00000EB03100122827603F1805303F5B8533C
:1021C0009B001A6822F4804222F0700292B282F4DC
:1021D000805242F4004242F080021A60704700EBE5
:1021E0000310012280F85A2003F1805303F5B853FD
:1021F0009B001A6822F4E04222F0400292B282F080
:10220000100242F4004242F080021A60704700BFA0
:102210000050004038B5044601F07F0511F0800FF2
:1022200007D1D0F8D0301B6C9847B0F5805F2DD027
:1022300038BDD0F8D0301B6C98471028F8D105F184
:10224000805202F5B8529200136813F0400F0AD082
:10225000136823F4E04323F070039BB243F400437C
:1022600043F0C003136004EB0515002385F85A30D2
:10227000136823F4E04323F040039BB283F0300360
:1022800043F4004343F080031360D1E705F180522B
:1022900002F5B8529200136813F4804F0AD0136805
:1022A00023F4E04323F070039BB243F4404343F034
:1022B0008003136004EB05140023A376136823F452
:1022C000804323F070039BB283F4405343F40043F4
:1022D00043F080031360ABE701F07F0303F1805309
:1022E00003F5B8539B00186811F0800F02D100F479
:1022F0004050704700F030007047000030B4154681
:10230000A2B10B01164A1268D35803F1005303F52A
:1023100040535B00002204E030F8024B43F8044BCA
:10232000013205F1010CB2EB5C0FF5D30C4B1B68CD
:1023300003EB01135D6001F1805101F5B851890093
:102340000B6823F4E04323F040039BB283F0300397
:1023500043F4004343F080030B6030BC704700BF80
:10236000780200202DE9F041834C666801F1805C21
:102370000CF5B85C4FEA8C0CDCF80050DCF800403F
:1023800014F4C06F04D1DCF8004014F4807F06D14F
:10239000DCF8004004F4C064B4F5806F28D1012B50
:1023A00028D015F0400500F0C7800B01734C24685D
:1023B000E35803F1005303F540535B00002A40F05B
:1023C000D180002D00F0D1806C4B1B6803EB011312
:1023D0005A60DCF8003023F4E04323F040039BB262
:1023E00083F0300343F4004343F08003CCF8003023
:1023F000BDE8F08106EB0113B3F8583093426AD27E
:102400000F015E4B1B6803EB0114DB5903F1005E07
:102410000EF5405E4FEA4E0EA36803F1005303F53C
:1024200040535B0015F0400510D1A8462FE030F86E
:10243000024B43F8044B013506EB0114B4F8584045
:102440000134B5EB540FF2D3002406E00025F3E786
:1024500030F8023B4EF8043B013406EB0113B3F8AD
:102460005850531B0133B4EB530FF1D3434B18684F
:102470003844C56006EB0113B3F85830D31A4360F3
:10248000A7E730F8024B4EF8044B08F1010806EBC1
:102490000114B4F858400134B8EB540FF1D304E000
:1024A00030F8024B43F8044B013506EB0114B4F845
:1024B00058E0A2EB0E040134B5EB540FF0D32F4BD0
:1024C00018683844C0F804E006EB0113B3F858303C
:1024D000D31AC3607DE715F0400511D0274B1B6868
:1024E00003EB01139B6803F1005303F540535B00BA
:1024F000D2B9DDB1214B1B6803EB0113DA6068E749
:102500000B011E4C2468E35803F1005303F54053BC
:102510005B00EDE730F8026B43F8046B0134561CA6
:10252000B4EB560FF6D3E4E70024F8E7134B1B682F
:1025300003EB01135A604CE7104B1B6803EB0113CC
:102540009B6803F1005303F540535B0036E730F816
:10255000024B43F8044B0EF1010E541CBEEB540F1A
:10256000F5D32EE74FF0000EF7E7044B1B6803EBA3
:102570000113DA602DE700BF1C1000207802002054
:10258000844672B9214B1B6803EB0113D868C0F372
:1025900009009B6803F1005303F540535B000022E0
:1025A0002DE0012A30D101F1805303F5B8539B008F
:1025B0001B6813F4804F0ED00A01144B1B6803EB09
:1025C00001114868C0F309009B5803F1005303F55B
:1025D00040535B00E3E70D4B1B6803EB0113D86826
:1025E000C0F309009B6803F1005303F540535B00FF
:1025F000D5E753F8041B2CF8021B013292B2411CA0
:10260000B2EB510FF5D370470020704778020020DD
:10261000064B5B681B7A012B00D07047044AD2F846
:10262000403C43F01003C2F8403CF6E71C10002089
:1026300000500040064BD3F8402C22F00402C3F8AF
:10264000402CD3F8402C22F00802C3F8402C7047ED
:1026500000500040034AD2F8403C43F00C03C2F85B
:10266000403C704700500040012911D079B900F179
:10267000805000F5B8508000036823F4E04323F055
:1026800070039BB243F4404343F080030360704700
:1026900000F1805000F5B8508000036823F4E04357
:1026A00023F070039BB243F4004343F0C003036084
:1026B0007047000000F1805303F5B8539B001B687E
:1026C00013F4804F07D0084B1B6803EB00135868C6
:1026D000C0F309007047044B1B6803EB0013D86874
:1026E000C0F30900704700BF7802002008B5837866
:1026F000DBB2C37004238370C37923B1D0F8D03028
:102700001B69984708BD03238371FBE72DE9F04758
:1027100082B0934B5E68934BD3F8443C9BB2ADF8C8
:102720000630BDF8065005F00F0505F1805303F59E
:10273000B8539B001B68FCE0236823F070031B0563
:102740001B0D43F0800323602846FFF7B3FF80464C
:10275000AB1C1A0106EB03135B880344B25A934285
:1027600004DA06EB05131B8B834242D0D6F8D03037
:102770005B6B06EB071901222946D9F81C00984724
:10278000D9F81C304344C9F81C30BA1C110106EBBF
:102790000212538843449BB25380725A934204D22C
:1027A000B9F81830434540F2B480236803F4C0639D
:1027B000B3F5806F22D0236823F4804323F07003A5
:1027C0009BB283F4005343F4004343F0800323603F
:1027D00001212846FFF748FF07EB470706EB87076D
:1027E000D7F89C30002B00F094802946304698475B
:1027F0008FE001212846FFF737FFB7E723689BB238
:1028000023F4804323F0700343F4004343F0800338
:102810002360DDE72F46236813F0800F79D023680B
:102820009BB223F4E14323F070036FEA43436FEA62
:1028300053439BB2236000212846FFF715FFAA1DD2
:1028400006EB02129388013B9BB2938053BB236833
:1028500003F4C063B3F5806F18D0236823F4E0431A
:1028600023F040039BB283F0200343F4004343F082
:102870008003236007EB470706EB8707D7F8A030F4
:10288000002B46D029463046984742E023689BB249
:1028900023F4E04323F0400343F4004343F0800378
:1028A0002360E7E7012B34D906EB0518B8F8584048
:1028B00006374FEA071906EB071736F809309C422E
:1028C00028BF1C46D6F8D030D3F830A000232246CB
:1028D0002946D8F85C00D047D8F85C302344C8F8C3
:1028E0005C3036F809301B1B26F809307C8010E07C
:1028F000236803F4C063B3F5806F2DD1BDF80630B3
:1029000013F0100F86D02F46236813F4004F7FF486
:1029100013AF144BD3F8443C9BB2ADF80630BDF86E
:10292000065005F00F0505F1805303F5B8539B00E1
:102930001B68BDF8063013F4004F0DD005F180542C
:1029400004F5B854A400236813F4C06FD0D12368F1
:1029500013F4807FD2D1CBE702B0BDE8F08700BF8F
:102960001C1000200050004070B582B08C4BD3F892
:10297000442C92B2ADF80620D3F8442C02F47F42E6
:10298000ADF80420D3F8403CBDF8042092B21340C7
:10299000ADF80430834B5D68BDF8043013F4004F8C
:1029A00040F0AD80BDF8043013F4805F0DD07C4B57
:1029B0006FF48052C3F8442CEB78DBB2AB706B7AC7
:1029C0001BB9D5F8D0305B699847BDF8043013F4D3
:1029D000006F06D0724BD3F8403C13F0100F00F09C
:1029E000CA80BDF8043013F4007F0AD06C4B6FF43A
:1029F0000072C3F8442C6C4B1B6813B11B6828464B
:102A00009847BDF8043013F4807F17D0644B6FF4FF
:102A10008072C3F8442CAB7983B1013BDBB2AB715C
:102A200063B96B7A002B00F0AF805D4AD2F8403C6E
:102A300023F01003C2F8403C00236B72BDF8043051
:102A400013F4806F09D0564B6FF48062C3F8442CA6
:102A5000D5F8D030DB692846984702B070BDD5F86C
:102A6000D0305B6B05EB041600222146F0699847D5
:102A7000F3690344F361A21C110105EB02125388B0
:102A800003449BB253806A5A934202D2338B8342EF
:102A90000AD904EB440305EB8303D3F89C3073B3EA
:102AA0002146284698472AE0D5F8D0309B6A21462F
:102AB0002846984723E004F1805303F5B8539B0060
:102AC0001A6812F0800F1AD01A6892B222F4E1420A
:102AD00022F070026FEA42426FEA524292B21A60EA
:102AE000A31D1B01EB5A002B3DD104EB440305EB66
:102AF0008303D3F8A03013B1214628469847284BCA
:102B0000D3F8443C9AB2ADF8062013F4004F3FF4DA
:102B100049AFBDF8064004F00F04BDF8063013F0CD
:102B2000100FC8D004F1805303F5B8539B001A6806
:102B300012F4004FE3D01A6822F070021205120D51
:102B400042F080021A601B6813F4006F87D0002CDB
:102B500083D104EB440305EB8303D3F8983021467B
:102B600028469847CBE705EB0412D26D214628464C
:102B7000FEF702FDC3E72846FFF7B8FD084B6FF4E8
:102B80000062C3F8442C2CE7054AD2F8403C43F0DD
:102B90001003C2F8403C0323AB7101236B724DE775
:102BA000005000401C1000201410002044F61F6349
:102BB000984205DD4EF65F23984203DD03207047FF
:102BC0000120704702207047002313E00B4A117860
:102BD00019440B4880FB0120CA17C2EB2012322097
:102BE00000FB1212074951F82210074A42F823103D
:102BF0000133DBB2312BE9D9704700BF4E10002002
:102C00001F85EB51E01100205010002010B40B4C38
:102C100020700B4801700B490A700B4C9C46BCE8B5
:102C20000F000FC4BCE80F000FC4DCF800302360B5
:102C3000064B32221A805DF8044B704726100020A4
:102C40004D1000204C1000202810002024100020DF
:102C50000023037043608160C1600374436183613A
:102C6000C361036243628362C3620363704700000F
:102C700010B482680D4C23780D4921F82320C268D6
:102C80000C4880FB02C0D217C2EBA01201EB8301FB
:102C90004A805A1C084B83FB02131B11322101FB93
:102CA000132323705DF8044B704700BF4E100020C3
:102CB000E0110020D34D62101F85EB512DE9F0414A
:102CC00084B004460D461746C8686368002B3BD1A4
:102CD00060602678002E44D06368642B11DD642880
:102CE0000FDD03EB4302824244DB002100EB400294
:102CF000934200DC29B1042E03D0667004232370B4
:102D0000A7602378042B37D000264F4BB3F900304F
:102D1000002B15DDAA68C3F132044C4921F82420A8
:102D2000EA684B4880FB0250D217C2EBA01201EBBD
:102D300084014A80013B1BB2434A1380002B70D0B0
:102D4000304604B0BDE8F08103EB4302C3EB42130D
:102D5000404981FB0021C217C2EBE10213446360CA
:102D6000B7E7B7F57A7FEBD9FFF720FF20706070E7
:102D7000E760E5E70121B9E7A368FB1AB3F5967FA1
:102D80004DD9FFF713FF8046012814D06678012E35
:102D90001BD0022E28D0032E31D00026E368FB1A68
:102DA0006278012A30D0022A35D0032A2FD1A26AB4
:102DB0001A44A2622BE061780129E7D02B46024633
:102DC0000220FFF723FF0226E8E7A8F10203DBB2A7
:102DD000012BDED8E36A0133E3622B4642463146DB
:102DE0000120FFF713FFD9E7B8F1030FD3D12B462A
:102DF000424631460320FFF709FF0326CEE7B8F12C
:102E0000020FF4D00026C9E7226A1A44226284F82D
:102E10000080E76079E7626A1A446262F7E7002699
:102E200073E7FFF7D1FE32230393084A029201931E
:102E3000094B0093094B0A4A12780A4909780A4853
:102E4000007800F06FF87BE72410002018110020B4
:102E5000D34D62106766666650100020281000206F
:102E60004C1000204D1000202610002008B5C0F3A3
:102E70000B0303B108BDFDF7DEFCFBE7F8B5064622
:102E80000F4615460FE0F4B2C4F58074A4B2AC420C
:102E900028BF2C46224639463046FDF7DDFC264445
:102EA00027442D1BADB2002DEDD1F8BD10B5084C57
:102EB000084B1B686360A3680133A3600020FDF723
:102EC000BAFC102221460020FDF7C6FC10BD00BF51
:102ED000AC120020A812002038B50F4C1022214659
:102EE0000020FDF7D5FC22680C4B9A4204D10A4B16
:102EF0005A680B4B1A6038BD23604FF480536360EF
:102F00000025A560E5602846FDF795FC10222146C6
:102F10002846FDF7A1FCEAE7AC12002031474F4CF0
:102F2000A81200202DE9F04F89B083468A469146C9
:102F30001E469DF84C809DF8547008EB0705AD00C7
:102F40000E35234B1B682B44B3F5000F03D9204BE0
:102F50004FF480521A601E4C2068FFF787FF4EF630
:102F60000123ADF810302AF0EDFBCDF812008DF8FA
:102F700016B08DF817A08DF8189000238DF8193031
:102F8000F368CDF81A300E2204A92068FFF776FF07
:102F900020680E3020604FEA880632461299FFF70B
:102FA0006DFF2368F0182060BE0032461499FFF7C9
:102FB00065FF236833442360FFF778FF20680E2203
:102FC0006946401BFDF764FC09B0BDE8F08F00BF07
:102FD000A8120020F0B593B000264FF4805514E0FD
:102FE000042205A92846FDF753FCBDF81420BDF9BD
:102FF00016102148FEF744F9043501202AF0FBFBA6
:103000000134A4B2632CEBD901361C4B1B68AB42D4
:103010002FD91B4B9B68B3422BD90E2206A92846F9
:10302000FDF736FCBDF818204EF601239A4220D158
:103030009DF81E109DF81F009DF82070DDF82230CD
:103040000AAC104A82FB03C2DB17C3EBA213039343
:10305000029701900091DDF81A300B4A202120469A
:103060002BF0FEF821460948FEF70AF90E35002438
:10307000C8E713B0F0BD00BF40ED0208A812002061
:10308000AC120020D34D621028ED02083CED02087E
:1030900070B506460024254604E00120FDF70EFF2A
:1030A00005440134B4F5967FF7DB07EE905AF8EE4D
:1030B000E77A337DDFED046A87EEA67A063306EB06
:1030C000830686ED007A70BD0000964338B504464D
:1030D0000220FDF7F3FE60800120FDF7EFFE00B255
:1030E000208007EE900AF8EEE77A217D8B1D04EB35
:1030F000830393ED007A77EEC77AFDEEE77A17EE59
:10310000903A03EB830303EB8303194A82FB030228
:10311000D817C0EBA20060606288C2EB421502EBD8
:103120008502144DA5FB02525509A56002290AD05B
:1031300001291AD059B90F4A82FB0312DB17C3EBDE
:103140006213E36003E0642303FB00F0E060E068E7
:103150004FEAE07CA5FB00014FF47A72002305FBE7
:103160000C11FDF705F8206138BDE060EFE700BF06
:10317000676666661F85EB5130B4B1F9083B03EB17
:103180008302520041F82320826803F5C87421F8B5
:103190001420C46803F5967C41F82C40006903F5BF
:1031A000FA7C41F82C00D3B992B2C1F8F02AC1F8E8
:1031B000F42AC1F8F84AC1F8FC4AC1F8000BC1F87A
:1031C000040B01331BB2A1F8083BC72B05DD00231C
:1031D000A1F8083B012381F80A3B30BC704792B24A
:1031E000D1F8F05AAA4201DDC1F8F02AD1F8F45A18
:1031F000AA4201DAC1F8F42AD1F8F82A944201DD92
:10320000C1F8F84AD1F8FC2A944201DAC1F8FC4A24
:10321000D1F8002B904201DDC1F8000BD1F8042B4E
:103220009042CEDAC1F8040BCBE7000008B5074B9B
:10323000186850B106F0D4FF0023044A1360044A12
:103240001360044A1360044A136008BDC8120020CA
:10325000C4120020C0120020BC12002008B51BF0D0
:103260001BFA00F001FF08BD70B504460D46164676
:1032700006F087FE32462946204606F089FE324691
:103280002946204606F06FFE32462946204606F0C3
:1032900071FE70BD38B5FFF7E1FF01F0C5FF3E4C90
:1032A00020608722F02103F085F800221146206873
:1032B00003F048F84FF0000121F0070121F0F80178
:1032C00021F4F85121F460410022206806F067FEE5
:1032D00000221146206806F077FE00221146206881
:1032E000FFF7C2FF206823F023FD2C4D28602C49F6
:1032F00024F0D4F900224FF0FF31286806F06BFE6D
:10330000022305220121286803F0BAF8206816F08C
:103310000FFC244C20606922E62103F04BF86FF08B
:10332000010300220521206803F0AAF84FF00001F4
:1033300021F0070121F0F80121F4F85121F4604156
:103340000022206806F02BFE256812201CF0E4F80D
:1033500001460022284606F030FE0121206817F0C1
:10336000F9FB0021206816F0EFFB6421206817F0BC
:1033700036FC642300221146206817F06AFC24689A
:1033800009201CF0C9F801460022204617F084FCF1
:10339000054B186038BD00BFC8120020C4120020C1
:1033A0004CED0208C0120020BC12002070B590B095
:1033B000184C246864B3184DA5FB004C4FEA9C1EC2
:1033C0004FF47A7404FB1E0E85FB0140CC17C4EB4E
:1033D000A01404AE0393A5FB025189090291019444
:1033E0000E49A1FB0E12D20800924FEA9C130C4A20
:1033F000302130462AF034FF31460A4B186824F059
:103400004DF922B2084B1968084B186817F096FC62
:1034100010B070BDC8120020D34D6210CDCCCCCC02
:1034200068ED0208C4120020BC120020C012002067
:10343000002103E00B4B5B58435004310A480B4B0F
:1034400042189A42F6D30A4A02E0002342F8043BAB
:10345000084B9A42F9D300F093F82AF0A7FFFDF742
:1034600053FC70474037030800000020740300201D
:10347000740300201CE40020FEE782B000230193C7
:1034800002E0019B0133019300EB8003019AB2EB50
:10349000430FF6D302B07047354A136843F48033C4
:1034A000136000230133324A126812F4003F03D143
:1034B0004FF6FF729342F5D12D4B1B6813F4003F7A
:1034C00000D1FEE782B02A4BDA6942F08052DA611D
:1034D00028490A6842F440420A605A685A605A68A9
:1034E0005A605A6842F480625A605A6822F4403244
:1034F0005A605A6842F440325A605A6822F0904248
:1035000022F470125A605A6842F450125A601A68D3
:1035100042F080721A60164B1B6813F0007FFAD0DD
:10352000144A136843F480331360124B5B6813F43E
:10353000803FFAD00F4A136843F4003313600D4BF9
:103540005B6813F4003FFAD0094A53680193019B6A
:1035500023F003030193019B43F002030193019BBA
:103560005360034B5B6813F0080FFAD002B070474A
:10357000001002400070004008B5FFF78DFF08BD45
:1035800010B582B04A4AD2F8883043F47003C2F8CA
:103590008830484A136843F001031360454B1B68A9
:1035A00013F0020FFAD0434B5B6803F00C03082BB7
:1035B0001BD0404C636823F003036360C820FFF70F
:1035C0005CFF236823F0847323F4803323604FF47B
:1035D0001F03A360236823F4802323600023636018
:1035E000E362FFF7C9FF02B010BD0023009302E0C1
:1035F000009B01330093009B4F2BF9D92D4A536850
:103600000193019B23F0F0030193019B43F080039E
:103610000193019B53600023009302E0009B013360
:103620000093009B4F2BF9D9224A53680193019BC9
:1036300023F0F0030193019B43F090030193019B5E
:1036400053600023009302E0009B01330093009B32
:103650004F2BF9D9174A53680193019B23F0F003CC
:103660000193019B43F0A0030193019B536000234E
:10367000009302E0009B01330093009B4F2BF9D98C
:103680000C4A53680193019B23F0F0030193019BC3
:1036900043F0B0030193019B53600023009302E0C9
:1036A000009B01330093009B4F2BF9D981E700BFAA
:1036B00000ED00E00010024084B02E4B0FCB0DF166
:1036C000100C0CE90F002C4B5B68C3F38103012B3A
:1036D00014D0022B16D0002B48D1284B284A1A6050
:1036E000254B5B68C3F3031310336B4413F8101CB2
:1036F000224A1368CB40136004B070471F4B214A25
:103700001A60EDE71C4B5B6813F4803F0ED01A4B38
:10371000DB6A13F0804F07D11A49174B5B6813F42B
:10372000003F04D0490802E01749F6E71749124A5A
:103730005368C3F38343526812F0006F01D043F023
:1037400010030D4A526812F0804F09D043F0200355
:1037500001333D2B08D801FB03F3084A1360BFE790
:103760000E2BF5D80233F6E73F23F4E7034B044A68
:103770001A60B5E798EC02080010024088020020A9
:1037800000127A000024F400006CDC0200093D0005
:103790000346094A10680344084A934205D3084A7D
:1037A000934205D8044A136070474FF0FF307047CA
:1037B0004FF0FF30704700BF8C0200201CE4002057
:1037C00020E80020830903F1804303F504331A68DD
:1037D00000F01F00012181400A431A607047000079
:1037E000034A536823F4400303435360704700BF08
:1037F0000010024010B588B084463D4C94E80F009C
:103800000DF1200E0EE90F0002AB103494E8030016
:1038100083E80300CDE90001364B5B68C3F3810305
:10382000012B35D0022B57D1324B5B6813F4803F0C
:103830000ED0304BDB6A13F0804F07D12E4A2D4B50
:103840005B6813F4003F04D0520802E02B4AF6E70D
:103850002B4A284B5868C0F383405B6813F0006F15
:1038600001D040F01000234B5B6813F0804F09D06B
:1038700040F02000A0F10F032F2B07D8013002FBEE
:1038800000F006E00E28F5D80230F8E73F20F6E712
:10389000194818494B68C3F3031320336B4413F8DA
:1038A000102C20FA02F24B68C3F3022320336B443E
:1038B00013F8183C22FA03F44B68C3F3C2232033F5
:1038C0006B4413F8203C22FA03F3BCF1030F05D834
:1038D000DFE80CF00706090B0A48DAE7002000E0F1
:1038E000104608B010BD2046FBE71846F9E700BFB8
:1038F000A8EC0208001002400024F400006CDC0276
:1039000000093D0000127A0070B501F00F0E11F0B1
:10391000100F03D0042A03D04EEA020E002209E061
:103920004EF0030EC26B1A43C263F7E744610560B1
:10393000013292B2072A14D8012494401C40F7D0D7
:10394000066895004FF00F0C0CFA05FC26EA0C06F1
:103950000EFA05F535432829E8D04829E7D1046156
:10396000E5E7082203E044614560013292B20F2A84
:103970001AD84FF0010C0CFA02FC1CEA0304F4D034
:103980004568A2F1080C4FEA8C0C0F2606FA0CF6DB
:1039900025EA06050EFA0CFC4CEA05052829E2D0BA
:1039A0004829E1D10461DFE770BD016170474161E1
:1039B0007047000010B401F003039B000F229A40EF
:1039C00003290CD818498C6824EA02028A608A68A4
:1039D00000FA03F313438B605DF8044B704707292B
:1039E0000AD81149CC6824EA0202CA60CA6800FAFF
:1039F00003F31343CB60EFE70B290AD80A490C699C
:103A000024EA02020A610A6900FA03F313430B6114
:103A1000E2E705494C6924EA02024A614A69984092
:103A200002434A61D8E700BF0000014010B42C4BAC
:103A3000D3F800446FEA000C24EA0004C3F8004401
:103A4000D3F8044424EA0004C3F80444D3F8084437
:103A500024EA0004C3F80844D3F80C4424EA000420
:103A6000C3F80C4441B101290CD11D49D1F80434EB
:103A70000343C1F8043405E01949D1F80034034385
:103A8000C1F80034012A11D0022A1CD05AB9144BB3
:103A9000D3F808240243C3F80824D3F80C240CEA12
:103AA0000202C3F80C245DF8044B70470C4AD2F8AC
:103AB00008340CEA0303C2F80834D2F80C34034388
:103AC000C2F80C34EFE7064BD3F808240243C3F8DE
:103AD0000824D3F80C240243C3F80C24E3E700BF06
:103AE00000000140044BD3F81434034201D00120FC
:103AF00070470020704700BF00000140014BC3F831
:103B00001404704700000140002303604360836099
:103B1000C3604361836103617047026802F44152EC
:103B20000B681A434B681A438B681A43CB681A43D5
:103B30000B691A434B691A438B6913430360C369CA
:103B400023F40063C3617047036843F040030360DC
:103B50007047036823F0400303607047036843F431
:103B600080730360704721B9436843F002034360E8
:103B70007047436843F001034360704721B94368CD
:103B800023F0020343607047436823F0010343605E
:103B90007047C1607047C06880B2704783680B424D
:103BA00001D00120704700207047000001B9FEE7F6
:103BB00070B5044616460D460220FFF71BFE404B2B
:103BC000A3FB00239B0C3F4A904219D21A4661681E
:103BD00021F07F01114361603B498D4219D80133C7
:103BE0003B2B0FD93C2323626B00B0FBF3F3032B79
:103BF00000D80423E269C3F30B031343E36170BDF0
:103C00003C22E4E7022B02D802232362ECE7236282
:103C1000EAE72E4B9D422AD84FF4967302FB03F33A
:103C20002B4AA2FB03239B0901332362A6B905EBB0
:103C30004505B0FBF5F3E26922F48042E261C3F38B
:103C40000B020AB943F00103E26942F40042E26167
:103C5000E2691343E361D2E705EB850505EB8505D2
:103C6000B0FBF5F3E26942F48042E261E7E7C2EBC0
:103C70000213DB00164AA2FB03239B0901332362D4
:103C800096B905EB4505B0FBF5F0E36923F48043F5
:103C9000E361E36943F40043E361E3690343E36100
:103CA0000123C4F89030AAE705EB850505EB8505EF
:103CB000B0FBF5F0E36943F48043E361E9E700BF5B
:103CC00083DE1B4300879303A0860100801A060051
:103CD000D34D621010B4046824F0020C4CEA0101C8
:103CE0000160C3F30903134383605DF8044B70471D
:103CF000036823F480630B430360704712F1020FE3
:103D000003D041F001010161704721F00101FAE7A0
:103D1000036843F0010303607047036843F4807352
:103D200003607047036843F40073036070470161E8
:103D300070470069C0B270478B091B5801F01F0122
:103D4000CB4013F0010F01D00120704700207047D5
:103D500040F2015399420CD04FEA911C5CF80030BC
:103D600001F01F0101228A4023EA02034CF80030CF
:103D70007047436983697047002808DB0901C9B2AD
:103D800000F1604000F5614080F80013704700F0DA
:103D90000F000901C9B2014B1954704714ED00E03E
:103DA00000B500F00700C0F1070CBCF1040F28BFFC
:103DB0004FF0040C031D062B0ED9C31E4FF0FF3E1F
:103DC0000EFA0CF021EA000199400EFA03FE22EAF5
:103DD0000E0241EA020000BD0023EFE740F0BF60A1
:103DE00040F40030014BD860704700BF00ED00E0A8
:103DF00070B504460D461646174BDB6803F4E063C6
:103E0000B3F5A06F0AD020D8B3F5407F06D0B3F544
:103E1000806F03D04FF4A060FFF7E0FF0E4BD8682F
:103E200032462946C0F30220FFF7BAFF014620467A
:103E3000FFF7A2FF002C07DB04F01F026409012337
:103E40009340064A42F8243070BDB3F5C06FE5D008
:103E5000B3F5E06FDED1E1E700ED00E000E100E066
:103E6000054B984201D001207047042901D8012058
:103E700070470020704700BF0004024038B5054677
:103E80000C46FFF7EDFF00B9FEE7A10004EB840448
:103E900005EB84039A6822F001029A6000229A607E
:103EA000DA601A615A616B680F228A4013436B60B3
:103EB00038BD50B100220260426002768260C2606A
:103EC00042760261827642617047FEE770B506462F
:103ED0000C461546FFF7C4FF00B9FEE704EB84016A
:103EE00006EB81032A681A61AA685A612A8ADA6095
:103EF0009A6822F47C526968E86801436869014362
:103F0000114399602A7E012A11D09A6822F040025A
:103F10009A606A7E012A0FD09A6822F080029A6025
:103F2000AA7E72B99A6822F010029A6070BD9A68EF
:103F300042F040029A60ECE79A6842F080029A6090
:103F4000EEE79A6842F010029A60EFE738B504464F
:103F50000D46FFF785FF00B9FEE705EB850104EB91
:103F60008100836843F00103836038BD38B504469F
:103F70000D46FFF775FF00B9FEE705EB850104EB81
:103F80008100836823F00103836038BD70B5054666
:103F90000C461646FFF764FF00B9FEE704EB840108
:103FA00005EB8100466170BD70B505460C461646AE
:103FB000FFF756FF00B9FEE704EB840105EB810033
:103FC000B6B2C66070BD436889008A40134343603F
:103FD0007047042A13D0082A1ED0022A29D1D0F80B
:103FE00000C08B009A400CEA02020B4400EB8303F2
:103FF0009B6803F00203EAB1F3B900207047D0F8E0
:1040000000C08B009A400CEA02020B4400EB8303D1
:104010009B6803F00403EEE7D0F800C08B009A40E1
:104020000CEA02020B4400EB8300836803F00803F0
:10403000E1E7FEE7002070470120704743688900F0
:104040008A4013434360704770B504460D461646D8
:10405000FFF706FF00B9FEE705EB850104EB8100E1
:1040600083683343836070BD08B5034608B118699F
:1040700008BD1AF011FB03460028F8D1F8E708B58F
:10408000034608B1586908BD1AF006FB034600282C
:10409000F8D1F8E708B5034608B1D86908BD1AF0A9
:1040A000FBFA03460028F8D1F8E708B5034608B143
:1040B000186A08BD1AF0F0FA03460028F8D1F8E7AC
:1040C00008B5034608B1986808BD1AF0E5FA03463A
:1040D000F9E708B5034630B1D3F854010028D4BF3E
:1040E0000020012008BD1AF0D7FA03460028F3D1BA
:1040F0000020F7E7806858B1837E03F03F038B42CE
:1041000005D9C06801EB410100EB81007047002038
:1041100070470000037E13F0040F1ED110B5044653
:10412000037A233B012B01D8012010BD4FF48041BD
:10413000406801F0DFF80028F7D0237A113BDBB2AA
:104140001B2B94BF0021012149B9064A22FA03F32F
:1041500013F0010FE9D00846E7E700207047084652
:10416000E3E700BFFF270F0B10B50C4608B100684E
:1041700003E04B68186800E0006810B10369002B89
:10418000FAD060B1036963B10023E360036921469B
:104190009847237E13F0010F05D1012010BD0120A7
:1041A000FCE70120FAE70020F8E7F8B5064600F042
:1041B00001FB58B1006883680BB1317A9847337EB0
:1041C00013F0020774D113F0010F5BD10021706866
:1041D000FFF790FF0446002511E06368F360236851
:1041E00030469847337E13F0020763D113F0010F76
:1041F00048D1013529467068FFF77CFF04467CB141
:104200002368002BF5D0237A94F90820002AF0DAED
:10421000802BE2D023F08003327A9342E9D1DCE7AD
:1042200031460020FFF7A0FF074620B1002170684B
:10423000FFF760FF0446002511E06368F360236820
:1042400030469847337E13F002021BD113F0010F62
:1042500032D1013529467068FFF74CFF04467CB126
:10426000012F0DD12368002BF3D0227A94F9083066
:10427000002BEEDB002AE0D0337A9A42E9D1DCE76A
:10428000012F01D03846F8BD73685B68002BF9D068
:104290003046FFF73FFF0028F4D073685B68736017
:1042A0003046FFF782FF07460128EBD00027E9E7F9
:1042B0000127E7E70127E5E71746E3E718B310B55D
:1042C00088B0019002908DF80C10002304930592A1
:1042D0009DF81C2063F300028DF81C20D2B263F31A
:1042E00082028DF81C20D2B263F341028DF81C20AB
:1042F000064C2368069301A82060FFF756FF069B33
:10430000236008B010BD0120704700BFCC12002010
:104310000068704740687047007A00F07F0070477F
:1043200000697047C0687047084B1B6804E01A7E3C
:1043300042F001021A765B6933B15A688242F6D0C4
:104340001A688242F7D1F2E7704700BFCC12002012
:104350002DE9F04104460F4616461D4601F050FA7D
:10436000A1688B7E03F03F02013262F305038B7676
:10437000D4F8088098F81A1001F03F0101EB4101D0
:104380008900D8F80C001BF035FDC8F80C00A368B4
:10439000DA684AB39B7E03F03F0303EB43039B00C1
:1043A0000C3BD750A368DA68997E01F03F0101EB1E
:1043B00041039B000C3B13441E72A268D368927E9B
:1043C00002F03F0202EB420292000C3A13445D609D
:1043D000A368D8689B7E03F03F0303EB43039B0075
:1043E0000C3B1844BDE8F081FEE708B5037A013BB9
:1043F000DBB20F2B02D8FFF793FF08BD0020FCE7CC
:1044000008B5027AA2F11403DBB2022B05D9182AEF
:1044100003D0172A01D0192A02D1FFF781FF08BD66
:104420000020FCE7037A132B00D0704710B50C4630
:10443000FFF776FFB0F90030A342B8BF23460380F0
:1044400010BDF8B5054600201AF084F90446002690
:10445000374605E02646274620461AF07BF90446F3
:104460005CB1204600F0ACF9636DAB42F4D1022898
:104470000ED00428EED02646EEE70FB13846F8BD40
:104480000EB13746FAE700201AF064F90746F5E75F
:104490002746F3E72DE9F047037F13F0010F6ED1B4
:1044A00006468A469146C5684FF001080027E5B1E7
:1044B000012357B32BB129463046C84705468742EA
:1044C00068D0002DF3D0286800F020FF10F0800F96
:1044D000EDD12C681CB30121204600F00BFFC0B9C0
:1044E000204605F094FD0446F4E7337F13F0080FEF
:1044F00001D1002F48D1B8F1000F42D03046D0474B
:1045000005464FF000084346D3E7002D3FD02F4625
:10451000D0E70121204600F0EDFE0028C7D1F36866
:10452000AB423AD08BB11C683046FFF78AFF024697
:104530000F212046FFF7C2FE012802D04FF00008ED
:104540001FE0F368186802F0E3FBF5602C68304662
:10455000FFF777FF02460E212046FFF7AFFE012846
:1045600002D04FF000080CE0F368186802F0D0FBAE
:104570003369ABB1304698474FF0010801E04FF086
:1045800000084046BDE8F0874FF00008F9E74FF01B
:104590000008F6E74FF00008F3E74FF00008F0E7F7
:1045A0004FF00108EDE7000008B5202101481BF09D
:1045B000D7F908BDA8160020014B1868704700BF46
:1045C000D012002010B50446054A0649FFF762FFE5
:1045D00063691BB110B901212046984710BD00BF87
:1045E000FDF90108EDF9010810B50446054A064930
:1045F000FFF750FF63691BB110B9002120469847AF
:1046000010BD00BF05FA0108F5F9010838B50446E8
:10461000037FC3F3C00543F008030377DBB213F055
:10462000040F06D1FFF7CEFF237F65F3C303237783
:1046300038BDFFF7D9FFF7E770B5064600F06EFE0C
:10464000002849D00546C36813B11B68B34213D094
:10465000EB6813B11B68B34230D028461BF0C6F993
:104660000446002C38D02368B3422AD0214628467D
:104670001BF0C4F90446F4E7037F13F0010F03D0E5
:10468000037F23F00103037728461BF0AFF9EB68A3
:10469000834203D02846FFF7B9FFD9E728461BF02D
:1046A000A9F9EB688342F5D11C682846FFF7C9FEDB
:1046B00002460F212046FFF701FEC9E70023EB6009
:1046C000CBE7214628461BF0D3F920461BF076FBAA
:1046D000B3680BB100229A6070BD002839D070B564
:1046E0000C4605460846FFF7A7FF28461BF07EF953
:1046F000014639B10B68A3421ED028461BF07EF953
:104700000146F6E7204600F009FE30B1A3689B6839
:104710001BB1DB681B68A3420FD0A36883B1A368F9
:104720009D6028461BF043F9064668B104602846A0
:104730001BF05CF9864208D070BDFFF767FFECE71D
:10474000204601F05DF8EAE7FEE72846FFF75EFF46
:10475000F2E7704718B1C06808B100687047704749
:10476000F8B170B50446037FC3F340038B4213D006
:10477000037F61F341030377FFF7ECFF054658B170
:10478000E3681E682046FFF75CFE02460E213046B5
:10479000FFF794FD012800D070BD284602F0B8FA5A
:1047A000FAE7704718B1007FC0F34000704700205F
:1047B00070470000014B1868704700BFD8120020F6
:1047C00010B10368187870470020704710B50C4688
:1047D00048B30246437943F002034371284B1B68F8
:1047E000834206D013681B78013BDBB2012B04D94E
:1047F00010BD244B00211960F4E734B1536BA34280
:104800000ED0936AA34204D101E000235363002336
:10481000936214B1D36AA342EAD10023D362E7E7DB
:1048200000235363EDE7002019F094FF06E0002316
:10483000436383620023C36219F08CFFD8B14379CC
:1048400043F00203437103681B78013BDBB2012B89
:10485000F2D8002CEBD0436BA34206D0836AA3426C
:1048600006D0C36AA342E7D1E4E700234363F5E738
:1048700000238362F5E7034B00221A60B8E700BF0C
:10488000D8120020D412002010B50446437923F03A
:104890000103437119F078FFE06419F075FFA0641B
:1048A00010BD034650B102681278012A0AD0032ACB
:1048B00008D04FF6FF730B804B80704700230B80AE
:1048C0004B807047B3F908200A80B3F90A304B8057
:1048D0007047034650B102681278012A01D0032ABA
:1048E00006D193F8440000F00F0070470020704795
:1048F00000207047034638B102681278012A01D0BF
:10490000032A02D1186B70477047002070470023BC
:104910000B804B80034658B102681278012A01D0FF
:10492000032A05D1B3F918200A80B3F91A304B8055
:10493000704718B1437943F0080343717047000092
:10494000014B1868704700BFD41200200246E0B146
:10495000032907D00C291AD1B0F926301268517EEC
:1049600000200FE0B0F92430F8E7184400B2C1F19C
:10497000640202FB03F3074A82FB03C2DB17C3EBAB
:1049800062131BB2002BF0D170470020704700204B
:10499000704700BF1F85EB5138B505460C460846E9
:1049A00009F092F921224FF48031284604F0D8FD15
:1049B000C0B2E07002283BD831224FF48031284643
:1049C00004F0CEFDC0B284F82200022838D8452277
:1049D0004FF48031284604F0C3FDC0B284F836009D
:1049E000022843D84FF48031284605F059FAFC28B4
:1049F0000DD8E37800FB03F31B12E370DBB200FB7E
:104A000003F3C3F3072384F8223084F83630E378C5
:104A10002BB994F8223013B994F8360038B10B2230
:104A20004FF48031284604F09BFD2080012038BDE2
:104A300020224FF48031284604F092FDA080BBE78D
:104A400032224FF48031284604F08AFD00B22084DF
:104A5000002803DC002384F82230B8E730224FF42A
:104A60008031284604F07CFDE083B0E740224FF41B
:104A70008031284604F074FD00B2E085002803DC94
:104A8000002384F83630ADE743224FF480312846C6
:104A900004F066FDA08644224FF48031284604F0DD
:104AA0005FFDA0859EE70000F0B5A5B004460E4668
:104AB00022AD20AA294603F08FFD28461AF0BFF840
:104AC00018B920A81AF0BBF828B112A92046FFF7A0
:104AD00063FF012801D025B0F0BD3146684601F0E2
:104AE0002EFB1B4B01930223029312AB04934FF452
:104AF00080330D9322A81AF0A2F8B8B920A81AF0B2
:104B00009EF80028E7D020AD03956A461A2120467A
:104B1000FFF7D4FB03952A4612A9304609F016F98F
:104B20006A461B212046FFF7C9FBD4E722AF039753
:104B30006A461A212046FFF7C1FB3A4612A93046C1
:104B400009F004F96A461B212046FFF7B7FBD5E7B9
:104B500028F402082DE9F043A3B00646FFF7DCFB7A
:104B600005463046FFF7D4FB0446122D07D0152D1D
:104B70006AD0182D00F0FE8023B0BDE8F0833046E7
:104B8000FFF7CEFB05460378022BF5D01722002154
:104B9000204604F0E5FC10B102232B70ECE70B2259
:104BA0000021204604F0DCFC07B2692200212046E7
:104BB00004F0D6FC06466A220021204604F0D0FC10
:104BC000B4F91410ADF84010B4F91630ADF8423015
:104BD000B4F918C0ADF844C0B4F91A20ADF84620B5
:104BE00089B2B6B2891BADF8401016FA8CFCADF84C
:104BF00044C09BB280B21B1AADF8423010FA82F268
:104C0000ADF846203A4610A968681AF078F910B94C
:104C100001232B70B0E721220021204604F0A0FCE4
:104C2000C0B2FC2802D801232B70A5E76022002126
:104C3000204604F095FCC3B2FC2B02D900232B7054
:104C40009AE701232B7097E73046FFF7D9FB06461A
:104C500002A809F039F834220021204604F080FC33
:104C600028B19DF82B3043F001038DF82B3002AFB3
:104C70003A460021204600F05DFF692200212046CF
:104C800004F06EFC05466A220021204604F068FC10
:104C9000B4F91420ADF80020B4F91630ADF80230A4
:104CA000B4F918C0ADF804C0B4F91A10ADF8061084
:104CB00092B2ADB2521BADF8002015FA8CFCADF8E3
:104CC00004C09BB280B21B1AADF8023010FA81F119
:104CD000ADF806100DF140083146404601F02FFABC
:104CE000654B1193002512951497CDF84CD01D9566
:104CF00042461A212046FFF7E1FA172229462046AC
:104D000004F02EFC30B1BDF908301BB1069F0695AA
:104D1000012501E0069F00256A4602A9304609F0F8
:104D200015F82DB910AA1B212046FFF7C7FA23E773
:104D300018201BF077F805460023BDF9082004F180
:104D4000140108F015FF04F59071284608F0EAFCFC
:104D5000002FE7D000238DF80B308DF82A308DF826
:104D600032308DF83E3006976A4602A9304608F088
:104D7000EDFFD7E73046FFF743FB054601462046E7
:104D8000FFF792FE17220021204604F0E9FB0028DD
:104D900065D134220021204604F0E2FB00283FF4D4
:104DA000EBAE0DF10808404608F08EFF00268DF8A6
:104DB0000B608DF822608DF832608DF83E604246BF
:104DC0003146204600F0B6FE69223146204604F006
:104DD000C7FB07466A223146204604F0C1FBB4F9FE
:104DE0001420ADF80020B4F91630ADF80230B4F953
:104DF00018C0ADF804C0B4F91A10ADF8061092B29C
:104E0000BFB2D21BADF8002017FA8CFCADF804C07D
:104E10009BB280B21B1AADF8023010FA81F1ADF8E6
:104E2000061010AF2946384601F089F9124B11934C
:104E300001231293CDF85080CDF84CD01D963A4600
:104E40001A212046FFF73AFA6A464146284608F0FA
:104E50007DFF3A461B212046FFF730FA8CE604F529
:104E6000907008F0B5FC0646002892D008F0CAFC05
:104E700030461BF039F88CE728F402082DE9F041A0
:104E80000C464D6825B3284602F054FF06462846D6
:104E900002F0F0FE0746B5F81680102200212846E1
:104EA00004F05EFB18FA80F39BB2DB1B9AB2E3823C
:104EB000531E6383AF8A12220021284604F050FB60
:104EC00017FA80F39BB2981B83B2A082013B238325
:104ED0000223E36141F20203E3612DB143F20203D5
:104EE000E36143F20233E361E36943F00402E26108
:104EF00043F01402E26143F03402E26143F07402D1
:104F0000E26143F4076242F00402E26125B143F436
:104F1000084343F07403E361BDE8F08138B584468B
:104F2000144683884FF6FF72934219D0C07948B374
:104F3000012842D9DCF80050864605EB800C00239E
:104F400026E012F4004F4DD112F4804F04D1DEF868
:104F500004302360012015E01BF09AFE2060F9E781
:104F600000239CF807209A420BD9DCF8000000EBE4
:104F7000C30E30F83320C2F30D008142E1D001337B
:104F8000EFE7002038BD1BF083FE206011E0013305
:104F90009E4510D93CF81320C2F30D008142F6D192
:104FA00012F4004F20D112F4804FECD155F8233089
:104FB00023600120E6E70020E4E7C3F30D0081420F
:104FC00001D00020DEE713F4004F0FD113F4804F1F
:104FD00004D1DCF8003023600120D3E71BF058FE39
:104FE0002060F9E70220CDE70220CBE70220C9E7E5
:104FF0002DE9F04F8FB00591078C8F4208D0044601
:105000000D4601840A46394604F0DFF8064610B919
:105010000FB0BDE8F08F4FF420701AF003FF834605
:105020004FF420711BF052F84FF00009CA46079761
:10503000089627464C46A94654E00134A74218D9A1
:1050400004EB84050BEB85056E68304604F0BBF875
:105050000290304604F0ECF92A89D8F8003033F891
:1050600009309A42E9D18245E7D1039B029A9342E3
:10507000E3D8049DA7420CD00135D8F800304FEAA0
:10508000450933F815303BB31F2F1FD80024049572
:10509000D4E7D8F80C1007EB87000BEB80032BF854
:1050A0002010D8F810105980D8F80810D960D8F816
:1050B000001031F809101981D8F804101961069A06
:1050C0005168C1F3170159600137D5E7BA46099C09
:1050D0000A9FDDF82C9004E0BA46099C0A9FDDF88F
:1050E0002C9001347B8CC3F30513A3425CD9BAF135
:1050F0001F0F2FD8FE684FEAC40806EBC405686886
:1051000020F07F4004F05FF80390FB684344586848
:1051100020F07F4004F08CF90290039B33EA0903EE
:10512000DFD1EB7913F0020FDBD10DAA672156F81E
:105130003400FFF7F3FE0128D3D1DDF834800026D8
:105140000994069535460A975746DDF808A0CDF82C
:105150002C9092E7089E3C46079F0025B846DDF854
:1051600014900EE005EB85070BEB8707786804F0D9
:105170005FF9014600974B464246204604F066FA26
:105180000135AA45EED858461AF0AEFE012E13D0CE
:10519000032E15D0022E7FF43BAF204601F0B8FD60
:1051A000204600F0DBFF33E7089E3C46079F0025C2
:1051B000B846DDF81490E4E7204601F0A9FD27E7A2
:1051C0004FF6FF724FF47021204604F003FB1FE7F7
:1051D00008B5124B1B7803B108BD1AF0C3FD1CF0D3
:1051E0002DF91AF0A1FA19F0DDFBFFF7DDF906F051
:1051F00097FA03F0B9FF4FF4B47109481AF0B0FB05
:105200005C2108481AF0ACFB05F036FD09F0CEFA37
:1052100010F0AAFE014B01221A70DDE7E012002017
:10522000D8160020CC16002010B50146034800F027
:1052300031FB044600F0CDFB204610BD28F40208E7
:105240002DE9F04184B004460D4601F0BDF8064654
:1052500015F0100F16D1E36923EA0503E36115F099
:10526000010F1ED1204601F0AFF8B04202D115F077
:10527000C07F04D0204604F0CAFE01F0BFF804B09D
:10528000BDE8F08102AF3A466946204603F0A4F932
:105290006946204601F014FD3946204601F010FD14
:1052A000D9E7204601F034FD204601F08DF80028B2
:1052B000D8D0204604F0ABFE01F0A0F8204601F063
:1052C0009DF8CFE708B5038C43EA010231EA0303F6
:1052D00000D108BD1146FFF78BFEFAE708B5028C36
:1052E000CB431BB202EA03019A4300D108BDFFF78A
:1052F0007FFEFBE7C36999430CBF01200020704784
:10530000C0690840003818BF01207047008C704702
:10531000008C0840003818BF01207047806800B139
:1053200080687047F0B585B00D460846FEF7F4FF7B
:1053300004462846FEF7EEFF0646631E292B00F2C0
:10534000E181DFE813F02A00DF015500DF01DF0112
:10535000DF01DF012E0069016D01DF01DF0168005F
:1053600038018401DF01DF01DC01D401DF01DC0150
:10537000DF01DF01DC01DF01DF01DF01DF01DF0130
:10538000DF01DF01DF01DF01A801DF01CB01DF0168
:10539000DF01DF01DF01880159002021FFF792FFC3
:1053A000B0E12021FFF79AFF2846FFF71EF8FFF72C
:1053B000A1FA002840F0A68108213046FFF79AFFA5
:1053C000002800F09F813046FFF7A0FF10F0010F8A
:1053D00009D101213046FFF775FF00221C2130461C
:1053E000FEF76CFF8EE101213046FFF777FFF4E70F
:1053F0002021FFF773FF85E104F049FE05460024F4
:1054000006E0B3681B6853F8240000F0F7FF01348E
:10541000AC42F6D376E10821FFF76CFF08BB4FF4EE
:1054200001613046FFF766FF002800F06B813046CF
:1054300000F0A9FA002840F06581304602F07AFCBD
:105440000746304602F0E8FC04462846FEF768FFAF
:105450000378113B032B00F25581DFE803F0342081
:10546000487A2846FEF75CFF0478A4F11103032B69
:1054700007D8DFE803F0020F020F01213046FFF7E3
:1054800021FF0A2C00F03E8100221C213046FEF74D
:1054900015FF37E101213046FFF720FFF1E73046E5
:1054A00002F0E0FB84B2304601F051F802460028D9
:1054B00007DB04EBA201002209B2304602F09AFE9B
:1054C00020E1C21CF5E7304602F0CCFB84B2304646
:1054D00001F03DF80246002807DBA4EBA201002200
:1054E00009B2304602F086FE0CE1C21CF5E73046F8
:1054F00002F098FB10F0030F15D0002F01DC002CF8
:1055000011DD304602F0A6FB84B2304601F018F8F7
:10551000024600281BDB04EBA201002209B2304640
:1055200002F054FEEEE0304602F09CFB84B23046BE
:1055300001F00DF80246002807DB04EBA20100226F
:1055400009B2304602F056FEDCE0C21CF5E7C21C90
:10555000E1E7304602F066FB10F0030F15D0002F94
:1055600001DC002C11DD304602F074FB84B23046C1
:1055700000F0E6FF024600281BDBA4EBA20100229C
:1055800009B2304602F022FEBCE0304602F06AFB6F
:1055900084B2304600F0DBFF0246002807DBA4EBB4
:1055A000A201002209B2304602F024FEAAE0C21C89
:1055B000F5E7C21CE1E74FF48061FFF79BFEB0B94D
:1055C0003046FFF7ABFEFFF7EDF80446FFF7F2F8C1
:1055D00090B1FFF7F5F8022812D0042812D002216A
:1055E00094B141F008013046FFF76CFE8AE00121DA
:1055F000304602F0D1FFE3E72846FEF7F6FEE8E783
:105600000621EDE70621EBE73046FFF75BFE0821B8
:105610003046FFF763FE75E04021FFF753FE71E06F
:105620004021FFF75BFE304602F0F4FA022869D110
:1056300002AC22466946304602F0CEFF694630464B
:1056400001F03EFB2146304601F03AFB5AE00E21C4
:10565000FFF744FE56E00922002103F081FFC4B2A7
:105660000A220021304603F07BFF80B200B914B15A
:10567000304600F0C3FE304604F009FD0546002424
:1056800006E0B3681B6853F8240000F0B7FE01344D
:10569000AC42F6D336E00122002103F061FF07B2ED
:1056A00004220021304603F05BFF05B209220021ED
:1056B000304603F055FFC4B20A220021304603F001
:1056C0004FFF80B230B92CB942F2D1739F4201D062
:1056D0009D4217D1304600F091FE13E090F8223041
:1056E00043F0020380F8223000F088FE0AE0002137
:1056F00000F0B9FC01462846FEF794FE02E0284679
:10570000FFF728FA05B0F0BD10B50C460846FEF7C5
:105710000BFE002003F030FD144A0021204604F067
:1057200099FA012003F028FD0021204619F06EF9B6
:105730002046FFF7F3FD10B12046FEF77DFFA3687A
:105740009BB1186820B11AF039FBA36800221A60D7
:10575000A368D86820B11AF031FBA3680022DA6090
:10576000A0681AF02BFB0023A36010BDFFFF0F0001
:10577000F0B585B004460D4600F026FE064615F04D
:1057800001072AD1E3692B43E3618FB1022120464F
:10579000FFF7BEFD60B12046FFF7C0FD074638B1F8
:1057A000FEF710FF3846FEF7D5FF08B101F0B0FA5A
:1057B000204600F009FEB04202D115F0C07F07D0AC
:1057C000204604F024FC00F019FE204600F016FEEE
:1057D00015F0100F05D105B0F0BD204601F098FA84
:1057E000D0E702AD2A466946204602F0F5FE69463A
:1057F000204601F065FA2946204601F061FAEAE701
:10580000836803B1704710B504460C4A136801332E
:1058100013601C201AF0B4FAA06068B11C211AF0C1
:1058200055FCA268537E43F00F035376A268137EA3
:1058300043F00303137610BDFEE700BFDC12002027
:1058400028B10068884214BF002001207047002062
:10585000704738B5044605682B6813B10360FFF73D
:10586000F8FF25606B6813B121462846984738BD7C
:1058700000E0006820B18269054B1340002BF8D08E
:1058800018B18069C0F30F1070470020704700BF47
:10589000F0FF0F00F8B505460C46FFF7E9FF064696
:1058A0001AF06EFA0746F0B131461AF00FFC3D606F
:1058B0007C60D4B1A368002B47D0A5682B68002B6F
:1058C00047D06B6801336B60A568696889002868F8
:1058D0001AF090FA2860A3681A685B6803F18043A5
:1058E000013B42F823703846F8BD18F0D5FE044657
:1058F000F0B1C06808B3616A0131616289001AF0D1
:1059000079FAE060636A03F18043013B40F8237059
:105910000024BC82FC82204618F0C4FE80B201380C
:105920003883204618F0D6FE80B201387883DAE753
:1059300038461AF043FA2746D5E704201AF020FA31
:10594000E060076001236362E2E72046FFF758FF4B
:10595000B3E704201AF014FA2860A3681B681F60DC
:10596000A36801225A60BEE710B504460068836848
:105970000BB12146984723681B681BB12360204662
:10598000FFF7F2FF10BD036800E01B681BB11A7E31
:1059900012F0030FF9D03BB1187E00F0030001288C
:1059A00014BF00200120704700207047036800E00A
:1059B0001B681BB11A7E12F00C0FF9D03BB1187E98
:1059C00000F00C00042814BF0020012070470020C4
:1059D000704738B5044600F011FD002003F0CCFB01
:1059E000204605F081FE2046FFF733FF012003F03B
:1059F000C3FB4FF6FF724FF47021204603F0EAFE1E
:105A0000204600F0D7FFFEF7D7FD20B1054620461F
:105A1000FFF7CCFF88B9204604F0F9FA054658B1E3
:105A200022462221FEF74AFC224623212846FEF781
:105A300045FC204601F06CF938BD21462846FEF7AA
:105A40004CFEE8E738B504460D46202203F088FDF9
:105A500002462946204603F09FFE38BD38B504466D
:105A60000D46222203F07CFD02462946204603F023
:105A700093FE38BD38B504460D46302203F070FD64
:105A800002462946204603F087FE38BD38B5044655
:105A90000D46362203F064FD02462946204603F0F7
:105AA0007BFE38BD38B504460D46552203F058FD3F
:105AB00002462946204603F06FFE38BD38B504463D
:105AC0000D462A2203F04CFD02462946204603F0EB
:105AD00063FE38BD38B504460D46442203F040FD50
