:020000040800F2
:10000000081D0020F9520008415300084153000820
:10001000415300084153000841530008000000000C
:100020000000000000000000000000004153000834
:10003000415300080000000041530008A10D0008D2
:100040004153000841530008415300084153000840
:10005000415300084153000845110008415300086E
:100060004153000841530008415300084153000820
:100070004153000841530008415300084153000810
:100080004153000841530008415300084153000800
:1000900075110008415300084153000841530008FE
:1000A00041530008415300084153000841530008E0
:1000B00041530008890C00084153000841530008CF
:1000C00041530008415300084153000841530008C0
:1000D00041530008415300084153000841530008B0
:1000E000C51000084153000841530008415300085F
:1000F0004153000841530008415300084153000890
:10010000415300084153000841530008415300087F
:10011000415300084153000841530008415300086F
:10012000415300084153000841530008415300085F
:1001300010B5054C237833B9044B13B10448AFF321
:1001400000800123237010BD200300200000000068
:10015000046F000808B5034B1BB103490348AFF314
:10016000008008BD0000000024030020046F000888
:1001700080F0004002E000BF81F0004142001FBF5C
:100180005FEA410392EA030F7FEA226C7FEA236C65
:100190006AD04FEA1262D2EB1363C1BFD21841405A
:1001A00048404140B8BF5B42192B88BF704710F0F0
:1001B000004F40F4000020F07F4018BF404211F093
:1001C000004F41F4000121F07F4118BF494292EAFB
:1001D000030F3FD0A2F1010241FA03FC10EB0C0027
:1001E000C3F1200301FA03F100F0004302D54942B4
:1001F00060EB4000B0F5000F13D3B0F1807F06D361
:1002000040084FEA310102F10102FE2A51D2B1F158
:10021000004F40EBC25008BF20F0010040EA03004D
:100220007047490040EB0000013A28BFB0F5000FCD
:10023000EDD2B0FA80FCACF1080CB2EB0C0200FA83
:100240000CF0AABF00EBC25052421843BCBFD040D2
:100250001843704792F0000F81F4000106BF80F44C
:1002600000000132013BB5E74FEA41037FEA226C0F
:1002700018BF7FEA236C21D092EA030F04D092F0DA
:10028000000F08BF0846704790EA010F1CBF00200E
:10029000704712F07F4F04D1400028BF40F000406B
:1002A000704712F100723CBF00F50000704700F08B
:1002B000004343F0FE4040F4000070477FEA2262B2
:1002C00016BF08467FEA23630146420206BF5FEA83
:1002D000412390EA010F40F4800070474FF0000383
:1002E00004E000BF10F0004348BF40425FEA000C4A
:1002F00008BF704743F0964301464FF000001CE0F2
:1003000050EA010208BF70474FF000030AE000BF47
:1003100050EA010208BF704711F0004302D5404285
:1003200061EB41015FEA010C02BF844601460020F7
:1003300043F0B64308BFA3F18053A3F50003BCFA12
:100340008CF2083AA3EBC25310DB01FA02FC6344BF
:1003500000FA02FCC2F12002BCF1004F20FA02F2C6
:1003600043EB020008BF20F00100704702F12002B9
:1003700001FA02FCC2F1200250EA4C0021FA02F21A
:1003800043EB020008BF20EADC7070474FF0FF0C1F
:100390001CEAD0521EBF1CEAD15392EA0C0F93EA1A
:1003A0000C0F6FD01A4480EA010C400218BF5FEABC
:1003B00041211ED04FF0006343EA501043EA51112F
:1003C000A0FB01310CF00040B1F5000F3EBF490029
:1003D00041EAD3715B0040EA010062F17F02FD2A2D
:1003E0001DD8B3F1004F40EBC25008BF20F0010010
:1003F000704790F0000F0CF0004C08BF49024CEA27
:10040000502040EA51207F3AC2BFD2F1FF0340EAB8
:10041000C250704740F400004FF00003013A5DDC29
:1004200012F1190FDCBF00F000407047C2F100026A
:10043000410021FA02F1C2F1200200FA02FC5FEA57
:10044000310040F1000053EA4C0308BF20EADC70A1
:10045000704792F0000F00F0004C02BF400010F413
:10046000000F013AF9D040EA0C0093F0000F01F0C0
:10047000004C02BF490011F4000F013BF9D041EAE2
:100480000C018FE70CEAD15392EA0C0F18BF93EAE4
:100490000C0F0AD030F0004C18BF31F0004CD8D10E
:1004A00080EA010000F00040704790F0000F17BF95
:1004B00090F0004F084691F0000F91F0004F14D0DB
:1004C00092EA0C0F01D142020FD193EA0C0F03D133
:1004D0004B0218BF084608D180EA010000F0004036
:1004E00040F0FE4040F40000704740F0FE4040F411
:1004F000400070474FF0FF0C1CEAD0521EBF1CEAB0
:10050000D15392EA0C0F93EA0C0F69D0A2EB0302CD
:1005100080EA010C49024FEA402037D04FF0805367
:1005200043EA111143EA10130CF000408B4238BF2C
:100530005B0042F17D024FF4000C8B4224BF5B1A3A
:1005400040EA0C00B3EB510F24BFA3EB510340EA88
:100550005C00B3EB910F24BFA3EB910340EA9C0036
:10056000B3EBD10F24BFA3EBD10340EADC001B01A6
:1005700018BF5FEA1C1CE0D1FD2A3FF650AF8B424A
:1005800040EBC25008BF20F0010070470CF0004C57
:100590004CEA50207F32C2BFD2F1FF0340EAC25082
:1005A000704740F400004FF00003013A37E792F043
:1005B000000F00F0004C02BF400010F4000F013AA1
:1005C000F9D040EA0C0093F0000F01F0004C02BF9C
:1005D000490011F4000F013BF9D041EA0C0195E705
:1005E0000CEAD15392EA0C0F08D142027FF47DAF9E
:1005F00093EA0C0F7FF470AF084676E793EA0C0F8E
:1006000004D14B023FF44CAF08466EE730F0004C8B
:1006100018BF31F0004CCAD130F000427FF45CAF1B
:1006200031F000437FF43CAF5FE700BF4FEA400288
:10063000B2F1FE4F0FD34FF09E03B3EB12620DD910
:100640004FEA002343F0004310F0004F23FA02F07A
:1006500018BF404270474FF00000704712F1610F21
:1006600001D1420205D110F0004008BF6FF00040F8
:1006700070474FF0000070477BB972B90029BEBFC8
:1006800000204FF0004106E008BF00281CBF6FF0BB
:1006900000414FF0FF3000F0BBB9ADF1080C6DE93F
:1006A00004CE002909DB002B1ADB00F035F8DDF859
:1006B00004E0DDE9022304B07047404261EB4101F0
:1006C000002B1BDB00F028F8DDF804E0DDE9022355
:1006D00004B0404261EB4101524263EB4303704777
:1006E000524263EB430300F017F8DDF804E0DDE964
:1006F000022304B0404261EB41017047524263EB78
:10070000430300F009F8DDF804E0DDE9022304B05A
:10071000524263EB430370472DE9F047089D0F46B3
:1007200004468C46002B48D18A42164661D9B2FA5B
:1007300082F34BB1C3F1200201FA03FC20FA02F26A
:100740009E4042EA0C0C9C404FEA164EB7B2BCFBEE
:10075000FEF1220C0EFB11CC42EA0C4201FB07F029
:10076000904209D9B21801F1FF3C80F0EE8090422E
:1007700040F2EB8002393244121AA4B2B2FBFEF00E
:100780000EFB102244EA024400FB07F7A74209D9F6
:10079000341900F1FF3280F0DA80A74240F2D780AE
:1007A0003444023840EA0140E41B00211DB1DC4022
:1007B0000023C5E90043BDE8F0878B4206D90DB19F
:1007C000C5E9000100210846BDE8F087B3FA83F1CE
:1007D000002948D1BB4202D3824200F20781841A29
:1007E00067EB030201209446002DE4D0C5E9004CDC
:1007F000E1E7002A00F09280B2FA82F3002B40F089
:10080000A8808A1A4FEA164E1FFA86FC0121200C96
:10081000B2FBFEF70EFB172240EA02420CFB07F088
:10082000904207D9B21807F1FF3802D2904200F285
:10083000E2804746121AA4B2B2FBFEF00EFB102271
:1008400044EA02440CFB00FCA44507D9341900F12A
:10085000FF3202D2A44500F2CB801046A4EB0C0478
:1008600040EA0740A2E7C1F120068B4022FA06FCCD
:100870004CEA030C07FA01F420FA06F3F7404FEABA
:100880001C49234300FA01F81FFA8CFEB7FBF9F06C
:100890001C0C09FB107744EA074400FB0EF7A74243
:1008A00002FA01F20AD91CEB040400F1FF3A80F0CD
:1008B0009B80A74240F2988002386444E41B9FB2B8
:1008C000B4FBF9F309FB134447EA044403FB0EFEAF
:1008D000A64509D91CEB040403F1FF3780F08280A0
:1008E000A6457FD9023B644443EA0040A4EB0E04D2
:1008F000A0FB02E7BC427346B94663D360D05DB14A
:10090000B8EB030264EB090404FA06F622FA01F3D9
:100910001E43CC40C5E9006400214CE7620848084A
:1009200042EAC1710B0C43EA00438AB242EA034235
:10093000B3FBF6F1E407B4463746B6461F23B0FBD7
:10094000F6F0D21B41EA004161E7614614E7104628
:1009500028E7C3F1200120FA01F29E4027FA01F1B5
:100960009F403A434FEA164E1FFA86FCB1FBFEF752
:100970000EFB1710110C41EA004107FB0CF88845EB
:1009800004FA03F43AD9711807F1FF3001D288450F
:100990001FD8A1EB0801B1FBFEF808FB0CF70EFB1A
:1009A000181192B242EA0142BA422FD2B21808F1AB
:1009B000FF31C6D2BA42C4D2A8F102013244C0E724
:1009C000F0459CD2BEEB020367EB0C070138B94639
:1009D00095E7A6EB08084144B81EB1FBFEF808FBFA
:1009E0000CF7DCE73B467FE7504667E70846FBE647
:1009F0003444023832E7023F32441BE7A1EB0801DE
:100A00003846B1FBFEF808FB0CF7C8E7414698E70B
:100A1000704700BF00000000000000000000000060
:100A200001F0FF01102A2BDB10F0070F08D010F89F
:100A3000013B013A8B422DD010F0070F42B3F6D1A3
:100A4000F0B441EA012141EA014122F007047FF0BC
:100A500000070023F0E80256083C85EA010586EA13
:100A6000010685FA47F5A3FA87F586FA47F6A5FA4F
:100A700087F68EB9EED1F0BC01F0FF0102F007025B
:100A800032B110F8013B013A83EA010313B1F8D106
:100A90000020704701387047002D06BF35460338E7
:100AA000073815F0010F07D1013015F4807F02BF20
:100AB000013015F4C03F0130F0BC0138704700BF71
:100AC00080B500AF324B1B78DBB2002B5DD0304BD2
:100AD0001B78DBB203F00103002B1CD02C4B1B78DE
:100AE000DBB223F00103DAB2294B1A70294B1B78D1
:100AF000DBB20133DAB2274B1A70264B1B78DAB21D
:100B0000254BA3FB021359080B465B000B44D31A79
:100B1000DAB2204B1A701E4B1B78DBB203F00203D3
:100B2000002B0DD01A4B1B78DBB223F00203DAB294
:100B3000174B1A70174B1B78DBB2184600F0EEFF0C
:100B4000134B1B78DBB203F00403002B0ED0104BC9
:100B50001B78DBB223F00403DAB20D4B1A700D4B95
:100B60001B78DBB219460D4801F060FB084B1B787F
:100B7000DBB203F00803002B07D0054B1B78DBB278
:100B800023F00803DAB2024B1A7000BF80BD00BF29
:100B90005403002000000020ABAAAAAA6C03002086
:100BA00080B582B002AF00F021FB01F08DFD00F0B6
:100BB0007BFE00F053FB0346284A136000F008FC5C
:100BC0000346274A136000F027FC0346254A1360BA
:100BD000002000F03CFE002300934FF6FF73224AF2
:100BE0001421002000F072FF002300934FF6FF73E2
:100BF0001E4A4D21002000F069FF002300934FF6AC
:100C0000FF731B4A7C21002000F060FF194B1B780A
:100C1000012B13D1174B00221A70174B1B78DBB234
:100C20001649184600F0AAFF1549144801F0B8F813
:100C30000221134801F0C4FAFFF742FF114B1B7861
:100C4000012BE3D10F4B00221A700B4B1B78DBB248
:100C500019460A4801F024F8D8E700BF3C030020F9
:100C600040030020440300201C6F0008246F00088C
:100C70002C6F00084C0300200000002058030020C7
:100C80006C0300204D03002080B500AF01211848FF
:100C900005F042FB0346012B27D10121144805F042
:100CA0005DFB144B1B680133124A1360114B19682A
:100CB000114BA3FB0123DA0813469B0013445B008E
:100CC000CA1A002A02D10D4B01221A70094B1A6868
:100CD0000B4BA3FB02131B09322101FB03F3D31AB5
:100CE000002B02D1074B01221A7000BF80BD00BF4C
:100CF0000004004048030020CDCCCCCC4C030020A5
:100D00001F85EB514D03002080B483B000AF034634
:100D10003960FB7197F90730002B0BDA3B68DAB2C8
:100D20000C49FB7903F00F03043B1201D2B20B44D0
:100D30001A7609E03B68DAB2074997F907301201E1
:100D4000D2B20B4483F8002300BF0C37BD4680BCF1
:100D5000704700BF00ED00E000E100E080B582B028
:100D600000AF78607B68013BB3F1807F01D3012342
:100D70000FE00A4A7B68013B53600F214FF0FF30C0
:100D8000FFF7C2FF054B00229A60044B07221A604E
:100D9000002318460837BD4680BD00BF10E000E0C4
:100DA00080B400AF044B1B680133034A136000BFDB
:100DB000BD4680BC704700BF5003002080B400AF28
:100DC000024B1B681846BD4680BC7047500300208C
:100DD00080B485B000AF7860084B1B68FB6000BF33
:100DE000064B1A68FB68D31A7A689A42F8D800BF93
:100DF00000BF1437BD4680BC704700BF50030020C1
:100E000080B500AF01F0AAFB00BF80BD80B582B005
:100E100000AF0346FB7100BF02210E4804F08AFEBA
:100E20000346002BF8D0FB799BB21946094804F021
:100E300064FE00BF0121074804F07CFE0346002B3E
:100E4000F8D0044804F069FE0346DBB218460837C0
:100E5000BD4680BD0038004080B500AF4FF4C06093
:100E600004F06FFA40F2026004F06BFA40F20360A3
:100E700004F067FA40F2046004F063FA40F205609F
:100E800004F05FFA522303221021234804F0CEFB22
:100E90005221214804F07EFCA023032218211E4881
:100EA00004F0C4FB4FF46043032248211B4804F0C4
:100EB000BDFB012303224821174804F0B7FB4FF480
:100EC000007303221021164804F0B0FB012000F04B
:100ED000ABF9C02303221C21114804F0A7FB4FF4F7
:100EE0008053032210210E4804F0A0FB4FF48051E0
:100EF0000B4804F04FFC4FF420430322182108480C
:100F000004F094FB4FF4804303220421044804F0CE
:100F10008DFB00BF80BD00BF0008014000100140F4
:100F2000000C014080B588B000AF40F20C6004F0C6
:100F300008FA3B1D184604F063FD0023BB604FF424
:100F400082737B600023FB600023BB614FF400735E
:100F50003B610823FB6100237B613B1D194616485A
:100F600004F06CFD144804F0B9FD134804F0A7FD2B
:100F700040F20E7004F0E5F93B1D184604F040FD08
:100F80000023BB604FF482737B600023FB6000236F
:100F9000BB614FF400733B611023FB6100237B6155
:100FA0003B1D1946054804F049FD044804F087FD3F
:100FB00000BF2037BD4680BD0030014000380040F2
:100FC00080B500AF40F2157004F0BBF900220A4969
:100FD0000A4804F0C7FD322300220021074804F02C
:100FE000CDFE064804F028FF4FF48061034804F06A
:100FF000ECFE00BF80BD00BFA08601000054004091
:1010000080B500AF40F2046004F09BF940F202604A
:1010100004F097F94FF4C06004F093F94FF4604383
:1010200003224821254804F001FB0D21022004F091
:10103000CFFB0E21022004F0CBFB0F21022004F095
:10104000C7FB0123032248211D4804F0EFFA0021C9
:10105000002004F0BDFB012200214FF4005004F0F9
:101060002FFC4FF4005004F0BDFC012200214FF48E
:10107000804004F025FC4FF4804004F0B3FC0122D2
:1010800000214FF4004004F01BFC4FF4004004F03A
:10109000A9FC01220021012004F012FC012004F02F
:1010A000A1FC00220221282005F0FCF900220221E7
:1010B000062005F0F7F900BF80BD00BF0010014019
:1010C0000008014080B500AF4FF4005004F072FCFE
:1010D0000346002B0BD04FF4005004F083FC184B58
:1010E0001B78DBB243F00103DAB2154B1A704FF4F0
:1010F000804004F05FFC0346002B0BD04FF480408F
:1011000004F070FC0E4B1B78DBB243F00203DAB242
:101110000B4B1A704FF4004004F04CFC0346002BBC
:101120000BD04FF4004004F05DFC054B1B78DBB2A4
:1011300043F00403DAB2024B1A7000BF80BD00BF57
:101140005403002080B500AF012004F033FC0346B7
:10115000002B0AD0012004F045FC054B1B78DBB2C4
:1011600043F00803DAB2024B1A7000BF80BD00BF23
:101170005403002080B500AF03F0CEFE00BF80BD59
:1011800080B584B000AF40F2017004F0DAF8164880
:1011900004F0EAFE3B46184605F004F842F6DF6329
:1011A0003B8000237B800023BB800923BB6000239E
:1011B000FB8000233B733B4619460B4805F00EF8B5
:1011C0000121094805F0CAF80121074805F091F806
:1011D000002201211D2005F065F9034805F07AF889
:1011E00000BF1037BD4680BD0004004080B500AF91
:1011F000FFF706FE0A4B1B680A4AA2FB03239B0962
:101200001846FFF7ABFDFFF727FEFFF78BFEFFF752
:10121000D7FEFFF7F5FEFFF7B3FF00BF80BD00BFAD
:1012200018000020D34D621080B582B000AF034695
:10123000FB71FB79002B05D04FF40071064804F0D8
:10124000A9FA04E04FF40071034804F0B2FA00BFB9
:101250000837BD4680BD00BF000C014080B582B09C
:1012600000AF4FF48051134804F0A3FA9F20FFF71A
:10127000CDFDFF20FFF7CAFD03461B047B60FF2066
:10128000FFF7C4FD03461B027A6813437B60FF200F
:10129000FFF7BCFD03461A467B6813437B604FF49F
:1012A0008051044804F076FA7B6818460837BD463A
:1012B00080BD00BF000C014080B584B000AFF86075
:1012C0000B467A60FB7206E07B685A1E7A60002B40
:1012D00001D100230BE0FB689BB21946064804F0DD
:1012E000F5FD03461A46FB7A9342EDD101231846D9
:1012F0001037BD4680BD00BF0054004080B586B0A9
:1013000000AF0346FB710023FB754CF250333B6189
:1013100006E03B695A1E3A61002B01D1002351E0DF
:1013200040F20161294804F0D1FD0346012BF0D0C1
:10133000264804F090FD42F2107201214FF4A060A3
:10134000FFF7BAFF0346002B04D1204804F092FDBA
:10135000002337E0FB795B006FF0010219461B4860
:1013600004F04DFD0023FB6020E040F201511748DE
:1013700004F0ACFD0346012B07D140F201511348A4
:1013800004F0C5FD0123FB7515E040F20A510F483A
:1013900004F09CFD0346012B05D140F20A510B4895
:1013A00004F0B5FD07E0FB680133FB60FB6844F621
:1013B0001F629342D9D9054804F05CFD0120FFF774
:1013C00007FDFB7D18461837BD4680BD0054004020
:1013D00080B582B000AF00237B600823FB7013E070
:1013E000FB781846FFF78AFF0346002B09D0FB78ED
:1013F0001F2B06D8FB78012202FA03F37A68134305
:101400007B60FB780133FB70FB783F2BE8D97B686E
:1014100018460837BD4680BD80B582B000AF0023B6
:101420007B604023FB7011E0FB781846FFF766FFF6
:101430000346002B07D0FB78403B012202FA03F35E
:101440007A6813437B60FB780133FB70FB78772B62
:10145000EAD97B6818460837BD4680BD80B586B09E
:1014600000AF03460A46FB711346BB710023FB73B2
:101470000023BB7300237B614CF250333B6106E0D9
:101480003B695A1E3A61002B01D1002311E140F261
:1014900001618A4804F01AFD0346012BF0D0874809
:1014A00004F0D9FC42F2107201214FF4A060FFF762
:1014B00003FF0346002B04D1804804F0DBFC00232B
:1014C000F7E0FB795B006FF0010219467B4804F0FE
:1014D00096FC44F620637B611FE040F2015177489F
:1014E00004F0F4FC0346012B05D140F2015173488E
:1014F00004F00DFD16E040F20A51704804F0E6FCDD
:101500000346012B09D140F20A516C4804F0FFFC5C
:101510006A4804F0AFFC0023CBE07B695A1E7A6175
:10152000002BDAD17B69002B0FD1644804F0A2FCB8
:101530000023BEE07B69013B7B617B69002B04D10A
:101540005E4804F097FC0023B3E040F207515B488B
:1015500004F0BCFC0346002BECD0BB79194657487D
:1015600004F097FC0AE07B69013B7B617B69002BFF
:1015700004D1524804F07EFC00239AE040F202516C
:101580004E4804F0A3FC0346002BECD04B4804F07B
:1015900062FC42F2107201214FF4A060FFF78CFE52
:1015A0000346002B04D1454804F064FC002380E08E
:1015B000FB795B0001221946404804F020FC44F608
:1015C00020637B611FE040F201513C4804F07EFC47
:1015D0000346012B05D140F20151384804F097FC35
:1015E00016E040F20A51354804F070FC0346012B26
:1015F00009D140F20A51314804F089FC2F4804F027
:1016000039FC002355E07B695A1E7A61002BDAD140
:101610007B69002B04D1294804F02CFC002348E00E
:101620004FF48061254804F0D0FB0AE07B69013B60
:101630007B617B69002B04D1204804F01BFC002354
:1016400037E040F206511D4804F040FC0346002BF1
:10165000ECD01A4804F02DFC0346FB730021174818
:1016600004F0B3FB0AE07B69013B7B617B69002BE3
:1016700004D1124804F0FEFB00231AE040F20651A8
:101680000E4804F023FC0346002BECD00B4804F07A
:1016900010FC0346BB73094804F0ECFB0120FFF784
:1016A00097FBFB7B9BB21B029AB2BB7B9BB21343A3
:1016B0009BB218461837BD4680BD00BF005400409D
:1016C00080B500AF1021024804F073F800BF80BD60
:1016D0000008014080B500AF1021024804F05AF81C
:1016E00000BF80BD0008014080B500AF4021024826
:1016F00004F05FF800BF80BD0008014080B500AF76
:101700004021024804F046F800BF80BD00080140B7
:1017100080B582B000AF0346FB7100BF02210E48C6
:1017200004F008FA0346002BF8D0FB799BB2194667
:10173000094804F0E2F900BF0121074804F0FAF972
:101740000346002BF8D0044804F0E7F90346DBB267
:1017500018460837BD4680BD0030014080B582B0D4
:1017600000AF0346FB71FFF7ABFFFFF7BDFFFB794F
:101770001846FFF7CDFFFFF7ADFF00BF0837BD46A6
:1017800080BD80B582B000AF0346FB71FFF798FFC4
:10179000FFF7B4FFFB791846FFF7BAFFFFF79AFF90
:1017A00000BF0837BD4680BD80B582B000AF03469C
:1017B000FB80FFF785FFFFF7A1FFFB881B0A9BB2A9
:1017C000DBB21846FFF7A4FFFB88DBB21846FFF731
:1017D0009FFFFFF77FFF00BF0837BD4680BD90B574
:1017E00083B000AF0446084611461A462346FB80E4
:1017F0000346BB800B467B8013463B80FB88283327
:10180000FB807B8828337B80BB883533BB803B885B
:1018100035333B802A20FFF7A1FFFB881846FFF7EE
:10182000C3FF7B881846FFF7BFFF2B20FFF796FF0B
:10183000BB881846FFF7B8FF3B881846FFF7B4FF90
:101840002C20FFF78BFF00BF0C37BD4690BD80B545
:1018500084B000AF0346FB808623EF2200210020E6
:10186000FFF7BDFFFFF72CFFFFF748FF0023FB60EA
:101870000EE0FB881B0A9BB2DBB21846FFF748FF5D
:10188000FB88DBB21846FFF743FFFB680133FB60C0
:10189000FB6847F68F629342EBD9FFF71BFF00BF4F
:1018A0001037BD4680BD000080B500AF0221194849
:1018B00003F07FFF1E20FFF78BFA0221154803F08B
:1018C00069FF7820FFF784FA0120FFF747FF962091
:1018D000FFF77EFA1120FFF741FF9620FFF778FA15
:1018E0003620FFF73BFF6020FFF74BFF3A20FFF762
:1018F00035FF0520FFF745FF2120FFF72FFF1320BD
:10190000FFF72CFF2920FFF729FF3220FFF760FAAD
:1019100000BF80BD0008014080B582B000AF034623
:10192000FB800B46BB8013467B80BB88FA88B98856
:10193000F888FFF754FF7B881846FFF735FF00BF94
:101940000837BD4680BD90B585B000AF0446084657
:1019500011461A462346FB800346BB800B467B801C
:1019600013463B807A88BB88D31A9BB20133BB8174
:101970007B88FA88B988F888FFF731FFFFF7A0FE67
:10198000FFF7BCFE0023FB810EE03B881B0A9BB2E5
:10199000DBB21846FFF7BCFE3B88DBB21846FFF708
:1019A000B7FEFB890133FB81FA89BB899A42ECD3EC
:1019B000FFF790FE00BF1437BD4690BD80B582B0E2
:1019C00000AF0346FB800B46BB8013467B80F88844
:1019D000002386221421FFF7B6FF7A88B988FB8896
:1019E0001846FFF799FF00BF0837BD4680BD90B588
:1019F00089B000AF7B600346FB810B46BB81134679
:101A0000FB727B681B787B777B685B783B77FB7A24
:101A10001F2B02D9FB7A7E2B01D92023FB727B6816
:101A20005A68FB7A03F18053203B1B011344BB61CE
:101A30007B7F9AB2FB8913449BB2013B9CB23B7FF4
:101A40009AB2BB8913449BB2013B9BB2B989F88916
:101A50002246FFF7C4FEFFF733FEFFF74FFE0023D9
:101A6000FB7729E0FB7FBA6913441B78FB750023E1
:101A7000BB771AE0FA7DBB7F802141FA03F3134064
:101A8000002B01D03B8E00E0BB8EBB82BB8A1B0AC1
:101A90009BB2DBB21846FFF73BFEBB8ADBB21846AF
:101AA000FFF736FEBB7F0133BB77BA7F7B7F9A425D
:101AB000E0D3FB7F0133FB77FA7F3B7F9A42D1D3A0
:101AC000FFF708FE00BF2437BD4690BD80B586B045
:101AD00002AFBA601A460346FB810B46BB81134630
:101AE000FB8010E0BB681A78B989F8893B8B0193B9
:101AF000FB880093084BFFF77AFFFB890833FB81D3
:101B0000BB680133BB60BB681B78002BEAD100BF08
:101B100000BF1037BD4680BD0400002090B585B0E1
:101B200000AF0346FB710023FB600023BB600BE0AA
:101B300001214020FFF792FC03461A46FB6813443C
:101B4000FB60BB680133BB60BB68B3F5967FEFDB1E
:101B5000F868FEF7C7FB0346FC7906491846FEF70E
:101B6000C9FC03461A46044B43F8242000BF14372F
:101B7000BD4690BD000096430C0000202DE9B04FFB
:101B800084B000AF03463960FB7102214020FFF7AB
:101B900065FC03461A463B685A8001214020FFF746
:101BA0005DFC03461AB23B681A803B68B3F900300B
:101BB0001846FEF797FB0246FB79364951F8233069
:101BC00019461046FEF7D8FA0346FB60F868FEF7A0
:101BD0002DFD024613469B0013449A0013442E4ADF
:101BE00082FB03129210DB17D21A3B685A603B68E3
:101BF0005B881A4613465B019B1A9B001344274AD5
:101C0000A2FB03235A093B689A60FB79022B07D198
:101C10003B685B68642203FB02F23B68DA6014E015
:101C2000FB79012B04D13B685A683B68DA600CE011
:101C3000FB79002B09D13B685B68174A82FB0312D2
:101C40009210DB17D21A3B68DA603B689B6800226F
:101C50009A4693463B68DB68DA179846914608FB3C
:101C60000BF20AFB09F31344AAFB08452B441D465B
:101C70004FF47A724FF0000320462946FEF7FCFC31
:101C800002460B463B681A6100BF1037BD46BDE8EF
:101C9000B08F00BF0C000020676666661F85EB51A1
:101CA00080B592B004AF78600B46FB70364B7B6317
:101CB0007B689B683B637B68DB68344A82FB03126A
:101CC0009211DB17D31AFB627B681B692F4AA2FBB8
:101CD00003239B09BB62FB78002B02D12C4B7B6357
:101CE00004E0FB78012B01D12A4B7B633B6B42F272
:101CF0000F72934202D942F20F733B63FB6AB3F552
:101D00007A7F03DB40F2E733FB6206E0FB6A13F104
:101D1000630F02DA6FF06203FB62BB6AB3F57A7F8E
:101D200002D340F2E733BB623B6B184AA2FB0323AA
:101D300099093A6B154BA3FB02039B094FF47A7088
:101D400000FB03F3D31A144AA2FB0323DB0807F1B9
:101D500008007A6B0392BA6A0292FA6A01920093BF
:101D60000B460E4A202104F0E3FB07F10802002392
:101D700000934FF6FF7300210020FFF7A7FE00BF7E
:101D80003837BD4680BD00BF306F0008D34D6210AC
:101D9000346F0008386F0008CDCCCCCC3C6F000805
:101DA00080B483B000AF786039603B68B3F9083B1A
:101DB0001A4613469B0013445B0019463B68B3F96F
:101DC000083B1A463B6843F822107B6899683B68D9
:101DD000B3F9083B1A4689B23B6802F5C87223F88A
:101DE00012103B68B3F9083B1A467B68D9683B6818
:101DF00002F5967243F822107B6819693B68B3F9C3
:101E0000083B1A463B6802F5FA7243F822103B6819
:101E1000B3F9083B002B4AD13B68B3F9083B1A469B
:101E20003B6802F5C87233F812301A463B68C3F8B3
:101E3000F02A3B68B3F9083B1A463B6802F5C872C2
:101E400033F812301A463B68C3F8F42A3B68B3F9FA
:101E5000083B1A463B6802F5967253F822203B680D
:101E6000C3F8F82A3B68B3F9083B1A463B6802F509
:101E7000967253F822203B68C3F8FC2A3B68B3F9FA
:101E8000083B1A463B6802F5FA7253F822203B6879
:101E9000C3F8002B3B68B3F9083B1A463B6802F5D0
:101EA000FA7253F822203B68C3F8042B9FE03B688A
:101EB000B3F9083B1A463B6802F5C87233F8123092
:101EC0001A463B68D3F8F03A9A420CDD3B68B3F906
:101ED000083B1A463B6802F5C87233F812301A46BE
:101EE0003B68C3F8F02A3B68B3F9083B1A463B68E5
:101EF00002F5C87233F812301A463B68D3F8F43A48
:101F00009A420CDA3B68B3F9083B1A463B6802F583
:101F1000C87233F812301A463B68C3F8F42A3B689B
:101F2000B3F9083B1A463B6802F5967253F8222033
:101F30003B68D3F8F83A9A420BDD3B68B3F9083BAB
:101F40001A463B6802F5967253F822203B68C3F8A4
:101F5000F82A3B68B3F9083B1A463B6802F59672CB
:101F600053F822203B68D3F8FC3A9A420BDA3B68DC
:101F7000B3F9083B1A463B6802F5967253F82220E3
:101F80003B68C3F8FC2A3B68B3F9083B1A463B6838
:101F900002F5FA7253F822203B68D3F8003B9A42CC
:101FA0000BDD3B68B3F9083B1A463B6802F5FA7251
:101FB00053F822203B68C3F8002B3B68B3F9083B79
:101FC0001A463B6802F5FA7253F822203B68D3F8B0
:101FD000043B9A420BDA3B68B3F9083B1A463B686C
:101FE00002F5FA7253F822203B68C3F8042B00BFB5
:101FF0000C37BD4680BC704780B487B000AF7860B6
:102000000B46FB706C4B7B6140F6E4433B616B4BD2
:10201000FB60FB78022B00F08980022B00F3C58067
:10202000002B02D0012B42D0BFE07B68B3F9083B04
:102030001A467B6802F5C87233F81230002B09D1BA
:102040007B68B3F9083B1A467B6802F5C872002129
:1020500023F812107B68B3F9083B1A467B6802F537
:10206000C87233F812301A463B6993420ADA7B6829
:10207000B3F9083B1A463B6999B27B6802F5C8720E
:1020800023F812107B68B3F9083B1A467B6802F507
:10209000C87233F812301A46722303FB02F23B690E
:1020A00092FBF3F39BB2C3F186039BB27EE07B68A5
:1020B000B3F9083B1A467B6802F5967253F8223052
:1020C000002B09DC7B68B3F9083B1A467B6802F5F4
:1020D0009672002143F822107B68B3F9083B1A4638
:1020E0007B6802F5967253F822307A699A4209DACF
:1020F0007B68B3F9083B1A467B6802F596727969EA
:1021000043F822107B68B3F9083B1A467B6802F556
:10211000967253F82230722203FB02F27B6992FB23
:10212000F3F39BB2C3F186039BB23FE07B68B3F944
:10213000083B1A467B6802F5FA7253F82230002BEE
:1021400009DC7B68B3F9083B1A467B6802F5FA7232
:10215000002143F822107B68B3F9083B1A467B68DC
:1021600002F5FA7253F82230FA689A4209DA7B686B
:10217000B3F9083B1A467B6802F5FA72F96843F82E
:1021800022107B68B3F9083B1A467B6802F5FA72A5
:1021900053F82230722203FB02F2FB6892FBF3F346
:1021A0009BB2C3F186039BB200E0002318461C37A4
:1021B000BD4680BC704700BFA08601001009050025
:1021C00080B584B000AF78600B46FB707B68FB6025
:1021D000FB781946F868FFF70FFF03467B81FB6821
:1021E000B3F9083B9BB228339BB279894FF4FC6268
:1021F0001846FFF7E3FB7B68B3F9083B9BB201335A
:102200009BB21AB27B68A3F8082B7B68B3F9083B32
:10221000C72B07DD7B680022A3F8082B7B6801220F
:1022200083F80A2B00BF1037BD4680BD80B584B04F
:1022300000AF78600B46FB700023FB810123FB811C
:1022400011E0B7F90E207B6853F8223019460A488E
:1022500000F0AEFA0220FEF7BBFDB7F90E309BB2DC
:1022600001339BB2FB81B7F90E30C72BE9DD00BF0C
:1022700000BF1037BD4680BD646F000880B485B0D4
:1022800000AF78600023FB6002E0FB680133FB6075
:102290007A6813469B0013445B001A46FB689A4217
:1022A000F3D800BF00BF1437BD4680BC70470000A4
:1022B00080B582B000AF4F4B1B684E4A43F001031C
:1022C000136000BF4B4B1B6803F00203002BF9D0D7
:1022D000494B1B6803F00C03082B64D100237B607F
:1022E00002E07B6801337B607B684F2BF9D9424B5E
:1022F0001B683B603B6823F0F0033B603B6843F0A6
:1023000080033B603C4A3B68136000237B6002E033
:102310007B6801337B607B684F2BF9D9364B1B6898
:102320003B603B6823F0F0033B603B6843F0900365
:102330003B60314A3B68136000237B6002E07B68AE
:1023400001337B607B684F2BF9D92B4B1B683B60BB
:102350003B6823F0F0033B603B6843F0A0033B6025
:10236000254A3B68136000237B6002E07B680133F1
:102370007B607B684F2BF9D91F4B1B683B603B6828
:1023800023F0F0033B603B6843F0B0033B601A4A24
:102390003B68136000237B6002E07B6801337B6055
:1023A0007B684F2BF9D9144B1B68134A23F00303A6
:1023B0001360C820FFF762FF0E4B1B680D4A23F025
:1023C000847323F4803313600C4B4FF41F021A60A4
:1023D000084B1B68074A23F480231360064B002236
:1023E0001A60074B00221A6000F00CF800BF083793
:1023F000BD4680BD0010024004100240081002409B
:102400002C10024080B500AF00F002F800BF80BD84
:1024100080B485B000AF0023FB600023BB604A4B53
:102420001B68494A43F480331360FB680133FB6047
:10243000454B1B6803F40033BB60BB68002B04D121
:10244000FB684FF6FF729342EFD13F4B1B6803F4DA
:102450000033002B01D100BFFDE73C4B1B683B4A1A
:1024600043F0805313603A4B1B68394A43F44043AE
:102470001360384B374A1B681360364B354A1B686C
:102480001360344B1B68334A43F480631360314B51
:102490001B68304A23F4403313602E4B1B682D4ACF
:1024A00043F4403313602B4B1B682A4A23F09043BC
:1024B00023F470131360274B1B68264A43F4501310
:1024C0001360214B1B68204A43F08073136000BFE8
:1024D0001D4B1B6803F00073002BF9D01C4B1B68CD
:1024E0001B4A43F48033136000BF1B4B1B6803F48B
:1024F0008033002BF9D0164B1B68154A43F4003388
:10250000136000BF144B1B6803F40033002BF9D099
:10251000104B1B687B607B6823F003037B607B6848
:1025200043F002037B600B4A7B68136000BF094BDA
:102530001B6803F00803002BF9D000BF00BF14375D
:10254000BD4680BC704700BF001002401C10024016
:1025500000700040041002400470004090B48CB041
:1025600000AF484B3C460FCB84E80F00464B1B683E
:102570009B0803F003037B627B6A022B11D07B6A0A
:10258000022B63D87B6A002B03D07B6A012B04D01B
:102590005CE03E4B3E4A1A605CE03C4B3D4A1A60B0
:1025A00058E0394B1B6803F480333B623B6AB3F558
:1025B000803F19D1384B1B6803F08043FB61FB69F6
:1025C000002B02D1334BBB6201E0344BBB622E4B7C
:1025D0001B6803F40033BB61BB69B3F5003F05D151
:1025E000BB6A5B08BB6201E02D4BBB62264B1B68DC
:1025F0009B0C03F00F03FB62234B1B6803F000638B
:10260000002B03D0FB6A43F01003FB621E4B1B68D8
:1026100003F08043002B03D0FB6A43F02003FB62EE
:10262000FB6A0E2B03D9FB6A0133FB6202E0FB6AF3
:102630000233FB62FB6A3D2B01D93F23FB62BB6A7D
:10264000FA6A02FB03F3114A136003E00F4B104ACE
:102650001A6000BF0C4B1B681B0903F00F037B6162
:102660003A467B6913441B783B61084B1A683B6907
:1026700022FA03F3054A136000BF3037BD4690BC11
:10268000704700BF6C6F0008041002401800002063
:1026900000127A000024F4002C100240006CDC02CE
:1026A00000093D0080B582B000AF78607B68D3F848
:1026B000D0309B68012098477B6805229A7000BF44
:1026C0000837BD4680BD000080B500AF00F0B2FA0B
:1026D00000F0EEFA054A0649064800F015FB00F046
:1026E000EDFA0448FFF7DEFF00BF80BD24020020A2
:1026F000140200207C0E002080B588B000AF786006
:1027000039607B687B610023FB617B68002B02D012
:102710003B68002B01D1002343E0244B9B78DBB2C4
:10272000032B01D000233CE0204BD3F8D4303B6195
:102730003B69002B30D1002333E0FEF73FFBF8600C
:1027400008E0FEF73BFB0246FB68D31A642B01D975
:10275000FB6926E0154800F0D4F80346002BF0D1C1
:102760003A68FB69D31ABB61BB69402B01D940238E
:10277000BB613B69D81C7A69FB691344BA69194685
:1027800003F06EFF3B69BA695A64084800F095F897
:10279000FA69BB691344FB61FA693B689A42CCD37E
:1027A000FB6918462037BD4680BD00BF7C0E002067
:1027B0000FB480B5C4B000AF07F58E7207F588730B
:1027C000A3F586731A6007F58873A3F5867307F17E
:1027D00008001B68D7F818214FF4807103F00CFF34
:1027E000C7F80C01D7F80C31002B02DCD7F80C31FC
:1027F0001BE0D7F80C31FF2B02D9FF23C7F80C31AF
:10280000D7F80C2107F1080311461846FFF774FFAB
:10281000C7F80801D7F80C31D7F808219A4202D03E
:102820004FF0FF3301E0D7F80C31184607F58877F1
:10283000BD46BDE8804004B0704790B585B000AF9C
:10284000F8607A603B600B46FB72FB68D3F8D030CF
:102850001C6AF97A3B687A68F868A04700BF1437A9
:10286000BD4690BD80B582B000AF78600B46FB706E
:102870007B68D3F8D0305B6AFA781146786898475D
:1028800000BF0837BD4680BD80B485B000AFF8609A
:10289000B96011461A460B46FB801346BB80FB68A5
:1028A000BA685A60FB68FA881A81FB68BA885A814C
:1028B00000BF1437BD4680BC704780B584B000AF00
:1028C00078607B68D3F8D430FB60FB685B6CBB60DE
:1028D000BB68002B11D0FB685B78012B0DD1FB6826
:1028E00000225A70FB68DA1CBB689BB281217868B1
:1028F00000F064FAFB6800225A6400BF1037BD463E
:1029000080BD80B485B000AF78607B68D3F8D430E8
:10291000002B0DD07B68D3F8D430FB60FB689B782C
:10292000012B05D1FB681B78012B01D1002300E0AE
:10293000052318461437BD4680BC704780B584B067
:1029400000AF78600B46FB701E4B4FF4A072002165
:102950007868FFF772FF1C4B4FF480720021786893
:10296000FFF76BFF194BC02200217868FFF765FF66
:10297000174B9A697B68C3F8AC20154BDA697B6802
:10298000C3F8C020134B00229A70124B01225A70D8
:10299000104B01221A700F4B00225A640D4B0E4A45
:1029A000483392E8030018600433198002330A0C9C
:1029B0001A707B68074AC3F8D420002318461037E2
:1029C000BD4680BD6C000020650000205500002041
:1029D000240200205C0F00207C6F000880B582B0CC
:1029E00000AF78600B46FB7081217868FFF73AFFF3
:1029F00003217868FFF736FF82217868FFF732FFFE
:102A0000002318460837BD4680BD80B485B000AFAE
:102A100078607B68D3F8D430FB607B68D3F8CC3027
:102A20001B78FF2B0AD0FB6801229A70FB680122F9
:102A30001A707B68D3F8CC30FF221A700023184636
:102A40001437BD4680BC704780B584B000AF786055
:102A50000B46FB70FB781B0158337A681344FB600C
:102A60007B68D3F8D430BB60FB685A89FB681B884D
:102A70009A4209D1FB7803F07F03D9B200230022E8
:102A8000786800F09BF905E0BB6801225A70BB68CA
:102A900001221A7000BF1037BD4680BD80B485B0DA
:102AA00000AF78600B46FB707B68D3F8D430FB60D6
:102AB000FB6801229A70FB787A6802331B01134489
:102AC00002331B881A46FB685A6400BF1437BD46A0
:102AD00080BC704780B588B000AF78603960012352
:102AE000FB7707F1080300221A605A601A817B689D
:102AF000D3F8D430BB6107F108037B613B685B7896
:102B0000232B00F2918001A252F823F0292C000817
:102B1000292C0008292C0008292C0008292C000841
:102B2000292C0008292C0008292C0008292C000831
:102B3000292C0008292C0008292C0008292C000821
:102B4000292C0008292C0008292C0008292C000811
:102B5000292C0008292C0008292C0008292C000801
:102B6000292C0008292C0008292C0008292C0008F1
:102B7000292C0008292C0008292C0008292C0008E1
:102B8000292C0008292C0008292C00089D2B00085E
:102B9000C72B0008E12B0008292C00087B68D3F81C
:102BA000CC303A6852781A707B6803F11800BB6920
:102BB00003F148013B68DB889AB20023FFF764FE0B
:102BC0000023FB7731E07B6803F15800BB6903F118
:102BD000480100230722FFF757FE0023FB7724E07C
:102BE0007B69A1221A707B6920225A707B690022BE
:102BF0001A7100225A717B6900229A700022DA70E1
:102C00007B69002242F002029A710022DA713B686D
:102C10005B889BB2DBB203F00303DBB23B7400239F
:102C20007B740023FB7700E000BFFB7F1846203752
:102C3000BD4680BD80B582B000AF002002F002FC2E
:102C400078604FF4C16002F07CFB7B68144A9342C9
:102C500004D14FF4800002F0DDFB18E07B68114ADC
:102C6000934203D1002002F0D5FB10E07B680E4AAE
:102C7000934204D14FF4400002F0CCFB07E07B68A4
:102C80000A4A934203D14FF4000002F0C3FB40F222
:102C9000177002F056FB00BF0837BD4680BD00BF6D
:102CA000006CDC0200A24A0400D8B805000E270719
:102CB00080B400AF00BFBD4680BC704780B500AF98
:102CC0004FF4A06003F0DCFB00220221142003F08B
:102CD000E9FB00BF80BD80B485B000AFF860B9608B
:102CE00011461A460B46FB801346BB80FB68BA6848
:102CF0005A60FB68FA881A81FB68BA885A8100BF5B
:102D00001437BD4680BC704780B584B000AFF86012
:102D1000B9607A60244B08221A70234B01225A7042
:102D2000214B4FF400725A801F4AFB685360FB68C6
:102D3000BA68C3F8C820FB687A68C3F8CC20FB687F
:102D40001A4AC3F8D020FB6800221A75FB68184A9B
:102D5000C3F89820FB68174AC3F89C20FB68164A02
:102D6000C3F8A020FB68D3F8C8305B6807331B7832
:102D70009B09DBB203F00103DAB2FB681A71FB684E
:102D80000122DA71FB68D3F8D0301B689847FB68E2
:102D9000D3F8C830DB680C331B68184600F062FDBE
:102DA00000BF1037BD4680BDB40F00208802002050
:102DB000193A0008E13A0008493B000890B589B08B
:102DC00000AFF8607A601A460B46FB7213463B81EF
:102DD000FB7A03F07F03FB77FB7F1B015833FA6814
:102DE0001344BB61FB7F03F1805303F5B8539B0091
:102DF0001B6803F4C063002B0AD1FB7F03F18053EF
:102E000003F5B8539B001B6803F48073002B0BD1B0
:102E1000FB7F03F1805303F5B8539B001B6803F459
:102E2000C063B3F5806F44D1BB691B885A003B89EE
:102E3000934228BF1346FB82FB68D3F8D0301C6B4B
:102E4000FA8AF97F01237868A0473B89002B0CD0D0
:102E50003B89BA6912881344013BBA691288B3FBF3
:102E6000F2F39AB2BB699A8102E0BB6901229A81AE
:102E7000BB699B89022B10D1FB8A7A68D1183A89E9
:102E8000FB8AD31A98B2BB691B88FA8AD31A9BB201
:102E90000246B869FFF71FFF26E0FB8A7A68D1185F
:102EA0003A89FB8AD31A9AB2FB8AB869FFF713FFF3
:102EB0001AE0BB691B883A89934228BF1346FB82FC
:102EC000FB68D3F8D030DB6AFA8AF97F78689847D4
:102ED000FB8A7A68D1183A89FB8AD31A9AB2FB8A9C
:102EE000B869FFF7F8FE00BF00BF2437BD4690BDAC
:102EF00080B582B000AF78600B46FB707B68D3F87A
:102F0000D0309B6BFA7811467868984700BF083735
:102F1000BD4680BD80B582B000AF78600B46FB70C7
:102F20007B68D3F8D030DB6BFA7811467868984725
:102F300000BF0837BD4680BD80B582B000AF786065
:102F40000B46FB707B68D3F8D0301B6CFA781146C7
:102F500078689847034618460837BD4680BD80B458
:102F600085B000AFF860B96011461A460B46FB8089
:102F70001346BB80FB68BA685A60FB68FA881A81FE
:102F8000FB68BA885A8100BF1437BD4680BC7047C1
:102F900080B582B000AF786039603B685B781A46D4
:102FA000054B53F82230396878689847034618462D
:102FB0000837BD4680BD00BF4402002080B582B006
:102FC00000AF786039607B689B78DBB2032B0ED151
:102FD0003B689B889BB2DBB2002B08D17B68D3F89F
:102FE000CC30DB68396878689847034600E00123F5
:102FF00018460837BD4680BD80B483B000AF786006
:103000003960012318460C37BD4680BC704780B438
:1030100083B000AF78603960012318460C37BD4695
:1030200080BC704780B485B000AFF8600B467A6012
:10303000FB72FB68D3F8C8301B681B781A467B68A4
:103040001A80FB68D3F8C8301B6818461437BD4691
:1030500080BC704780B485B000AFF8600B467A60E2
:10306000FB72FB68D3F8C8305B6802331B781AB276
:10307000FB68D3F8C8305B6803331B781BB21B02B4
:103080001BB213431BB29AB27B681A80FB68D3F859
:10309000C8305B6818461437BD4680BC704780B4A2
:1030A00085B000AFF8600B467A60FB72FB68D3F81E
:1030B000C8309B68002B17D0FB68D3F8C8309B68DA
:1030C00002331B781A46FB68D3F8C8309B68033379
:1030D0001B781B029BB213439AB27B681A80FB6871
:1030E000D3F8C8309B6803E07B6800221A80002375
:1030F00018461437BD4680BC704780B487B000AF17
:10310000F8600B467A60FB72FB68D3F8C830DA6867
:10311000FB7A9B0013441B687B617B691B781A4612
:103120007B681A807B6918461C37BD4680BC704797
:1031300080B584B000AF786039603B689B889BB2F3
:10314000BB730123FB733B681B7803F00303022B63
:1031500032D0022B4FDC002B02D0012B21D04AE0D1
:103160007B689B78DBB2023B012B18D87B681B790C
:10317000002B03D02A4B01221A7002E0284B0022B8
:103180001A707B681B7A002B06D0254B1B7843F006
:103190000203DAB2224B1A700023FB7300E000BF77
:1031A0002EE07B689B78DBB2032B26D1BB7B002B08
:1031B00023D10023FB7320E07B689B78DBB2032BD9
:1031C0001DD197F90E30002B0ADABB7B03F07F0389
:1031D0007A681B0113445A331A78114B1A7007E0AE
:1031E000BB7B7A681B0113441A331A780C4B1A7094
:1031F0000023FB7303E000BF02E000BF00E000BF5C
:10320000FB7B002B07D17B6803F1580002230222CD
:103210000349FFF7A4FEFB7B18461037BD4680BD6F
:10322000B00F002080B584B000AF78603960002313
:10323000FB733B681B7803F00303022B1AD0022BAD
:1032400047DC002B02D0012B45D042E07B689B7805
:10325000DBB2023B012B09D83B685B889BB2012B98
:1032600006D17B6800221A72002338E000BF35E0E7
:1032700000BF33E03B689B889BB2FB737B689B7805
:10328000DBB2032B29D1FB7B03F07C03002B24D181
:103290003B685B889BB2002B1FD1FB7B002B1CD0B3
:1032A000FB7B802B19D0FB7B19467868FFF744FE27
:1032B0000346002B11D0FB7B19467868FFF72AFEE6
:1032C0007B68D3F8CC30DB6839687868984700238E
:1032D00005E000BF02E000BF00E000BF0123184688
:1032E0001037BD4680BD80B584B000AF78603960CE
:1032F0000023FB733B681B7803F00303022B1AD0F7
:10330000022B47DC002B02D0012B45D042E07B682A
:103310009B78DBB2023B012B09D83B685B889BB2F0
:10332000012B06D17B6801221A72002338E000BF0E
:1033300035E000BF33E03B689B889BB2FB737B6842
:103340009B78DBB2032B29D1FB7B03F07C03002BA2
:1033500024D13B685B889BB2002B1FD1FB7B002BE9
:103360001CD0FB7B802B19D0FB7B19467868FFF7BC
:10337000E3FD0346002B11D0FB7B19467868FFF76D
:10338000B7FD7B68D3F8CC30DB683968786898473C
:10339000002305E000BF02E000BF00E000BF012302
:1033A00018461037BD4680BD80B483B000AF78604A
:1033B00039603B689B889BB2002B1FD13B68DB8840
:1033C0009BB2002B1AD13B685B889BB2DBB203F047
:1033D0007F03DAB27B685A707B689B78DBB2032B81
:1033E0000CD07B685B78002B03D07B6802229A703C
:1033F00002E07B6801229A70002300E00123184656
:103400000C37BD4680BC704780B584B000AF786093
:1034100039600023BB7300237B730123FB737B683C
:103420005833BB603B681B7803F00303022B00F0AA
:103430008880022B00F38780002B02D0012B76D0EE
:1034400081E03B685B889BB21B0A9BB2BB733B6805
:103450005B889BB27B73BB7B013B0E2B61D801A2C7
:1034600052F823F0A1340008CD340008E9340008F4
:1034700023350008233500082335000823350008CC
:1034800023350008233500082335000823350008BC
:103490002335000823350008233500080B350008C4
:1034A000BB7B013B414A52F82330BA680832797B32
:1034B000786898470246BB685A603B68DB889BB2D5
:1034C000402B30D1BB6808221A812CE0BB7B013B2A
:1034D000364A52F82330BA680832797B78689847C0
:1034E0000246BB685A6021E07B7BEE2B1DD8BB7B7C
:1034F000013B2E4A52F82330BA680832797B78684B
:1035000098470246BB685A600FE0BB6803F10802A7
:103510007B7B19467868FFF7C2FD0246BB685A609C
:1035200004E000BF10E000BF0EE000BF0CE07B68CD
:10353000D3F8CC30DB683968786898470346FB736A
:1035400002E000BF00E000BFBB681B89002B28D051
:103550003B68DB889BB2002B23D03B68DB889AB2A8
:10356000BB681B89934228BF13469AB2BB681A8175
:10357000BB681A897B68B3F811309BB29A420ED2AD
:10358000BB681B89BA681288B3FBF2F101FB02F237
:103590009B1A9BB2002B02D17B680122DA740023B4
:1035A000FB73FB7B18461037BD4680BD78020020B8
:1035B00080B483B000AF78603960002318460C37C0
:1035C000BD4680BC704780B584B000AF786039607C
:1035D0000123FB737B689B78DBB2022B02D0032BA9
:1035E00007D010E07B681B78002B09D10023FB7308
:1035F00006E07B681B78002B04D00023FB7301E0FE
:1036000000BF00E000BFFB7B002B07D17B6803F10C
:103610005800796801230122FFF7A1FCFB7B1846C3
:103620001037BD4680BD000080B584B000AF786023
:1036300039600123FB733B685B889BB2DAB2324B83
:103640001A70314B1B78012B58D87B689B78DBB202
:10365000032B1CD0032B4EDC012B4ED0022B4AD166
:10366000294B1B78002B0FD07B68D3F8CC305B68DC
:10367000254A1278114678689847234B1A787B6858
:103680001A707B6803229A700023FB7336E01E4B8E
:103690001B78002B10D17B68D3F8CC309B681A4A7A
:1036A0001278114678689847174B1A787B681A7019
:1036B0007B6802229A701BE07B681A78124B1B7899
:1036C0009A4215D07B68D3F8CC309B687A68127820
:1036D0001146786898470C4B1A787B681A707B689B
:1036E000D3F8CC305B68084A12781146786898475E
:1036F0000023FB7302E000BF00E000BFFB7B184625
:103700001037BD4680BD00BFB20F002080B582B02B
:1037100000AF786039607B689B78DBB2032B06D002
:10372000032B17DC012B17D0022B17D012E03B68BC
:103730009B889BB2DBB2002B12D17B6803F158004F
:103740007B68D3F8CC30591C01230122FFF707FC1A
:10375000002307E000BF04E000BF02E000BF00E07C
:1037600000BF012318460837BD4680BD80B582B032
:1037700000AF786039607B689B78DBB2032B06D0A2
:10378000032B1BDC012B1BD0022B1BD016E03B684C
:103790009B889BB2DBB2002B16D13B685B889AB248
:1037A0007B68D3F8CC30D2B25A707B68D3F8CC3077
:1037B000DB68396878689847002307E000BF04E0B9
:1037C00000BF02E000BF00E000BF01231846083739
:1037D000BD4680BD80B483B000AF786039600023FF
:1037E00018460C37BD4680BC704780B487B000AF28
:1037F000F860B9601346FB710023FB750023FB756D
:1038000025E0FB681B0F092B0AD8FB681B0FDAB2F7
:10381000FB7D5B00B9680B443032D2B21A7009E00C
:10382000FB681B0FDAB2FB7D5B00B9680B443732D3
:10383000D2B21A70FB681B01FB60FB7D5B00013399
:10384000BA68134400221A70FB7D0133FB75FA7DC0
:10385000FB799A42D5D300BF00BF1C37BD4680BC60
:103860007047000080B586B000AF78607B681B8829
:10387000DBB2062B1ED01A4B1B683B61194B1B6831
:10388000FB60194B1B68BB603A69BB6813443B6122
:103890003B69002B1FD07B68023308221946386928
:1038A000FFF7A3FF7B68123304221946F868FFF77D
:1038B0009CFF10E00D4B1B687B617B69002B0AD0DD
:1038C0007B6802337A6992B21A807B691A0C7B6832
:1038D000043392B21A8000BF1837BD4680BD00BFC6
:1038E000E8F7FF1FECF7FF1FF0F7FF1F0021024072
:1038F00080B582B000AF78600B46FB707B68D3F870
:10390000D0309B6BFA7811467868984700BF08372B
:10391000BD4680BD80B485B000AFF860B960114687
:103920001A460B46FB801346BB80FB68BA685A6098
:10393000FB68FA881A81FB68BA885A8100BF14377D
:10394000BD4680BC704780B582B000AF7860002172
:103950007868FFF7CDFF00BF0837BD4680BD80B552
:1039600082B000AF78607B6801221A757B68DA6DDF
:103970007B68B3F8603000217868FFF71FFA00BF5A
:103980000837BD4680BD80B582B000AF78607B68E7
:1039900003221A757B68D3F8D030DB6A7A68D06D61
:1039A00000220021984700BF0837BD4680BD80B582
:1039B00082B000AF78607B6802221A757B68D3F80A
:1039C000D0309B6A00217868984700BF0837BD4611
:1039D00080BD80B582B000AF78607B6804221A7524
:1039E0007B68D3F8D0309B6A00217868984700BF85
:1039F0000837BD4680BD80B582B000AF78607B6877
:103A0000D3F8D030DB6A7A68D06D00220021984765
:103A100000BF0837BD4680BD80B584B000AF786078
:103A20000B46FB700123FB737B68D3F8D0305B6BD4
:103A30007A6802F10B000022002198470346BB81FF
:103A4000BB89082B03D07868FFF77DFF45E07B68D2
:103A5000DB7A03F06003402B18D0402B1FD8002BDB
:103A600002D0202B09D01AE07B680B331946786806
:103A7000FFF78EFA0346FB7312E07B680B3319469F
:103A80007868FFF79BFA0346FB7309E07B680B330A
:103A900019467868FFF7B0FA0346FB7300E000BFF1
:103AA000FB7B002B16D17B68B3F811309BB2002B47
:103AB00003D17868FFF767FF0FE07B68DB7A5BB2C2
:103AC000002B03DA7868FFF74AFF06E07868FFF713
:103AD0006EFF02E07868FFF736FF1037BD4680BD05
:103AE00080B582B000AF78600B46FB707B689B7836
:103AF000DBB2032B0BD17B68D3F8CC305B69002B96
:103B000005D07B68D3F8CC305B69786898477B68D0
:103B10001B7D022B03D17868FFF735FF10E07B682F
:103B20001B7D042B0CD1FB781B0118337A68D0184D
:103B3000002300220021FFF7EDFE7B6800221A75AA
:103B400000BF0837BD4680BD80B582B000AF786049
:103B50000B46FB707B68DB7C002B05D07868FFF799
:103B60004AFF7B680022DA747B689B78DBB2032B08
:103B70000BD17B68D3F8CC301B69002B05D07B6858
:103B8000D3F8CC301B69786898477B681B7D012B84
:103B900003D17868FFF71DFF06E07B681B7D032BD0
:103BA00002D17B6800221A757B685B78002B08D0F5
:103BB0007B68D3F8D030DB68786898477B68002250
:103BC0005A7000BF0837BD4680BD80B582B000AFD7
:103BD00078600B46FB707B68D3F8D0301B6CFA78AA
:103BE000114678689847034618460837BD4680BD99
:103BF00080B483B000AF0346FB7100BF0C37BD46F5
:103C000080BC704780B400AF0A4B01221A60094B98
:103C100000221A60084B00221A60084B00221A602A
:103C2000044B1B68034A43F41F43136000BFBD46A7
:103C300080BC7047405C0040445C0040505C0040E9
:103C400080B400AF064B01221A60064B00221A60B6
:103C5000034B03221A6000BFBD4680BC704700BF03
:103C6000405C0040445C004080B483B000AF7860AA
:103C70007B685B7863F07F03DAB2034B1A6000BFA6
:103C80000C37BD4680BC70474C5C004080B485B0AA
:103C900000AF78600023FB737B685833BB60394BFF
:103CA0001B6880221A60374B1B6800225A60BB6871
:103CB00040221A807B681833BB60324B1B6840225D
:103CC0009A60BB6840221A80BB681B883E2B1CD9B7
:103CD000BB681B8803F01F03002B0AD0BB681B883E
:103CE0005B099BB29A02274B1B6842F40042DA60E0
:103CF00016E0BB681B885B099BB2013B9A02214B13
:103D00001B6842F40042DA600AE0BB681B8801339A
:103D10005B021C4A126823F47F7323F00303D36011
:103D20000123FB7316E0FB7B03F1805303F5B853CB
:103D30009B001B6823F40F4323F08F03F97BFA7B6E
:103D400002F1805202F5B85292000B431360FB7BE4
:103D50000133FB73FB7B032BE5D90B4B1B689AB23A
:103D6000094B1A60084B43F220221A60074B80224D
:103D70001A607B6801229A7000BF1437BD4680BC70
:103D8000704700BF84020020005C00404C5C004093
:103D900080B48FB000AFF8607A603B600B46FB7276
:103DA0003B689B7887F8373097F8373003F07F030C
:103DB00087F836303B681A795B791B021343BB8660
:103DC00000233B633B68DB7803F00303C74A52F8E8
:103DD000231097F8362097F8363003F1805303F517
:103DE000B8539B00184641EA0203036097F9373045
:103DF000002B80F2658197F836301B015833FA6842
:103E000013443B633B6BBA8E1A80FB7A002B2BD199
:103E1000B74B1A6897F836301B0113447A681A605A
:103E200097F8363003F1805303F5B8539B001B68B5
:103E30009BB223F4E04323F040039BB283F02003C2
:103E40003B823B8A43F07F4343F47F0343F40043C8
:103E500043F080039AB297F8363003F1805303F5AC
:103E6000B8539B001A6004E3FB7A012B40F00183F6
:103E700097F8363003F1805303F5B8539B001B6865
:103E80009BB223F4E24323F070039BB243F48073AC
:103E9000FB83FB8B43F07F4343F47F0343F40043F6
:103EA00043F080039AB297F8363003F1805303F55C
:103EB000B8539B001A6097F8363003F1805303F52E
:103EC000B8539B001B6803F04003002B22D097F8E7
:103ED000363003F1805303F5B8539B001B689BB247
:103EE00023F4E04323F070039BB243F04003BB8311
:103EF000BB8B43F07F4343F47F0343F4004343F021
:103F000080039AB297F8363003F1805303F5B85323
:103F10009B001A6097F8363003F1805303F5B853CD
:103F20009B001B6803F48043002B22D097F83630A7
:103F300003F1805303F5B8539B001B689BB223F435
:103F4000E04323F070039BB243F480437B837B8B7D
:103F500043F07F4343F47F0343F4004343F0800383
:103F60009AB297F8363003F1805303F5B8539B00AB
:103F70001A6097F8363003F1805303F5B8539B006D
:103F80001B689BB223F4E04323F070039BB243F41D
:103F900080433B833B8B43F07F4343F47F0343F4F5
:103FA000004343F080039AB297F8363003F1805310
:103FB00003F5B8539B001A604D4B1A6897F83630DA
:103FC0001B0113447A6892B21A60494B1A6897F839
:103FD00036301B0113447A68120C9A6097F8363019
:103FE00003F1805303F5B8539B001B6803F4C063CF
:103FF000B3F5806F23D097F8363003F1805303F583
:10400000B8539B001B689BB223F4E04323F04003AA
:104010009BB283F02003BB82BB8A43F07F4343F40F
:104020007F0343F4004343F080039AB297F836309D
:1040300003F1805303F5B8539B001A601FE097F813
:10404000363003F1805303F5B8539B001B689BB2D5
:1040500023F4E04323F04003FB82FB8A43F07F43D9
:1040600043F47F0343F4004343F080039AB297F88C
:10407000363003F1805303F5B8539B001A6097F86C
:10408000363003F1805303F5B8539B001B689BB295
:1040900023F4804323F070037B827B8A43F07F43C9
:1040A00043F47F0343F4004343F080039AB297F84C
:1040B000363003F1805303F5B8539B001A60D8E102
:1040C00097F836301B011833FA6813443B633B6B97
:1040D000BA8E1A80FB7A002B0CD1054B1A6897F820
:1040E00036301B0113447A689A60F1E08C75000841
:1040F00084020020FB7A012B40F0EA8097F83630EA
:1041000003F1805303F5B8539B001B689BB223F463
:10411000E24323F070039BB243F48073FB85FB8D75
:1041200043F07F4343F47F0343F4004343F08003B1
:104130009AB297F8363003F1805303F5B8539B00D9
:104140001A6097F8363003F1805303F5B8539B009B
:104150001B6803F48043002B22D097F8363003F11C
:10416000805303F5B8539B001B689BB223F4E043D4
:1041700023F070039BB243F48043BB85BB8D43F0B7
:104180007F4343F47F0343F4004343F080039AB238
:1041900097F8363003F1805303F5B8539B001A604B
:1041A00097F8363003F1805303F5B8539B001B6832
:1041B00003F04003002B22D097F8363003F18053F0
:1041C00003F5B8539B001B689BB223F4E04323F034
:1041D00070039BB243F040037B857B8D43F07F43AC
:1041E00043F47F0343F4004343F080039AB297F80B
:1041F000363003F1805303F5B8539B001A6097F8EB
:10420000363003F1805303F5B8539B001B689BB213
:1042100023F4E04323F070039BB243F040033B855B
:104220003B8D43F07F4343F47F0343F4004343F06B
:1042300080039AB297F8363003F1805303F5B853F0
:104240009B001A608D4B1A6897F836301B01134497
:104250007A6892B21A60894B1A6897F836301B0157
:1042600013447A68120C9A60BB8E3E2B22D93B6BAA
:104270001B8803F01F03002B0DD0BB8E5B099BB284
:104280009A027E4B196897F836301B010B4442F4B2
:1042900000425A601CE0BB8E5B099BB2013B9A0254
:1042A000764B196897F836301B010B4442F40042F4
:1042B0005A600DE0BB8E01335B02704A116897F8BB
:1042C000362012010A4423F47F7323F00303536062
:1042D000BB8E3E2B24D93B6B1B8803F01F03002BA6
:1042E0000ED03B6B1B885B099BB29A02634B19682B
:1042F00097F836301B010B4442F40042DA601DE0AF
:104300003B6B1B885B099BB2013B9A025B4B1968B4
:1043100097F836301B010B4442F40042DA600DE09E
:10432000BB8E01335B02554A116897F836201201A3
:104330000A4423F47F7323F00303D360FB7A002B3A
:1043400023D197F8363003F1805303F5B8539B001F
:104350001B689BB223F4804323F070039BB283F469
:1043600000533B843B8C43F07F4343F47F0343F48F
:10437000004343F080039AB297F8363003F180533C
:1043800003F5B8539B001A6073E0FB7A012B70D1E0
:1043900097F8363003F1805303F5B8539B001B6840
:1043A00003F4C063B3F5806F23D097F8363003F180
:1043B000805303F5B8539B001B689BB223F48043E2
:1043C00023F070039BB283F40053BB84BB8C43F097
:1043D0007F4343F47F0343F4004343F080039AB2E6
:1043E00097F8363003F1805303F5B8539B001A60F9
:1043F0001FE097F8363003F1805303F5B8539B0064
:104400001B689BB223F4804323F07003FB84FB8C76
:1044100043F07F4343F47F0343F4004343F08003BE
:104420009AB297F8363003F1805303F5B8539B00E6
:104430001A6097F8363003F1805303F5B8539B00A8
:104440001B689BB223F4E04323F040037B847B8C06
:1044500043F07F4343F47F0343F4004343F080037E
:104460009AB297F8363003F1805303F5B8539B00A6
:104470001A6000BF3C37BD4680BC704784020020F4
:1044800080B487B000AF78600B46FB70FB7803F018
:104490007F03FB7597F90330002B4ADAFB7D03F1AC
:1044A000805303F5B8539B001B6803F04003002BB7
:1044B00020D0FB7D03F1805303F5B8539B001B68AC
:1044C0009BB223F4E04323F070039BB243F040031C
:1044D0003B823B8A43F07F4343F47F0343F4004332
:1044E00043F080039AB2FB7D03F1805303F5B85388
:1044F0009B001A60FB7D03F1805303F5B8539B00CA
:104500001B689BB223F4E04323F04003FB81FB894B
:1045100043F07F4343F47F0343F4004343F08003BD
:104520009AB2FB7D03F1805303F5B8539B001A60E8
:1045300049E0FB7D03F1805303F5B8539B001B68F2
:1045400003F48043002B20D0FB7D03F1805303F55F
:10455000B8539B001B689BB223F4E04323F0700325
:104560009BB243F48043BB82BB8A43F07F4343F456
:104570007F0343F4004343F080039AB2FB7D03F1D1
:10458000805303F5B8539B001A60FB7D03F1805301
:1045900003F5B8539B001B689BB223F4804323F0C0
:1045A00070037B827B8A43F07F4343F47F0343F4B1
:1045B000004343F080039AB2FB7D03F1805303F57F
:1045C000B8539B001A6000BF1C37BD4680BC7047C3
:1045D00080B485B000AF78600B46FB70FB7803F0C9
:1045E0007F0303F1805303F5B8539B001B689BB214
:1045F00023F4804323F070039BB283F44053FB8188
:10460000FB8943F07F4343F47F0343F4004343F0CB
:1046100080039AB2FB7803F07F0303F1805303F524
:10462000B8539B001A6000BF1437BD4680BC70476A
:1046300080B487B000AF78600B46FB70FB7803F066
:104640007F03FB75FB7D002B2ED1444B1B689BB277
:1046500023F4E04323F040039BB283F010033B823A
:104660003B8A43F07F4343F47F0343F4004343F02A
:1046700080039AB2394B1A60384B1B689BB223F403
:10468000804323F070039BB283F48053FB81FB894A
:1046900043F07F4343F47F0343F4004343F080033C
:1046A0009AB22E4B1A6054E097F90330002B28DAA7
:1046B000FB7D7A681B0113445A3301221A70FB7D7B
:1046C00003F1805303F5B8539B001B689BB223F49E
:1046D000E04323F040039BB283F010037B827B8A8C
:1046E00043F07F4343F47F0343F4004343F08003EC
:1046F0009AB2FB7D03F1805303F5B8539B001A6017
:1047000027E0FB7D7A681B0113441A3301221A70DB
:10471000FB7D03F1805303F5B8539B001B689BB2EC
:1047200023F4804323F070039BB283F48053BB8255
:10473000BB8A43F07F4343F47F0343F4004343F0D9
:1047400080039AB2FB7D03F1805303F5B8539B00BD
:104750001A6000BF1C37BD4680BC7047005C00403B
:1047600080B586B000AF78600B46FB70FB7803F035
:104770007F03FB7597F90330002B5DDAFB78194650
:104780007868FFF722FA0346102B40F0B280FB7DD9
:1047900003F1805303F5B8539B001B6803F04003FB
:1047A000002B20D0FB7D03F1805303F5B8539B0011
:1047B0001B689BB223F4E04323F070039BB243F0E9
:1047C00040033B823B8A43F07F4343F47F0343F43F
:1047D000004343F080039AB2FB7D03F1805303F55D
:1047E000B8539B001A60FB7D7A681B0113445A334F
:1047F00000221A70FB7D03F1805303F5B8539B0030
:104800001B689BB223F4E04323F040039BB283F088
:104810003003FB81FB8943F07F4343F47F0343F480
:10482000004343F080039AB2FB7D03F1805303F50C
:10483000B8539B001A605CE0FB7819467868FFF774
:10484000C4F90346B3F5805F53D1FB7D03F1805378
:1048500003F5B8539B001B6803F48043002B20D062
:10486000FB7D03F1805303F5B8539B001B689BB29B
:1048700023F4E04323F070039BB243F48043BB82F4
:10488000BB8A43F07F4343F47F0343F4004343F088
:1048900080039AB2FB7D03F1805303F5B8539B006C
:1048A0001A60FB7D7A681B0113441A3300221A70C8
:1048B000FB7D03F1805303F5B8539B001B689BB24B
:1048C00023F4804323F070039BB283F440537B8234
:1048D0007B8A43F07F4343F47F0343F4004343F078
:1048E00080039AB2FB7D03F1805303F5B8539B001C
:1048F0001A6000BF1837BD4680BD80B485B000AFD8
:1049000078600B46FB70FB7803F07F0303F1805364
:1049100003F5B8539B001B68FB6097F90330002B2D
:1049200005DAFB689BB203F030039BB204E0FB683E
:104930009BB203F440539BB218461437BD4680BC6B
:104940007047000080B487B000AF78600B46FB7002
:1049500013463B803B88002B21D0274B1A68FB78FD
:104960001B0113441B6803F1005303F540535B0024
:104970003B6100237B610CE07B6819883B691A1D51
:104980003A610A461A607B6802337B607B690133B7
:104990007B613B8801335B087A699A42ECD3164B02
:1049A0001A68FB781B0113443A885A60FB7803F1BC
:1049B000805303F5B8539B001B689BB223F4E0437C
:1049C00023F040039BB283F03003FB81FB8943F06B
:1049D0007F4343F47F0343F4004343F080039AB2E0
:1049E000FB7803F1805303F5B8539B001A6000BFB6
:1049F0001C37BD4680BC70478402002080B48BB059
:104A000000AF7860084611461A460346FB700B4615
:104A10003B801346BB70984B5B687B61FB7803F16E
:104A2000805303F5B8539B001B683B61FB781B0167
:104A300058337A691344FB60FB7803F1805303F524
:104A4000B8539B001B6803F4C063002B0AD1FB78AA
:104A500003F1805303F5B8539B001B6803F4807384
:104A6000002B0CD1FB7803F1805303F5B8539B0066
:104A70001B6803F4C063B3F5806F40F06D81BB78B1
:104A8000012B40F0FD80FB681B883A889A4240F277
:104A9000A7807A4B1A68FB781B0113441B6803F14B
:104AA000005303F540535B00FB61744B1A68FB78BD
:104AB0001B0113449B6803F1005303F540535B0053
:104AC000BB613B6903F04003002B44D000237B62B1
:104AD0000CE07B681988BB691A1DBA610A461A6026
:104AE0007B6802337B607B6A01337B62FB681B88D7
:104AF00001335B087A6A9A42EBD300237B620CE0B5
:104B00007B681988FB691A1DFA610A461A607B687E
:104B100002337B607B6A01337B623B88FA681288D0
:104B20009B1A01335B087A6A9A42E9D3FB681988B9
:104B3000524B1A68FB781B0113440A46DA603B8823
:104B4000FA681288991A4D4B1A68FB781B011344B6
:104B50000A465A60DFE000237B620CE07B6819881C
:104B6000FB691A1DFA610A461A607B6802337B6092
:104B70007B6A01337B62FB681B8801335B087A6ABE
:104B80009A42EBD300237B620CE07B681988BB69F7
:104B90001A1DBA610A461A607B6802337B607B6A21
:104BA00001337B623B88FA6812889B1A01335B08E9
:104BB0007A6A9A42E9D3FB681988304B1A68FB7805
:104BC0001B0113440A465A603B88FA681288991AF6
:104BD0002A4B1A68FB781B0113440A46DA609AE0F4
:104BE0003B6903F04003002B0CD0244B1A68FB7880
:104BF0001B0113449B6803F1005303F540535B0012
:104C00003B620BE01D4B1A68FB781B0113441B68C9
:104C100003F1005303F540535B003B623B88002BDC
:104C200015D000237B620CE07B6819883B6A1A1D53
:104C30003A620A461A607B6802337B607B6A013302
:104C40007B623B8801335B087A6A9A42ECD33B690A
:104C500003F04003002B07D0084B1A68FB781B01B8
:104C600013443A88DA6056E0044B1A68FB781B015B
:104C700013443A885A604EE0B40F002084020020AA
:104C80003B6903F04003002B0CD0364B1A68FB78CD
:104C90001B0113441B6803F1005303F540535B00F1
:104CA0003B620BE02F4B1A68FB781B0113449B6897
:104CB00003F1005303F540535B003B623B88002B3C
:104CC00015D000237B620CE07B6819883B6A1A1DB3
:104CD0003A620A461A607B6802337B607B6A013362
:104CE0007B623B8801335B087A6A9A42ECD33B696A
:104CF00003F04003002B07D01A4B1A68FB781B0106
:104D000013443A885A6006E0164B1A68FB781B0178
:104D100013443A88DA60FB7803F1805303F5B85303
:104D20009B001B689BB223F4E04323F040039BB23B
:104D300083F030037B817B8943F07F4343F47F031F
:104D400043F4004343F080039AB2FB7803F18053AD
:104D500003F5B8539B001A6000BF2C37BD4680BCDA
:104D6000704700BF8402002080B485B000AF786037
:104D70000B46FB701346BB700023FB810023BB81F5
:104D80000023BB60BB78002B16D1384B1A68FB7828
:104D90001B011344DB689BB2C3F30903BB81334B94
:104DA0001A68FB781B0113449B6803F1005303F559
:104DB00040535B00BB603DE0BB78012B38D1FB78F2
:104DC00003F1805303F5B8539B001B6803F4804341
:104DD000002B16D0254B1A68FB781B0113445B6827
:104DE0009BB2C3F30903BB81204B1A68FB781B01FC
:104DF00013441B6803F1005303F540535B00BB6091
:104E000018E01A4B1A68FB781B011344DB689BB24D
:104E1000C3F30903BB81154B1A68FB781B011344CC
:104E20009B6803F1005303F540535B00BB6001E056
:104E3000002316E00023FB810CE0BB681A1DBA605A
:104E40001B689AB27B681A807B6802337B60FB899F
:104E50000133FB81FA89BB8901335B089A42ECD3A9
:104E6000BB8918461437BD4680BC704784020020B9
:104E700080B483B000AF7860074B5B681B7A012B6E
:104E800005D1064B1B68054A43F01003136000BFB1
:104E90000C37BD4680BC7047B40F0020405C00401A
:104EA00080B400AF074B1B68064A23F0040313606D
:104EB000044B1B68034A23F00803136000BFBD4680
:104EC00080BC7047405C004080B400AF044B1B685E
:104ED000034A43F00C03136000BFBD4680BC70471B
:104EE000405C004080B582B000AF78607B68D3F84A
:104EF000D0305B69984700BF0837BD4680BD80B59C
:104F000082B000AF78607B68D3F8D0301B699847D7
:104F100000BF0837BD4680BD80B588B000AF7F4B6D
:104F20001B689BB2BB807D4B1B689BB223F0FF03C9
:104F30009BB27B807A4B1B68FB837B889AB2FB8B8E
:104F400013409BB27B80774B5B68BB617B889BB2D5
:104F50001BB2002B80F2F980EEE0BB889BB2DBB283
:104F600003F00F03FB75BB889BB203F01003002B0B
:104F700000F08B80FB7D03F1805303F5B8539B0059
:104F80001B6803F40043002B00F0D680FB7D03F187
:104F9000805303F5B8539B001B689AB240F68F7399
:104FA0001340FB81FB8943F080039AB2FB7D03F140
:104FB000805303F5B8539B001A60FB7D03F18053C7
:104FC00003F5B8539B001B6803F40063002B11D05A
:104FD000FB7D002B40F03D81FA7DB96913465B00F3
:104FE00013449B000B4498331B68FA7D1146B86943
:104FF0009847A1E0FB7D1B011833BA691344BB60DD
:10500000BB69D3F8D0305B6BBA685068F97D002279
:1050100098470346FB80BB685A68FB881A44BB6804
:105020005A60BB685A89FB8813449AB2BB685A819C
:10503000BB685A89BB681B899A4204D2BB681B882B
:10504000FA889A4218D2FA7DB96913465B00134474
:105050009B000B449C331B68002B6DD0FA7DB96913
:1050600013465B0013449B000B449C331B68FA7D82
:105070001146B86998475FE0BB69D3F8D0309B6AA6
:10508000FA7D1146B869984756E0FB7D03F18053DD
:1050900003F5B8539B001B6803F08003002B4BD033
:1050A000FB7D03F1805303F5B8539B001B689BB253
:1050B00023F4E14323F07003BB82BB8A6FEA4343CE
:1050C0006FEA53439AB2FB7D03F1805303F5B85363
:1050D0009B001A60FB7D1B015833BA6913443B6186
:1050E0003B691B89002B1FD1FA7DB96913465B0010
:1050F00013449B000B44A0331B68002B1CD0FA7D8B
:10510000B96913465B0013449B000B44A0331B6832
:10511000FA7D1146B86998470EE000BF445C004034
:10512000405C0040B40F00203B695A683B691B8912
:10513000F97DB869FDF742FE484B1B689BB21A46E1
:10514000BA801BB2002BFFF608AF7B889BB203F43A
:1051500080539BB2002B0FD0404B6FF480521A60EB
:10516000BB69DB78DAB2BB699A70BB695B7A002BEA
:1051700002D1B869FFF7B6FE7B889BB203F40063E7
:105180009BB2002B0CD0364B1B6803F01003002B96
:1051900006D1B86900F068F8304B6FF400621A600D
:1051A0007B889BB203F400739BB2002B0CD02B4B7B
:1051B0006FF400721A602B4B1B68002B04D0294B34
:1051C0001B681B68B86998477B889BB203F480739F
:1051D0009BB2002B2BD0214B6FF480721A60BB69FD
:1051E0009B79002B23D0BB699B79013BDAB2BB6969
:1051F0009A71BB699B79002B19D1BB695B7A002B33
:1052000009D0174B1B68164A23F010031360BB69C3
:1052100000225A720BE0124B1B68114A43F0100334
:105220001360BB6903229A71BB6901225A727B88A1
:105230009BB203F480639BB2002B0BD0074B6FF43F
:1052400080621A60BB69D3F8D030DB69B8699847CF
:1052500000E000BF2037BD4680BD00BF445C004079
:10526000405C0040AC0F002080B582B000AF786099
:105270007B689B78DAB27B68DA707B6804229A706C
:105280007B68DB79002B03D07868FFF738FE02E0FB
:105290007B6803229A7100BF0837BD4680BD0000BD
:1052A00080B483B000AF7860104B1A687B681344F9
:1052B0000F4A934206D30D4B1A687B6813440D4A7C
:1052C000934202D94FF0FF330AE0084B1A687B681B
:1052D0001344064A1360054B1A687B685B4213440B
:1052E00018460C37BD4680BC704700BFCC0200207A
:1052F0000411002008150020002103E00B4B5B582F
:10530000435004310A480B4B42189A42F6D30A4ADA
:1053100002E0002342F8043B084B9A42F9D3FCF721
:10532000C7FF01F077F9FBF73BFC7047E075000819
:105330000000002020030020200300200411002092
:10534000FEE780B483B000AF0346FB80FB889B0977
:105350009BB203F1804303F504331968FB8803F023
:105360001F0301229A40FB889B099BB203F18043F3
:1053700003F50433184641EA0203036000BF0C370B
:10538000BD4680BC704780B483B000AF0346FB804D
:10539000FB889B099BB203F1804303F50433196832
:1053A000FB8803F01F0301229A40FB889B099BB2F4
:1053B00003F1804303F50433184641EA0203036016
:1053C00000BF0C37BD4680BC704780B483B000AFCF
:1053D0000346FB80FB889B099BB203F1804303F5E6
:1053E00004331968FB8803F01F03012202FA03F358
:1053F000DA43FB889B099BB203F1804303F5043336
:10540000184601EA0203036000BF0C37BD4680BCAA
:105410007047000080B485B000AF7860084B1B680F
:10542000FB60FB6823F44003FB600549FA687B6876
:1054300013430B6000BF1437BD4680BC704700BFEC
:105440000410024090B498B000AF0346FB710023F3
:10545000FB656E4B07F11C040FCB84E80F006C4A10
:1054600007F1140392E8030083E80300684A07F198
:105470000C0392E8030083E80300664B1B689B085B
:1054800003F00303FB64FB6C022B0FD0FB6C022BBD
:1054900064D8FB6C002B03D0FB6C012B03D05DE0C8
:1054A0005D4BBB655DE05D4BBB655AE0594B1B68CE
:1054B00003F48033BB64BB6CB3F5803F19D1584B08
:1054C0001B6803F080437B647B6C002B02D1534B41
:1054D0003B6501E0534B3B654E4B1B6803F40033C7
:1054E0003B643B6CB3F5003F05D13B6D5B083B650E
:1054F00001E04D4B3B65474B1B689B0C03F00F03D2
:105500007B65444B1B6803F00063002B03D07B6D6D
:1055100043F010037B653F4B1B6803F08043002B77
:1055200003D07B6D43F020037B657B6D0E2B03D88E
:105530007B6D02337B650BE07B6D0E2B06D97B6D9B
:105540003E2B03D87B6D01337B6501E03F237B65F8
:105550003B6D7A6D02FB03F3BB6502E02E4BBB652E
:1055600000BF2C4B1B681B0903F00F03FB6307F103
:105570001C02FB6B13441B78BB63BA6DBB6B22FA36
:1055800003F37B63234B1B681B0A03F00703FB63D6
:1055900007F11402FB6B13441B78BB637A6BBB6B84
:1055A00022FA03F33B631B4B1B68DB0A03F0070380
:1055B000FB6307F10C02FB6B13441B78BB637A6B34
:1055C000BB6B22FA03F3FB62FB79032B16D801A213
:1055D00052F823F0E5550008EB550008F155000896
:1055E000F7550008BB6DFB6509E07B6BFB6506E0CA
:1055F0003B6BFB6503E0FB6AFB6500E000BFFB6DF6
:1056000018466037BD4690BC704700BF846F0008E5
:10561000946F00080410024000127A000024F40085
:105620002C100240006CDC0200093D0080B489B0FF
:1056300000AFF860B9607A603B600023BB61002373
:105640007B61BB6803F00F03BB61BB6803F0100311
:10565000002B14D07B68042B0DD1BB6943F00303EE
:10566000BB61FB683C331A68FB683C3319463B68F6
:1056700013430B6003E0BA697B681343BB610023EB
:10568000FB8339E0FB8B01229A403B681340002BDF
:105690002FD0FB681B687B61FB8B9B000F2202FAFB
:1056A00003F3DB437A6913407B61FB8B9B00BA6990
:1056B00002FA03F37A6913437B61BB68282B09D193
:1056C000FB8B01229A40FB68143319463B68134058
:1056D0000B600BE0BB68482B08D1FB8B01229A4082
:1056E000FB68103319463B6813400B60FB687A690E
:1056F0001A60FB8B0133FB83FB8B072BC2D908237A
:10570000FB833EE0FB8B01229A403B681340002B59
:1057100034D0FB6804331B687B61FB8B083B9B0028
:105720000F2202FA03F3DB437A6913407B61FB8BA0
:10573000083B9B00BA6902FA03F37A6913437B6161
:10574000BB68282B09D1FB8B01229A40FB681433DC
:1057500019463B6813400B600BE0BB68482B08D12F
:10576000FB8B01229A40FB68103319463B681340BB
:105770000B60FB6804331A467B691360FB8B0133B3
:10578000FB83FB8B0F2BBDD900BF00BF2437BD4669
:1057900080BC704780B483B000AF786039607B68AC
:1057A00010331A463B68136000BF0C37BD4680BCFF
:1057B000704780B483B000AF786039607B68143381
:1057C0001A463B68136000BF0C37BD4680BC70476B
:1057D00080B485B000AF03460A46FB711346BB7127
:1057E0000023FB60BB7903F003039B000F2202FA46
:1057F00003F3FB60BB79032B13D82D4B1A68FB68AE
:10580000DB432B4913400B60294B1A68F979BB79AC
:1058100003F003039B0001FA03F3254913430B60D4
:1058200040E0BB79072B13D8224B1A68FB68DB4397
:10583000204913400B601F4B1A68F979BB7903F0BC
:1058400003039B0001FA03F31A4913430B6029E099
:10585000BB790B2B13D8184B1A68FB68DB4316492E
:1058600013400B60144B1A68F979BB7903F00303FA
:105870009B0001FA03F3104913430B6012E00F4B36
:105880001A68FB68DB430D4913400B600B4B1A6829
:10589000F979BB7903F003039B0001FA03F307498D
:1058A00013430B6000BF1437BD4680BC704700BF78
:1058B000080001400C0001401000014014000140AC
:1058C00080B483B000AF78600B46FB701346BB70AA
:1058D000344B1A687B68DB43324913400B60324B10
:1058E0001A687B68DB43304913400B602F4B1A6802
:1058F0007B68DB432D4913400B602D4B1A687B6896
:10590000DB432B4913400B60FB78002B02D0012BAB
:1059100007D00DE0234B1A6822497B6813430B60C4
:1059200006E0214B1A6820497B6813430B6000BFD7
:10593000BB78022B22D0022B2DDC002B02D0012BB6
:105940000ED028E0194B1A6818497B6813430B6086
:10595000174B1A687B68DB43154913400B601BE04B
:10596000124B1A687B68DB43104913400B60104BE5
:105970001A680F497B6813430B600DE00B4B1A68E4
:105980000A497B6813430B60094B1A6808497B6816
:1059900013430B6000E000BF00BF0C37BD4680BC66
:1059A000704700BF000401400404014008040140A6
:1059B0000C04014080B485B000AF7860084B1A68D1
:1059C0007B681340002B02D00123FB7301E000230E
:1059D000FB73FB7B18461437BD4680BC704700BF85
:1059E0001404014080B483B000AF7860034A7B6840
:1059F000136000BF0C37BD4680BC704714040140E3
:105A000080B483B000AF78607B6800221A607B6846
:105A100000225A607B6800229A607B680022DA606C
:105A20007B6800225A617B6800229A617B680022B1
:105A30001A6100BF0C37BD4680BC704780B485B08A
:105A400000AF786039600023FB607B681B68FB60F7
:105A5000FB6803F44153FB603B681B68FA6813431F
:105A6000FB603B685B68FA681343FB603B689B68BC
:105A7000FA681343FB603B68DB68FA681343FB601A
:105A80003B681B69FA681343FB603B685B69FA6813
:105A90001343FB603B689B69FA681343FB607B68B8
:105AA000FA681A607B681C331B687A681C3223F41E
:105AB0000063136000BF1437BD4680BC704780B4DC
:105AC00083B000AF78607B681A687B6842F0400260
:105AD0001A6000BF0C37BD4680BC704780B483B0ED
