:020000040800F2
:1000000048F00020993E0008E13E0008E13E00086B
:10001000E13E0008E13E0008E13E0008000000006B
:10002000000000000000000000000000B9DC020831
:10003000E13E0008000000000DDD0208F1DF0208CB
:10004000E13E0008E13E0008E13E0008E13E000814
:10005000E13E0008E13E0008E13E0008E13E000804
:10006000E13E0008E13E0008E13E0008E13E0008F4
:10007000E13E0008D1100008E13E0008E13E000822
:10008000E13E0008E13E0008E13E0008C91000081A
:10009000C1100008E13E0008E13E0008E13E000812
:1000A000E13E0008E13E0008E13E0008E13E0008B4
:1000B000E13E0008E13E0008E13E0008E13E0008A4
:1000C000E13E0008E13E0008E13E0008E13E000894
:1000D000E13E0008E13E0008E13E0008E13E000884
:1000E000E13E0008E13E0008E13E0008E13E000874
:1000F000E13E0008E13E0008E13E0008E13E000864
:10010000E13E0008E13E0008E13E0008E13E000853
:10011000E13E0008E13E0008E13E0008E13E000843
:10012000E13E0008E13E0008E13E0008E13E000833
:1001300010B5054C237833B9044B13B10448AFF321
:1001400000800123237010BD800300200000000008
:10015000ACF4020808B5034B1BB103490348AFF3E5
:10016000008008BD0000000084030020ACF40208F9
:1001700081F0004102E000BF83F0004330B54FEA58
:1001800041044FEA430594EA050F08BF90EA020FC5
:100190001FBF54EA000C55EA020C7FEA645C7FEA58
:1001A000655C00F0E2804FEA5454D4EB5555B8BF7B
:1001B0006D420CDD2C4480EA020281EA030382EAEC
:1001C000000083EA010180EA020281EA0303362D7E
:1001D00088BF30BD11F0004F4FEA01314FF4801C51
:1001E0004CEA113102D0404261EB410113F0004F63
:1001F0004FEA03334CEA133302D0524263EB43031A
:1002000094EA050F00F0A780A4F10104D5F1200EB7
:100210000DDB02FA0EFC22FA05F2801841F1000112
:1002200003FA0EF2801843FA05F359410EE0A5F1E6
:1002300020050EF1200E012A03FA0EFC28BF4CF017
:10024000020C43FA05F3C01851EBE37101F00045CD
:1002500007D54FF0000EDCF1000C7EEB00006EEBDA
:100260000101B1F5801F1BD3B1F5001F0CD3490864
:100270005FEA30004FEA3C0C04F101044FEA4452BB
:1002800012F5800F80F09A80BCF1004F08BF5FEA42
:10029000500C50F1000041EB045141EA050130BD22
:1002A0005FEA4C0C404141EB0101013C28BFB1F534
:1002B000801FE9D291F0000F04BF01460020B1FA7F
:1002C00081F308BF2033A3F10B03B3F120020CDA52
:1002D0000C3208DD02F1140CC2F10C0201FA0CF030
:1002E00021FA02F10CE002F11402D8BFC2F1200C95
:1002F00001FA02F120FA0CFCDCBF41EA0C0190404B
:10030000E41AA2BF01EB0451294330BD6FEA040493
:100310001F3C1CDA0C340EDC04F11404C4F120027E
:1003200020FA04F001FA02F340EA030021FA04F390
:1003300045EA030130BDC4F10C04C4F1200220FAE7
:1003400002F001FA04F340EA0300294630BD21FA25
:1003500004F0294630BD94F0000F83F4801306BFEB
:1003600081F480110134013D4EE77FEA645C18BFDF
:100370007FEA655C29D094EA050F08BF90EA020F76
:1003800005D054EA000C04BF1946104630BD91EA6E
:10039000030F1EBF0021002030BD5FEA545C05D171
:1003A0004000494128BF41F0004130BD14F58004B0
:1003B0003CBF01F5801130BD01F0004545F0FE4124
:1003C00041F470014FF0000030BD7FEA645C1ABF59
:1003D000194610467FEA655C1CBF0B46024650EA90
:1003E000013406BF52EA033591EA030F41F40021BC
:1003F00030BD00BF90F0000F04BF0021704730B542
:100400004FF4806404F132044FF000054FF0000116
:1004100050E700BF90F0000F04BF0021704730B5D7
:100420004FF4806404F1320410F0004548BF4042AC
:100430004FF000013EE700BF42004FEAE2014FEA01
:1004400031014FEA02701FBF12F07F4393F07F4FDC
:1004500081F06051704732F07F4208BF704793F0DF
:100460007F4F04BF41F40021704730B54FF46074F2
:1004700001F0004521F000411CE700BF50EA0102F5
:1004800008BF704730B54FF000050AE050EA01029E
:1004900008BF704730B511F0004502D5404261EB0E
:1004A00041014FF4806404F132045FEA915C3FF44F
:1004B000D8AE4FF003025FEADC0C18BF03325FEAEC
:1004C000DC0C18BF033202EBDC02C2F1200300FA9D
:1004D00003FC20FA02F001FA03FE40EA0E0021FAC2
:1004E00002F11444BDE600BF70B54FF0FF0C4CF4B0
:1004F000E06C1CEA11541DBF1CEA135594EA0C0F62
:1005000095EA0C0F00F0DEF82C4481EA030621EA9C
:100510004C5123EA4C5350EA013518BF52EA0335D7
:1005200041F4801143F4801338D0A0FB02CE4FF089
:100530000005E1FB02E506F00042E0FB03E54FF0B9
:100540000006E1FB03569CF0000F18BF4EF0010EB1
:10055000A4F1FF04B6F5007F64F5407404D25FEAAD
:100560004E0E6D4146EB060642EAC62141EA555160
:100570004FEAC52040EA5E504FEACE2EB4F1FD0CA2
:1005800088BFBCF5E06F1ED8BEF1004F08BF5FEA20
:10059000500E50F1000041EB045170BD06F00046D2
:1005A00046EA010140EA020081EA0301B4EB5C047F
:1005B000C2BFD4EB0C0541EA045170BD41F4801177
:1005C0004FF0000E013C00F3AB8014F1360FDEBF9C
:1005D000002001F0004170BDC4F10004203C35DA78
:1005E0000C341BDC04F11404C4F1200500FA05F3FB
:1005F00020FA04F001FA05F240EA020001F000429C
:1006000021F0004110EBD37021FA04F642EB060111
:100610005EEA430E08BF20EAD37070BDC4F10C043B
:10062000C4F1200500FA04F320FA05F001FA04F2FF
:1006300040EA020001F0004110EBD37041F10001EB
:100640005EEA430E08BF20EAD37070BDC4F12005F6
:1006500000FA05F24EEA020E20FA04F301FA05F25E
:1006600043EA020321FA04F001F0004121FA04F206
:1006700020EA020000EBD3705EEA430E08BF20EAD6
:10068000D37070BD94F0000F0FD101F00046400010
:1006900041EB010111F4801F08BF013CF7D041EA92
:1006A000060195F0000F18BF704703F00046520096
:1006B00043EB030313F4801F08BF013DF7D043EA67
:1006C0000603704794EA0C0F0CEA135518BF95EA1D
:1006D0000C0F0CD050EA410618BF52EA4306D1D1A4
:1006E00081EA030101F000414FF0000070BD50EAC3
:1006F000410606BF1046194652EA430619D094EA4D
:100700000C0F02D150EA013613D195EA0C0F05D136
:1007100052EA03361CBF104619460AD181EA03018A
:1007200001F0004141F0FE4141F470014FF0000042
:1007300070BD41F0FE4141F4780170BD70B54FF0DD
:10074000FF0C4CF4E06C1CEA11541DBF1CEA13555D
:1007500094EA0C0F95EA0C0F00F0A7F8A4EB05043F
:1007600081EA030E52EA03354FEA013100F0888036
:100770004FEA03334FF0805545EA131343EA1263FF
:100780004FEA022245EA111545EA10654FEA0026B4
:100790000EF000419D4208BF964244F1FD0404F56D
:1007A000407402D25B084FEA3202B61A65EB0305C9
:1007B0005B084FEA32024FF480104FF4002CB6EB86
:1007C000020E75EB030E22BFB61A754640EA0C0006
:1007D0005B084FEA3202B6EB020E75EB030E22BF46
:1007E000B61A754640EA5C005B084FEA3202B6EB87
:1007F000020E75EB030E22BFB61A754640EA9C0046
:100800005B084FEA3202B6EB020E75EB030E22BF15
:10081000B61A754640EADC0055EA060E18D04FEAD3
:10082000051545EA16754FEA06164FEAC30343EA73
:1008300052734FEAC2025FEA1C1CC0D111F4801F40
:100840000BD141EA00014FF000004FF0004CB6E739
:1008500011F4801F04BF01430020B4F1FD0C88BFD8
:10086000BCF5E06F3FF6AFAEB5EB030C04BFB6EBE3
:10087000020C5FEA500C50F1000041EB045170BDD6
:100880000EF0004E4EEA113114EB5C04C2BFD4EB03
:100890000C0541EA045170BD41F480114FF0000E87
:1008A000013C90E645EA060E8DE60CEA135594EA03
:1008B0000C0F08BF95EA0C0F3FF43BAF94EA0C0F06
:1008C0000AD150EA01347FF434AF95EA0C0F7FF47B
:1008D00025AF104619462CE795EA0C0F06D152EACF
:1008E00003353FF4FDAE1046194622E750EA4106B3
:1008F00018BF52EA43067FF4C5AE50EA41047FF4C4
:100900000DAF52EA43057FF4EBAE12E74A0011D275
:1009100012F5001211D20DD56FF47873B3EB625259
:100920000ED44FEAC12343F0004343EA505323FA65
:1009300002F070474FF00000704750EA013002D1DA
:100940004FF0FF3070474FF0000070477BB972B92D
:100950000029BEBF00204FF0004106E008BF00287C
:100960001CBF6FF000414FF0FF3000F0D3B9ADF184
:10097000080C6DE904CE002909DB002B1ADB00F01E
:100980004DF8DDF804E0DDE9022304B07047404291
:1009900061EB4101002B1BDB00F040F8DDF804E0C7
:1009A000DDE9022304B0404261EB4101524263EBB6
:1009B00043037047524263EB430300F02FF8DDF826
:1009C00004E0DDE9022304B0404261EB41017047DD
:1009D000524263EB430300F021F8DDF804E0DDE967
:1009E000022304B0524263EB4303704753B94AB940
:1009F000002908BF00281CBF4FF0FF314FF0FF3027
:100A000000F088B9ADF1080C6DE904CE00F006F8ED
:100A1000DDF804E0DDE9022304B070472DE9F0477A
:100A2000089D0F4604468C46002B48D18A42164644
:100A300061D9B2FA82F34BB1C3F1200201FA03FC8F
:100A400020FA02F29E4042EA0C0C9C404FEA164EFD
:100A5000B7B2BCFBFEF1220C0EFB11CC42EA0C42F9
:100A600001FB07F0904209D9B21801F1FF3C80F078
:100A7000EE80904240F2EB8002393244121AA4B266
:100A8000B2FBFEF00EFB102244EA024400FB07F723
:100A9000A74209D9341900F1FF3280F0DA80A74269
:100AA00040F2D7803444023840EA0140E41B002180
:100AB0001DB1DC400023C5E90043BDE8F0878B424F
:100AC00006D90DB1C5E9000100210846BDE8F0874F
:100AD000B3FA83F1002948D1BB4202D3824200F22B
:100AE0000781841A67EB030201209446002DE4D0AD
:100AF000C5E9004CE1E7002A00F09280B2FA82F3E7
:100B0000002B40F0A8808A1A4FEA164E1FFA86FC86
:100B10000121200CB2FBFEF70EFB172240EA024235
:100B20000CFB07F0904207D9B21807F1FF3802D248
:100B3000904200F2E2804746121AA4B2B2FBFEF0E5
:100B40000EFB102244EA02440CFB00FCA44507D92A
:100B5000341900F1FF3202D2A44500F2CB801046D6
:100B6000A4EB0C0440EA0740A2E7C1F120068B4049
:100B700022FA06FC4CEA030C07FA01F420FA06F309
:100B8000F7404FEA1C49234300FA01F81FFA8CFE94
:100B9000B7FBF9F01C0C09FB107744EA074400FB93
:100BA0000EF7A74202FA01F20AD91CEB040400F185
:100BB000FF3A80F09B80A74240F29880023864445C
:100BC000E41B9FB2B4FBF9F309FB134447EA044466
:100BD00003FB0EFEA64509D91CEB040403F1FF3705
:100BE00080F08280A6457FD9023B644443EA0040FE
:100BF000A4EB0E04A0FB02E7BC427346B94663D3E4
:100C000060D05DB1B8EB030264EB090404FA06F6A8
:100C100022FA01F31E43CC40C5E9006400214CE7F1
:100C20006208480842EAC1710B0C43EA00438AB2E9
:100C300042EA0342B3FBF6F1E407B4463746B64650
:100C40001F23B0FBF6F0D21B41EA004161E7614689
:100C500014E7104628E7C3F1200120FA01F29E4074
:100C600027FA01F19F403A434FEA164E1FFA86FCDD
:100C7000B1FBFEF70EFB1710110C41EA004107FB18
:100C80000CF8884504FA03F43AD9711807F1FF30DB
:100C900001D288451FD8A1EB0801B1FBFEF808FB83
:100CA0000CF70EFB181192B242EA0142BA422FD25F
:100CB000B21808F1FF31C6D2BA42C4D2A8F102017B
:100CC0003244C0E7F0459CD2BEEB020367EB0C0751
:100CD0000138B94695E7A6EB08084144B81EB1FBB8
:100CE000FEF808FB0CF7DCE73B467FE7504667E77A
:100CF0000846FBE63444023832E7023F32441BE741
:100D0000A1EB08013846B1FBFEF808FB0CF7C8E779
:100D1000414698E7704700BF10F8012B11F8013BDE
:100D2000012A28BF9A42F7D0D01A7047034613F819
:100D3000012B002AFBD1181A01387047000000006F
:100D400001F0FF01102A2BDB10F0070F08D010F87C
:100D5000013B013A8B422DD010F0070F42B3F6D180
:100D6000F0B441EA012141EA014122F007047FF099
:100D700000070023F0E80256083C85EA010586EAF0
:100D8000010685FA47F5A3FA87F586FA47F6A5FA2C
:100D900087F68EB9EED1F0BC01F0FF0102F0070238
:100DA00032B110F8013B013A83EA010313B1F8D1E3
:100DB0000020704701387047002D06BF35460338C4
:100DC000073815F0010F07D1013015F4807F02BFFD
:100DD000013015F4C03F0130F0BC0138704700BF4E
:100DE0002DE9F04188B04FF4A06003F01FFA2C4DBC
:100DF0000221284603F0D2FC01AE304603F0E9FCA4
:100E0000284B019300248DF81C40039401278DF892
:100E10001D70029404948DF81E7005944FF40058D0
:100E2000CDF8188032460221284603F0DFFC02216B
:100E3000284603F02BFD02221146284603F053FDFD
:100E400002221146284603F08FFD224605210D207F
:100E500003F05EFC0421284603F0A0FC304603F0BA
:100E6000B8FC114B01938DF81C4003948DF81D7054
:100E7000029404948DF81E700594CDF818803246C3
:100E80000421284603F0B2FC0421284603F0FEFCAE
:100E900002220421284603F026FD08B0BDE8F081B7
:100EA000000002400C3001400C38004000296ED098
:100EB00070B504460E46002868D04FF0FF31344B21
:100EC00018682DF052FA334D22460221284603F0CD
:100ED000EDFC32460221284603F0F6FC02221146C0
:100EE000284603F000FD0221284603F0BFFC002144
:100EF000294803F0C8FA6421284B18682DF0B6FA87
:100F0000F0B98021244803F0D9FA0128F9D0214C06
:100F100002221146204603F0E6FC0221204603F09F
:100F2000B5FCA4F550440021204603F0B7FA402157
:100F3000204603F0C3FAF8B1204603F0BCFA1BE0E8
:100F40000021164B18682DF091FA0221284603F073
:100F50009DFC114C0021204603F0A0FA204603F02E
:100F600088FA204603F080FA094B18682DF020FA21
:100F70000CE0094803F09FFA0121074803F09EFAAC
:100F80000028F6D1024B18682DF012FA70BD704798
:100F9000C8E200200000024000300140D4E20020FE
:100FA00010B50446C0F3074000F04CFAC4F3072024
:100FB00000F048FAE0B200F045FA10BD08B54FF471
:100FC0008051024803F027FA08BD00BF000C014021
:100FD00008B54FF48051024803F01BFA08BD00BF6A
:100FE000000C014010B5FFF7E9FF052000F02AFAD8
:100FF000FF2000F027FA0446FFF7EAFF14F0010F84
:10100000F1D110BD08B5FFF7D9FF062000F01AFA9C
:10101000FFF7DEFF08BD10B50446FFF7F3FFFFF74B
:10102000CDFF202000F00EFA2046FFF7B9FFFFF7B2
:10103000CFFFFFF7D7FF10BD70B504460E4615462B
:10104000FFF7E0FFFFF7BAFF022000F0FBF92046B0
:10105000FFF7A6FF002404E0305D00F0F3F901344F
:10106000A4B2AC42F8D3FFF7B3FFFFF7BBFF70BDEC
:1010700070B504460E461546FFF7A0FF032000F0AA
:10108000E1F92046FFF78CFF002405E0FF2000F087
:10109000D9F930550134A4B2AC42F7D3FFF798FF29
:1010A00070BD000029B108B50F2202482DF085FD62
:1010B000FEE7FEE79C03002008B52DF05FFC08BDAD
:1010C00008B501F0ABFF08BD08B501F079FE08BD19
:1010D00008B502221146074803F00BFC00B908BD11
:1010E00002221146034803F039FC034B18682DF027
:1010F000F1F9F4E700000240D4E2002008B528B17D
:101100004FF40071044803F084F908BD4FF40071F6
:10111000014803F080F9F8E7000C014010B54FF4E6
:10112000C06003F083F840F2026003F07FF840F201
:10113000036003F07BF840F2046003F077F840F2BC
:10114000056003F073F8254C52230322102120463A
:1011500003F00EF95221204603F05BF9A02303228D
:101160001821204603F004F94FF46043032248217C
:101170001B4803F0FDF8012303224821204603F019
:10118000F7F804F580644FF4007303221021204621
:1011900003F0EEF80120FFF7B1FFC02303221C216A
:1011A000204603F0E5F84FF4805303221021204637
:1011B00003F0DEF84FF48051204603F02AF94FF493
:1011C000204303221821204603F0D2F84FF4804335
:1011D00003220421204603F0CBF810BD0008014093
:1011E0000010014070B506460D461446B1B20648DF
:1011F00003F032FAA84203D0631E1CB11C46F5E787
:10120000012070BD0020FCE70054004010B540F202
:10121000157003F00BF80A4C00220A49204603F02F
:1012200055F9322300221146204603F0E3F9204607
:1012300003F0FEF94FF48061204603F0E9F910BD98
:1012400000540040A086010070B506460D464CF2E1
:10125000503440F20161714803F0FEF9012805D1D4
:10126000631E002C00F0D7801C46F2E76B4803F0A9
:10127000E4F942F2107201214FF4A060FFF7B2FFCF
:1012800020B376006FF001023146644803F0C6F9DE
:1012900044F620642346013C13B340F201515F48F9
:1012A00003F0DAF9012816D040F20A515B4803F046
:1012B000D3F90128EED1594C40F20A51204603F0EF
:1012C000D7F9204603F0BEF9002003E0534803F0AD
:1012D000B9F9002070BD40F20151504803F0C8F93F
:1012E00064B140F207514D4803F0B6F958B9013CDA
:1012F000F7D14A4803F0A6F90020EBE7474803F08E
:10130000A1F90020E6E72946444803F0A0F940F29D
:101310000251424803F0A0F930B9013CF7D13F48EF
:1013200003F090F90020D5E73C4803F086F942F23B
:10133000107201214FF4A060FFF754FF10B3012297
:101340003146364803F06AF944F620642346013CEE
:1013500013B340F20151314803F07EF9012816D051
:1013600040F20A512D4803F077F90128EED12B4CB9
:1013700040F20A51204603F07BF9204603F062F95F
:101380000020A7E7254803F05DF90020A2E740F21E
:101390000151224803F06CF98CB14FF480611F4871
:1013A00003F036F940F206511C4803F055F958B9DC
:1013B000013CF7D1194803F045F900208AE71748A6
:1013C00003F040F9002085E7144E304603F041F960
:1013D00005460021304603F01BF940F206510F4844
:1013E00003F03AF930B9013CF7D10C4803F02AF97F
:1013F00000206FE7094E304603F02BF904463046D3
:1014000003F020F9012000F09AF82B029BB244EA85
:10141000030080B25EE700205CE700BF005400409C
:1014200008B502F07DFEFFF779FE00F025F8FFF722
:10143000EDFEFFF7D5FC2CF0E7FDFFF73DFE2CF0AD
:10144000F5FDFEE710B5044602210A4803F036F820
:101450000028F9D02146074803F02BF80121054860
:1014600003F02CF80028F9D0024803F024F8C0B2A9
:1014700010BD00BF003800402DE9F04188B040F2B7
:101480000C6002F0D3FE01AD284602F0CDFF4FF410
:10149000404302934FF48278CDF8048000240394F3
:1014A00006944FF400770497082307930594134E8E
:1014B0002946304602F0C1FF304602F0DFFF3046D9
:1014C00002F0D2FF40F20E7002F0B0FE284602F0A9
:1014D000ABFF0294CDF80480039406940497102384
:1014E00007930594064C2946204602F0A6FF2046A5
:1014F00002F0BAFF08B0BDE8F08100BF0030014043
:101500000038004010B44FF0E0235C69C0EB0010DD
:101510004FEAC00C9B69002104E0E01A0244114428
:10152000614509D21A464FF0E0239B699A42FAD0EE
:10153000F3D9D21A1144F3E75DF8044B704710B5A4
:1015400004462BF061FB022806D04FF47A7004FBAE
:1015500000F0FFF7D7FF10BDE30E6101091B63F137
:1015600000039B0043EA91738900091943F10003CA
:10157000DC004FF47A720023C80044EA5171FFF78F
:1015800035FA2BF079F9E6E708B52BF03DFB012899
:1015900001D1002008BD2BF00DF8FBE708B5084B82
:1015A00002221A75074A9A61074ADA61074A1A62E3
:1015B0004FF43162002106482DF0F7FA08BD00BF54
:1015C000D80E0020D7A32D42D9CE67400AD783BFBB
:1015D000AC03002008B501464020FFF735FE08BDEA
:1015E00038B5054600240CE0074B53F82410074B90
:1015F00053F8240002F011FFB0FA80F35B092B5579
:101600000134032CF0DD38BD1CF502080CF502088E
:1016100008B51021014802F0FEFE08BD0008014097
:1016200008B54021014802F0F6FE08BD000801405F
:1016300008B51021014802F0ECFE08BD0008014089
:1016400008B54021014802F0E4FE08BD0008014051
:1016500010B504460221084802F030FF0028F9D0F6
:101660002146054802F025FF8021034802F026FFAD
:101670000128F9D010BD00BF0030014038B5044644
:101680000A4D4FF0FF3128682CF06FFEFFF7C0FFC6
:10169000FFF7C6FF2046FFF7DBFFFFF7D1FFFFF79D
:1016A000C7FF28682CF084FE38BD00BFC8E20020C8
:1016B00038B504460D46FFF7ABFFA9B22046FFF749
:1016C000F5FBFFF7B5FF38BD00B583B08DF8070017
:1016D00001210DF10700FFF7EBFF03B000BD00B5DE
:1016E00083B02830283235313533C0F3072C8DF8DC
:1016F00000C08DF80100C2F307208DF802008DF8BC
:101700000320C1F307228DF804208DF80510C3F3E0
:1017100007228DF806208DF807302A20FFF7AEFF4C
:1017200004216846FFF7C4FF2B20FFF7A7FF042121
:101730000DEB0100FFF7BCFF2C20FFF79FFF03B06C
:1017400000BD10B5F8B0002307E05A00010A0DF8FB
:10175000131001320DF802000133EF2BF5D9862367
:10176000EF2200210846FFF7BAFF002405E04FF4FE
:10177000F0716846FFF79CFF0134862CF7DD78B0E6
:1017800010BD000010B51B4C0221204602F043FEA4
:101790001E20FFF7D4FE0221204602F03AFE7820F8
:1017A000FFF7CDFE0120FFF769FF9620FFF7C7FE88
:1017B0001120FFF763FF9620FFF7C1FE3620FFF7E9
:1017C0005DFF6020FFF780FF3A20FFF757FF0520FD
:1017D000FFF77AFF2120FFF751FF1320FFF74EFF9D
:1017E0002920FFF74BFF3220FFF7A9FE0020FFF76B
:1017F000A8FF10BD0008014008B5FFF7CFFE08BDE7
:1018000008B5FFF7BFFF08BD037B1BB1013B50F8D4
:10181000230070470020704770B108B50246074B9F
:101820001B7B022B07D80549581C087341F823205D
:10183000136803B1984708BD704700BFFC0E002035
:1018400008B5034B00221A73FFF7E6FF08BD00BF7F
:10185000FC0E002008B5054A137B013BDBB2137375
:1018600052F823305B68984708BD00BFFC0E00208B
:1018700008B50248FFF7C8FF08BD00BFFC0E0020F6
:1018800010B500F059F900F08DF9084C084A0949E3
:10189000204600F093F900F086F9D4F8D0309B6828
:1018A000012098470523A37010BD00BF0C0F002036
:1018B0000C0000202C0000202DE9F04168B30D46FB
:1018C000074661B31A4B9B78032B2CD1184BD3F8E6
:1018D000D480B8F1000F28D00026AE4220D2FFF706
:1018E00053FE0446124800F018F928B1FFF74CFEE9
:1018F000001B6428F6D913E0AC1B402C00D940240F
:101900002246B91908F103002DF098F9C8F84440AF
:10191000074800F0F0F82644DFE7002600E00E4616
:101920003046BDE8F0810026FAE70026F8E700BF60
:101930000C0F00200FB410B5C2B044AB53F8042B09
:1019400001934FF4807102A82DF008F9041E08DD00
:10195000FF2C00D9FF24214602A8FFF7ADFF8442E7
:1019600005D1204642B0BDE8104004B070474FF0AA
:10197000FF34F6E770B50446D0F8D0301E6A194D32
:101980002B464FF4A0720021B047D4F8D0301E6A25
:10199000EB1F4FF4807200212046B047D4F8D030BE
:1019A0001E6AA5F11703C02200212046B0470E4B46
:1019B0009A69C4F8AC20DB69C4F8C0300B4B002234
:1019C0009A700121597019705A64094903C99864C1
:1019D000A3F84C10090C83F84E10C4F8D43010460C
:1019E00070BD00BF180200200C000020EC0F00208A
:1019F000C4F4020810B50446D0F8D0305B6A8121E7
:101A00009847D4F8D0305B6A032120469847D4F831
:101A1000D0305B6A822120469847002010BDD0F864
:101A2000D430D0F8CC201278FF2A06D001229A7048
:101A30001A70D0F8CC30FF221A7000207047D0F80E
:101A4000D43001229A70023100EB011042885A64AE
:101A5000704710B485B00346002201920292ADF89F
:101A60000C20D0F8D4004A78212A10D0222A17D08E
:101A7000202A25D1D3F8CC4022704830CA88D861BA
:101A80001A840020588405B05DF8044B7047483034
:101A9000D8650722A3F860200020A3F86200F2E7CF
:101AA000A1238DF8043020238DF805300223ADF8F2
:101AB0000A304B8803F003038DF80C300020E2E776
:101AC0000120E0E708B5D0F8D4208B1D00EB03130C
:101AD000B3F802C000EB0113B3F858309C4503D0B3
:101AE00001235370137008BD00231A4601F07F01D3
:101AF00000F09CF8F7E738B5D0F8D440636C13B128
:101B00006278012A00D038BD002565709BB2E21CC6
:101B1000812100F08BF86564F5E7D0F8D4303BB153
:101B20001B6803F0FF13B3F1011F03D005207047BA
:101B3000052070470020704710B5002002F08EFB92
:101B400004464FF4C16002F071FB124B9C420DD071
:101B5000114B9C420FD0114B9C4210D0104B9C4219
:101B600012D040F2177002F061FB10BD4FF48000FC
:101B700002F06AFBF5E7002002F066FBF1E74FF4A4
:101B8000400002F061FBECE74FF4000002F05CFB68
:101B9000E7E700BF006CDC0200A24A0400D8B805E9
:101BA000000E2707704708B54FF4A06002F0A6FDAD
:101BB00000220221142002F0ABFD08BD10B504463E
:101BC000154B08201870012058704FF4007CA3F8C2
:101BD00002C05C60C4F8C810C4F8CC200F4AC4F836
:101BE000D020002323750E4BC4F898300D4BC4F859
:101BF0009C300D4BC4F8A0304B68DB79C3F38013E5
:101C00002371E07113689847D4F8C830DB68D8684E
:101C100000F0F4FA10BD00BF441000203402002090
:101C2000772200080B230008512300082DE9F04714
:101C3000054617461E4601F07F0404F1805303F564
:101C4000B8539B001A6812F4C06F03D11A6812F4DB
:101C5000807F21D11B6803F4C063B3F5806F1BD074
:101C600005EB0419B9F85880B04528BFB046D5F83F
:101C7000D030DB6A42462146384698474744A6EBB7
:101C80000806C9F85C700634230105EB0414EE5213
:101C9000A4F80280BDE8F08705EB0413B3F8588080
:101CA0004FEA4808B04528BFB0461FFA88F9D5F872
:101CB000D030D3F830A001234A4621463846D047D9
:101CC00006B305EB0413B3F85820B318013BB3FB7C
:101CD000F2F3A21D05EB02129380A31D05EB031383
:101CE0009B88022B14D017FA88F7A6EB090605EBA0
:101CF0000412D7650634230105EB0414EE52A4F850
:101D00000290C7E7A31D05EB031301229A80E4E7C5
:101D100017FA88F7A6EB090605EB0412B2F858305B
:101D2000A9EB0303D7650634220105EB0414AE5278
:101D30006380AFE701207047D0F8C8301B681B787C
:101D40001380D0F8C83018687047D0F8C830596888
:101D50008B78C97843EA01231380D0F8C8305868DB
:101D600070470346D0F8C810886840B18178C078C1
:101D700041EA00211180D3F8C830986870470023E9
:101D800013807047D0F8C830DB6853F8210003781F
:101D90001380704710B40246B1F804C05FFA8CF4A7
:101DA0000B7803F00300012822D0022826D0002857
:101DB0003BD19378023B012B01D9012036E0137906
:101DC00093B11C4B01211970137A23B119490B7877
:101DD00043F002030B70174BD3650223A2F8603067
:101DE000A2F86230002021E0124B00211970EBE7CD
:101DF0009378032B1AD1002CEDD017E09378032BA6
:101E000001D0012012E01CF0800F05D102EB041478
:101E1000A17E084B1970DEE704F07F0402EB041486
:101E200094F85A10034B1970D5E701205DF8044B64
:101E3000704700BF40100020F8B506460D460C78EC
:101E400014F0030404D0022C10D001242046F8BD65
:101E50008378023B012B01D90124F7E74B88012B42
:101E600001D00124F2E700230372EFE78B88DFB291
:101E70008378032B01D00124E8E717F07C0419D103
:101E80004B88CBB9D7B1802F1AD0D0F8D0301B6C8B
:101E90003946984708B90124D8E7D6F8D030DB6B2B
:101EA000394630469847D6F8CC30DB68294630466C
:101EB0009847CBE70124C9E70124C7E70124C5E718
:101EC0000124C3E7F8B506460D460C7814F0030468
:101ED00004D0022C0FD001242046F8BD8378023BA9
:101EE000012B01D90124F7E74B88012B01D00124F4
:101EF000F2E70372F0E78B88DFB28378032B01D01F
:101F00000124E9E717F07C0419D14B88CBB9D7B18C
:101F1000802F1AD0D0F8D0301B6C3946984708B9BA
:101F20000124D9E7D6F8D0309B6B39463046984724
:101F3000D6F8CC30DB68294630469847CCE70124F8
:101F4000CAE70124C8E70124C6E70124C4E78B8857
:101F500083B9CB8883B94B8803F07F0343708278C1
:101F6000032A0BD01BB1022383700020704701238A
:101F70008370FAE701207047012070470120704705
:101F800070B504460D460B7813F003031FD0012BE8
:101F900059D00126B4F86030002B5FD0EA88002ABF
:101FA0005CD0934228BF1346A4F86030B4F81120E7
:101FB000934252D2B4F85820B3FBF2F102FB113332
:101FC0009BB2002B4CD10123E374002646E04988E4
:101FD0000E0AC9B2731E0E2B3BD8DFE803F00817B8
:101FE000213A3A3A3A3A3A3A3A3A3A3A2D00731E94
:101FF0001C4A52F8233000F160029847E065EB88F4
:10200000402BC7D10823A4F86030C3E7013E154B2D
:1020100053F8263000F160029847E0650126B9E7E1
:10202000EE2918D8013E0F4B53F8263000F160021C
:102030009847E0650126ADE700F16002FFF791FEE9
:10204000E0650126A6E7D0F8CC30DB689847064665
:10205000A0E701269EE701269CE70026304670BDDA
:102060000026FBE72CF50208002070478378DAB2DF
:10207000022B03D0032A05D00120704703781BB13F
:102080000120704703783BB1C0650123A0F86030A0
:10209000A0F86230002070470120704738B54C88A6
:1020A000E4B21E4B1C70012C02D90124204638BD1D
:1020B00005468378DAB2022B03D0032A0FD001241D
:1020C000F4E7002CF2D0D0F8CC305B68214698477A
:1020D000124B1B782B700323AB700024E6E754B936
:1020E000D0F8CC309B68214698470C4B1B782B705E
:1020F0000223AB70DAE701788C420DD0D0F8CC30F7
:102100009B689847054B19782970D5F8CC305B68E7
:10211000284698470024C9E70024C7E7421000205A
:1021200003468278032A01D001207047888810F086
:10213000FF0001D001207047D3F8CC200132DA65CE
:102140000122A3F86020A3F86220704710B58378BD
:10215000032B02D00124204610BD8C8814F0FF040C
:1021600001D00124F7E74A88D0F8CC305A70D0F873
:10217000CC30DB689847EEE700207047002393429D
:102180001DD200B510E00CF1370C01F813C00001AE
:102190004FEA430C0CF1010C4FF0000E01F80CE07B
:1021A0000133DBB2934209D24FEA107CB0F1204FE9
:1021B000E9D20CF1300C01F813C0E8E700BD70471C
:1021C00008B54A78024B53F82230984708BD00BF43
:1021D00038F5020808B58378032B01D0012008BD2B
:1021E0008B8813F0FF0F01D00120F8E7D0F8CC3036
:1021F000DB689847F3E701207047000038B50446D4
:102200000378062B14D00F4BD3F8E807D3F8EC571C
:10221000D3F8F037C01800D138BD0822A11CFFF751
:10222000ADFF042204F112012846FFF7A7FFF3E7F0
:10223000054BD3F80031002BEED043801B0C83807C
:10224000EAE700BF00F0FF1F0020024008B50323AB
:102250000375D0F8D030DB6A00221146C06D984774
:1022600008BD08B501230375B0F86030C26D0021C8
:10227000FFF7DCFC08BD38B50446D0F8D0305B6B06
:1022800000F10B050022114628469847082806D081
:10229000D4F8D0309B6B00212046984738BDE37AB4
:1022A00003F06003202B17D0402B1AD033BB2946F4
:1022B0002046FFF785FF08BBB4F81130B3B194F99D
:1022C0000B30002B16DB02232375D4F8D0309B6A29
:1022D000002120469847E1E729462046FFF77AFF8C
:1022E000E9E729462046FFF786FFE4E72046FFF7A7
:1022F000ADFFD3E72046FFF7B4FFCFE7D4F8D030E7
:102300009B6B002120469847C8E738B504460D4628
:102310008378032B05D0237D022B09D0042B0BD00F
:1023200038BDD0F8CC305B69002BF4D09847F2E789
:102330002046FFF78BFFF3E704EB05120023D36180
:10234000A91C0A0104EB0111A3524B802375E7E796
:1023500010B50446C37C43B1D0F8D030DB6A00220C
:102360001146C06D98470023E374A378032B0ED069
:10237000237D012B13D0032B1AD0637833B1D4F80B
:10238000D030DB68204698470023637010BDD4F836
:10239000CC301B69002BEBD020469847E8E704239C
:1023A0002375D4F8D0309B6A002120469847E4E793
:1023B00000232375E1E77047084B0122C3F8402C46
:1023C0000022C3F8402CC3F8442CC3F8502CD3F897
:1023D000402C42F41F42C3F8402C7047005000408C
:1023E000054B0122C3F8402C0022C3F8442C0322E1
:1023F000C3F8402C704700BF00500040437843F0C2
:102400008003024AC2F84C3C704700BF00500040B5
:10241000184B1A68802111601B6800225A60402204
:10242000A0F858209A6002834FF40442DA60012237
:102430000DE002F1805303F5B85399000B6823F4C3
:102440000F4323F08F0313430B600132D2B2032AF0
:10245000EFD9094BD3F8002C92B2C3F8002C43F209
:102460002022C3F8002C8022C3F84C2C0123837057
:10247000704700BF7802002000500040F0B59E7801
:1024800006F07F0C9D88DB7803F00303B54C54F80D
:1024900023400CF1805303F5B8539B0044EA0C042D
:1024A0001C6016F0800F21D11FFA85FE00EB0C1482
:1024B0002583002940F0A080AB4C246804EB0C1469
:1024C000A260BEF13E0F40F2048100EB0C10028BC3
:1024D00012F01F0F00F0F28052099202A248006829
:1024E00000EB0C1042F40042C260FEE000EB0C1066
:1024F000A0F8585099B94FEA0C1C9B49096841F85B
:102500000C201A6822F4E04222F0400292B282F0DB
:10251000200242F4004242F080021A60F3E00129F6
:1025200040F0F180196821F4E24121F0700189B294
:1025300041F4014141F080011960196811F0400F28
:102540000AD0196821F4E04121F0700189B241F408
:10255000004141F0C0011960196811F4804F0AD0A0
:10256000196821F4E04121F0700189B241F4404141
:1025700041F080011960196821F4E04121F07001F7
:1025800089B241F4404141F0800119604FEA0C1CCE
:102590007549086894B240F80C4009686144120C0F
:1025A0008A601A6802F4C062B2F5806F18D01A68A7
:1025B00022F4E04222F0400292B282F0200242F481
:1025C000004242F080021A601A6892B222F48042FD
:1025D00022F0700242F4004242F080021A6092E05F
:1025E0001A6892B222F4E04222F0400242F4004221
:1025F00042F080021A60E7E701297FF462AF1C68AD
:1026000024F4E24424F07004A4B244F4014444F0FD
:1026100080041C601C6814F4804F0AD01C6824F4E9
:10262000E04424F07004A4B244F4404444F0800434
:102630001C601C6814F0400F0AD01C6824F4E044AD
:1026400024F07004A4B244F4004444F0C0041C60BC
:102650001C6824F4E04424F07004A4B244F4004460
:1026600044F0C0041C604FEA0C153F4E346897B22A
:10267000675134682C44120CA260BEF13E0F14D98D
:1026800000EB0C12128B12F01F0F06D04FEA5E12F5
:10269000920242F40042626013E74FEA5E12013A8E
:1026A000920242F4004262600BE70EF10102520214
:1026B00022F47F7222F00302626002E75209013ABB
:1026C00092022948006800EB0C1042F40042C260FC
:1026D0000BE00EF101022448006800EB0C105202DE
:1026E00022F47F7222F00302C26069B91A6822F4F0
:1026F000804222F0700292B282F4005242F4004210
:1027000042F080021A60F0BD0129FCD11A6802F47F
:10271000C062B2F5806F18D01A6822F4804222F0AD
:10272000700292B282F4005242F4004242F08002FF
:102730001A601A6892B222F4E04222F0400242F497
:10274000004242F080021A60DDE71A6892B222F479
:10275000804222F0700242F4004242F080021A608D
:10276000E7E700BF6CF502087802002001F07F0364
:1027700011F0800F1FD103F1805303F5B8539B0074
:102780001A6812F4804F0AD01A6822F4E04222F04C
:10279000700292B242F4404242F080021A601A681B
:1027A00092B222F4804222F0700242F4004242F0DF
:1027B00080021A60704703F1805303F5B8539B0001
:1027C0001A6812F0400F0AD01A6822F4E04222F090
:1027D000700292B242F4004242F0C0021A601A68DB
:1027E00092B222F4E04222F0400242F4004242F06F
:1027F00080021A60704701F07F0101F1805101F5FC
:10280000B85189000B6823F4804323F070039BB216
:1028100083F4405343F4004343F080030B6070475C
:1028200011F07F031BD1274AD2F8003C23F4E04388
:1028300023F040039BB283F0100348F280010B4366
:10284000C2F8003CD2F8003C23F4804323F070032C
:102850009BB283F480530B43C2F8003C704711F0E5
:10286000800F16D100EB03100122827603F1805312
:1028700003F5B8539B001A6822F4804222F07002DC
:1028800092B282F4805242F4004242F080021A6016
:10289000704700EB0310012280F85A2003F18053A7
:1028A00003F5B8539B001A6822F4E04222F040027C
:1028B00092B282F0100242F4004242F080021A60AA
:1028C000704700BF0050004038B5044601F07F0556
:1028D00011F0800F07D1D0F8D0301B6C9847B0F5BD
:1028E000805F2DD038BDD0F8D0301B6C98471028B1
:1028F000F8D105F1805202F5B8529200136813F036
:10290000400F0AD0136823F4E04323F070039BB216
:1029100043F4004343F0C003136004EB05150023A8
:1029200085F85A30136823F4E04323F040039BB248
:1029300083F0300343F4004343F080031360D1E796
:1029400005F1805202F5B8529200136813F4804FDB
:102950000AD0136823F4E04323F070039BB243F4DE
:10296000404343F08003136004EB05140023A37677
:10297000136823F4804323F070039BB283F4405325
:1029800043F4004343F080031360ABE701F07F039F
:1029900003F1805303F5B8539B00186811F0800FC2
:1029A00002D100F44050704700F030007047000042
:1029B00030B41546A2B10B01164A1268D35803F180
:1029C000005303F540535B00002204E030F8024B53
:1029D00043F8044B013205F1010CB2EB5C0FF5D367
:1029E0000C4B1B6803EB01135D6001F1805101F595
:1029F000B85189000B6823F4E04323F040039BB2F5
:102A000083F0300343F4004343F080030B6030BC99
:102A1000704700BF780200202DE9F041834C6668C2
:102A200001F1805C0CF5B85C4FEA8C0CDCF80050CE
:102A3000DCF8004014F4C06F04D1DCF8004014F45A
:102A4000807F06D1DCF8004004F4C064B4F5806FE8
:102A500028D1012B28D015F0400500F0C7800B01CC
:102A6000734C2468E35803F1005303F540535B00B3
:102A7000002A40F0D180002D00F0D1806C4B1B6803
:102A800003EB01135A60DCF8003023F4E04323F039
:102A900040039BB283F0300343F4004343F08003D0
:102AA000CCF80030BDE8F08106EB0113B3F85830E4
:102AB00093426AD20F015E4B1B6803EB0114DB5992
:102AC00003F1005E0EF5405E4FEA4E0EA36803F17F
:102AD000005303F540535B0015F0400510D1A846A4
:102AE0002FE030F8024B43F8044B013506EB01149C
:102AF000B4F858400134B5EB540FF2D3002406E08B
:102B00000025F3E730F8023B4EF8043B013406EBB6
:102B10000113B3F85850531B0133B4EB530FF1D3E7
:102B2000434B18683844C56006EB0113B3F85830BE
:102B3000D31A4360A7E730F8024B4EF8044B08F174
:102B4000010806EB0114B4F858400134B8EB540FF7
:102B5000F1D304E030F8024B43F8044B013506EBA7
:102B60000114B4F858E0A2EB0E040134B5EB540F95
:102B7000F0D32F4B18683844C0F804E006EB01137B
:102B8000B3F85830D31AC3607DE715F0400511D073
:102B9000274B1B6803EB01139B6803F1005303F5FC
:102BA00040535B00D2B9DDB1214B1B6803EB01132D
:102BB000DA6068E70B011E4C2468E35803F1005308
:102BC00003F540535B00EDE730F8026B43F8046B0C
:102BD0000134561CB4EB560FF6D3E4E70024F8E7B3
:102BE000134B1B6803EB01135A604CE7104B1B6837
:102BF00003EB01139B6803F1005303F540535B00A3
:102C000036E730F8024B43F8044B0EF1010E541C2A
:102C1000BEEB540FF5D32EE74FF0000EF7E7044B51
:102C20001B6803EB0113DA602DE700BF441000209E
:102C300078020020844672B9214B1B6803EB011314
:102C4000D868C0F309009B6803F1005303F54053B3
:102C50005B0000222DE0012A30D101F1805303F501
:102C6000B8539B001B6813F4804F0ED00A01144B1D
:102C70001B6803EB01114868C0F309009B5803F17E
:102C8000005303F540535B00E3E70D4B1B6803EB78
:102C90000113D868C0F309009B6803F1005303F5E2
:102CA00040535B00D5E753F8041B2CF8021B01329C
:102CB00092B2411CB2EB510FF5D370470020704720
:102CC00078020020064B5B681B7A012B00D070470E
:102CD000044AD2F8403C43F01003C2F8403CF6E707
:102CE0004410002000500040064BD3F8402C22F046
:102CF0000402C3F8402CD3F8402C22F00802C3F899
:102D0000402C704700500040034AD2F8403C43F04A
:102D10000C03C2F8403C704700500040012911D01C
:102D200079B900F1805000F5B8508000036823F4B1
:102D3000E04323F070039BB243F4404343F080032D
:102D40000360704700F1805000F5B85080000368C0
:102D500023F4E04323F070039BB243F4004343F0B9
:102D6000C00303607047000000F1805303F5B853BF
:102D70009B001B6813F4804F07D0084B1B6803EBC4
:102D800000135868C0F309007047044B1B6803EB3D
:102D90000013D868C0F30900704700BF7802002014
:102DA00008B58378DBB2C37004238370C37923B181
:102DB000D0F8D0301B69984708BD03238371FBE727
:102DC0002DE9F04782B0934B5E68934BD3F8443CB7
:102DD0009BB2ADF80630BDF8065005F00F0505F1C1
:102DE000805303F5B8539B001B68FCE0236823F075
:102DF00070031B051B0D43F0800323602846FFF77B
:102E0000B3FF8046AB1C1A0106EB03135B88034437
:102E1000B25A934204DA06EB05131B8B834242D06D
:102E2000D6F8D0305B6B06EB071901222946D9F89A
:102E30001C009847D9F81C304344C9F81C30BA1C10
:102E4000110106EB0212538843449BB25380725A1D
:102E5000934204D2B9F81830434540F2B480236855
:102E600003F4C063B3F5806F22D0236823F480435A
:102E700023F070039BB283F4005343F4004343F008
:102E80008003236001212846FFF748FF07EB47072F
:102E900006EB8707D7F89C30002B00F0948029467A
:102EA000304698478FE001212846FFF737FFB7E704
:102EB00023689BB223F4804323F0700343F4004360
:102EC00043F080032360DDE72F46236813F0800F73
:102ED00079D023689BB223F4E14323F070036FEAB7
:102EE00043436FEA53439BB2236000212846FFF718
:102EF00015FFAA1D06EB02129388013B9BB293803B
:102F000053BB236803F4C063B3F5806F18D0236804
:102F100023F4E04323F040039BB283F0200343F407
:102F2000004343F08003236007EB470706EB870766
:102F3000D7F8A030002B46D029463046984742E0CB
:102F400023689BB223F4E04323F0400343F400439F
:102F500043F080032360E7E7012B34D906EB051823
:102F6000B8F8584006374FEA071906EB071736F846
:102F700009309C4228BF1C46D6F8D030D3F830A088
:102F8000002322462946D8F85C00D047D8F85C30A8
:102F90002344C8F85C3036F809301B1B26F809308A
:102FA0007C8010E0236803F4C063B3F5806F2DD1FB
:102FB000BDF8063013F0100F86D02F46236813F4A7
:102FC000004F7FF413AF144BD3F8443C9BB2ADF8E1
:102FD0000630BDF8065005F00F0505F1805303F5E6
:102FE000B8539B001B68BDF8063013F4004F0DD09A
:102FF00005F1805404F5B854A400236813F4C06F9D
:10300000D0D1236813F4807FD2D1CBE702B0BDE8E2
:10301000F08700BF441000200050004070B582B01F
:103020008C4BD3F8442C92B2ADF80620D3F8442C44
:1030300002F47F42ADF80420D3F8403CBDF80420F0
:1030400092B21340ADF80430834B5D68BDF8043094
:1030500013F4004F40F0AD80BDF8043013F4805FEE
:103060000DD07C4B6FF48052C3F8442CEB78DBB26C
:10307000AB706B7A1BB9D5F8D0305B699847BDF857
:10308000043013F4006F06D0724BD3F8403C13F0B9
:10309000100F00F0CA80BDF8043013F4007F0AD08E
:1030A0006C4B6FF40072C3F8442C6C4B1B6813B16B
:1030B0001B6828469847BDF8043013F4807F17D06A
:1030C000644B6FF48072C3F8442CAB7983B1013B3D
:1030D000DBB2AB7163B96B7A002B00F0AF805D4A55
:1030E000D2F8403C23F01003C2F8403C00236B723E
:1030F000BDF8043013F4806F09D0564B6FF4806232
:10310000C3F8442CD5F8D030DB692846984702B084
:1031100070BDD5F8D0305B6B05EB0416002221465C
:10312000F0699847F3690344F361A21C110105EBB0
:103130000212538803449BB253806A5A934202D2CC
:10314000338B83420AD904EB440305EB8303D3F8A2
:103150009C3073B32146284698472AE0D5F8D030F2
:103160009B6A21462846984723E004F1805303F5E3
:10317000B8539B001A6812F0800F1AD01A6892B2E6
:1031800022F4E14222F070026FEA42426FEA5242B8
:1031900092B21A60A31D1B01EB5A002B3DD104EB28
:1031A000440305EB8303D3F8A03013B1214628462E
:1031B0009847284BD3F8443C9AB2ADF8062013F454
:1031C000004F3FF449AFBDF8064004F00F04BDF8CE
:1031D000063013F0100FC8D004F1805303F5B85334
:1031E0009B001A6812F4004FE3D01A6822F07002B4
:1031F0001205120D42F080021A601B6813F4006F72
:1032000087D0002C83D104EB440305EB8303D3F870
:103210009830214628469847CBE705EB0412D26D3B
:1032200021462846FEF702FDC3E72846FFF7B8FD12
:10323000084B6FF40062C3F8442C2CE7054AD2F81F
:10324000403C43F01003C2F8403C0323AB71012320
:103250006B724DE700500040441000203C100020ED
:1032600044F61F63984205DD4EF65F23984203DD66
:10327000032070470120704702207047002313E0AD
:103280000B4A117819440B4880FB0120CA17C2EB86
:103290002012322000FB1212074951F82210074A6F
:1032A00042F823100133DBB2312BE9D9704700BF5C
:1032B000761000201F85EB510812002078100020A6
:1032C00010B40B4C20700B4801700B490A700B4C6A
:1032D0009C46BCE80F000FC4BCE80F000FC4DCF82C
:1032E00000302360064B32221A805DF8044B704791
:1032F0004E10002075100020741000205010002087
:103300004C1000200023037043608160C16003748F
:1033100043618361C361036243628362C362036387
:103320007047000010B482680D4C23780D4921F8D5
:103330002320C2680C4880FB02C0D217C2EBA01247
:1033400001EB83014A805A1C084B83FB02131B11BB
:10335000322101FB132323705DF8044B704700BF3B
:103360007610002008120020D34D62101F85EB510B
:103370002DE9F04184B004460D461746C8686368DD
:10338000002B3BD160602678002E44D06368642B0C
:1033900011DD64280FDD03EB4302824244DB002190
:1033A00000EB4002934200DC29B1042E03D066708A
:1033B00004232370A7602378042B37D000264F4BBB
:1033C000B3F90030002B15DDAA68C3F132044C4973
:1033D00021F82420EA684B4880FB0250D217C2EB48
:1033E000A01201EB84014A80013B1BB2434A1380C7
:1033F000002B70D0304604B0BDE8F08103EB4302EF
:10340000C3EB4213404981FB0021C217C2EBE1022A
:1034100013446360B7E7B7F57A7FEBD9FFF720FF76
:1034200020706070E760E5E70121B9E7A368FB1A47
:10343000B3F5967F4DD9FFF713FF8046012814D0CE
:103440006678012E1BD0022E28D0032E31D0002604
:10345000E368FB1A6278012A30D0022A35D0032AA9
:103460002FD1A26A1A44A2622BE061780129E7D029
:103470002B4602460220FFF723FF0226E8E7A8F1C9
:103480000203DBB2012BDED8E36A0133E3622B4691
:10349000424631460120FFF713FFD9E7B8F1030F89
:1034A000D3D12B46424631460320FFF709FF0326BE
:1034B000CEE7B8F1020FF4D00026C9E7226A1A4419
:1034C000226284F80080E76079E7626A1A446262E7
:1034D000F7E7002673E7FFF7D1FE32230393084A8C
:1034E00002920193094B0093094B0A4A12780A4948
:1034F00009780A48007800F0D9F87BE74C100020E2
:1035000040110020D34D6210676666667810002077
:103510005010002074100020751000204E10002064
:103520004FF0000C9C4562D2F0B583B01EE0002441
:103530008EF80240445D012C39D0022C44D0002486
:1035400010F805E00EEB8E0EA644294C34F81E4010
:10355000ADF804409DF8044044559DF80540347092
:103560000CF1010C5FFA8CFC9C453ED202EB0C0680
:10357000002402F80C4011F80C704FEACC0500EB67
:10358000CC0E9EF80140A742D1D09EF802400134F3
:10359000E4B28EF80240012CCCD900248EF802400F
:1035A00011F80C408EF80140DCB10124C8E7BEF8E8
:1035B00004700137BFB2AEF80470632FBDD9002488
:1035C000AEF804400324BBE7BEF806400134A4B2C1
:1035D000AEF806401D2C06D90024AEF8064004249F
:1035E000AEE70224ACE70024AAE703B0F0BD7047C1
:1035F0007CF5020808B5C0F30B0303B108BDFDF765
:103600000AFDFBE7F8B506460F4615460FE0F4B293
:10361000C4F58074A4B2AC4228BF2C462246394679
:103620003046FDF709FD264427442D1BADB2002D81
:10363000EDD1F8BD10B5084C084B1B686360A3685A
:103640000133A3600020FDF7E6FC10222146002094
:10365000FDF7F2FC10BD00BFD4120020D0120020F4
:1036600038B50F4C102221460020FDF701FD2268DD
:103670000C4B9A4204D10A4B5A680B4B1A6038BD66
:1036800023604FF4805363600025A560E560284601
:10369000FDF7C1FC102221462846FDF7CDFCEAE7E4
:1036A000D412002031474F4CD01200202DE9F04FAA
:1036B00089B083468A4691461E469DF84C809DF807
:1036C000547008EB0705AD000E35234B1B682B44E7
:1036D000B3F5000F03D9204B4FF480521A601E4CF3
:1036E0002068FFF787FF4EF60123ADF810302AF06F
:1036F000B9FCCDF812008DF816B08DF817A08DF832
:10370000189000238DF81930F368CDF81A300E2286
:1037100004A92068FFF776FF20680E3020604FEA8A
:10372000880632461299FFF76DFF2368F018206073
:10373000BE0032461499FFF765FF236833442360C7
:10374000FFF778FF20680E226946401BFDF790FCCA
:1037500009B0BDE8F08F00BFD0120020F0B593B0E3
:1037600000264FF4805514E0042205A92846FDF7F1
:103770007FFCBDF81420BDF916102148FEF7DAF8D9
:10378000043501202AF0C7FC0134A4B2632CEBD924
:1037900001361C4B1B68AB422FD91B4B9B68B342B5
:1037A0002BD90E2206A92846FDF762FCBDF8182089
:1037B0004EF601239A4220D19DF81E109DF81F005D
:1037C0009DF82070DDF822300AAC104A82FB03C25B
:1037D000DB17C3EBA2130393029701900091DDF86E
:1037E0001A300B4A202120462BF054F92146094873
:1037F000FEF7A0F80E350024C8E713B0F0BD00BFF7
:10380000BCF50208D0120020D4120020D34D621063
:10381000A4F50208B8F50208F0B589B005460E46D1
:103820002748FEF787F802202AF075FC2548FEF7A6
:1038300081F802202AF06FFC327DB5F82033D5F8EC
:10384000041B0791D5F8001B0691D5F8F41A0591D1
:10385000D5F8F01A0491D5F8FC1A0391D5F8F81AA6
:103860000291D5F8D01701910093D5F8B034013208
:1038700029681548FEF75EF802202AF04CFC012466
:1038800019E0327D04F5C87335F8130004F596731A
:1038900055F8233055F8241004F5FA7C55F82C70AF
:1038A0000197009001320948FEF744F802202AF0FF
:1038B00032FC013424B2C72CE3DD09B0F0BD00BFF7
:1038C000C8F5020800F602082CF6020850F60208B5
:1038D00070B506460024254604E00120FDF77AFE77
:1038E00005440134B4F5967FF7DB07EE905AF8EE05
:1038F000E77A337DDFED046A87EEA67A063306EBBE
:10390000830686ED007A70BD00009643054A137D5C
:103910000133DBB21375032B02D9134600221A754B
:10392000704700BFD80E002078B32DE9F8430D464C
:10393000144602FB00F0FCF75DFD16A3D3E900235B
:10394000FCF7FCFE06460F4604FB05F0FCF752FDB3
:1039500010A3D3E90023FCF7F1FE804689460C4C06
:1039600032463B46D4E90001FCF708FCC4E90001FB
:1039700042464B46D4E90201FCF700FCC4E90201CF
:10398000236901332361BDE8F8837047AFF30080FA
:10399000C00E00200000008074D2EA4170B50446D9
:1039A0000220FDF717FE60800120FDF713FE00B234
:1039B000208007EE900AF8EEE77A217D8B1D04EB5C
:1039C000830393ED007A77EEC77AFDEEE77A17EE80
:1039D000903A03EB830303EB83031B4A82FB03024E
:1039E000D817C0EBA20060606288C2EB421502EB00
:1039F0008502164DA5FB02525609A66002290AD07F
:103A000001291FD059B9114A82FB0312DB17C3EBFE
:103A10006213E36003E0642303FB00F0E060E56809
:103A20004FEAE57CA6FB05014FF47A72002306FB02
:103A30000C11FCF78BFF014620610A222846FFF794
:103A400073FF70BDE060EAE7676666661F85EB514D
:103A500030B4B1F9083B03EB8302520041F8232054
:103A6000826803F5C87421F81420C46803F5967CB5
:103A700041F82C40006903F5FA7C41F82C00D3B9D9
:103A800092B2C1F8F02AC1F8F42AC1F8F84AC1F894
:103A9000FC4AC1F8000BC1F8040B01331BB2A1F8BA
:103AA000083BC72B05DD0023A1F8083B012381F863
:103AB0000A3B30BC704792B2D1F8F05AAA4201DDFD
:103AC000C1F8F02AD1F8F45AAA4201DAC1F8F42A6E
:103AD000D1F8F82A944201DDC1F8F84AD1F8FC2A5D
:103AE000944201DAC1F8FC4AD1F8002B904201DD82
:103AF000C1F8000BD1F8042B9042CEDAC1F8040BC8
:103B0000CBE7000008B5074B186850B106F0F8FF86
:103B10000023044A1360044A1360044A1360044AF1
:103B2000136008BDF0120020EC120020E812002003
:103B3000E412002008B51BF03FFA00F025FF08BD95
:103B400070B504460D46164606F0ABFE32462946D1
:103B5000204606F0ADFE32462946204606F093FE8A
:103B600032462946204606F095FE70BD38B5FFF76F
:103B7000E1FF01F0E9FF3E4C20608722F02103F0D5
:103B8000A9F800221146206803F06CF84FF00001FC
:103B900021F0070121F0F80121F4F85121F46041EE
:103BA0000022206806F08BFE00221146206806F0F5
:103BB0009BFE002211462068FFF7C2FF206823F019
:103BC00047FD2C4D28602C4924F0F8F900224FF0D5
:103BD000FF31286806F08FFE0223052201212868A4
:103BE00003F0DEF8206816F033FC244C20606922D4
:103BF000E62103F06FF86FF0010300220521206831
:103C000003F0CEF84FF0000121F0070121F0F80198
:103C100021F4F85121F460410022206806F04FFEA3
:103C2000256812201CF008F901460022284606F0FB
:103C300054FE0121206817F01DFC0021206816F0B9
:103C400013FC6421206817F05AFC642300221146FB
:103C5000206817F08EFC246809201CF0EDF801465E
:103C60000022204617F0A8FC054B186038BD00BFA5
:103C7000F0120020EC12002064F60208E812002086
:103C8000E412002070B590B0184C246864B3184D4D
:103C9000A5FB004C4FEA9C1E4FF47A7404FB1E0EE9
:103CA00085FB0140CC17C4EBA01404AE0393A5FB25
:103CB00002518909029101940E49A1FB0E12D2080A
:103CC00000924FEA9C130C4A302130462AF0E2FE63
:103CD00031460A4B186824F071F922B2084B196872
:103CE000084B186817F0BAFC10B070BDF012002035
:103CF000D34D6210CDCCCCCC80F60208EC12002063
:103D0000E4120020E812002008B5054B186830B115
:103D100006F0F6FE0023024A1360024A136008BD53
:103D2000F8120020F412002008B51BF045F900F04D
:103D30002BFE08BD70B504460D46164606F0B1FDD3
:103D400032462946204606F0B3FD32462946204633
:103D500006F099FD32462946204606F09BFD70BDCF
:103D600010B5FFF7E1FF01F0EFFE1C4C2060872249
:103D7000F02102F0AFFF00221146206802F072FF2E
:103D80004FF0000121F0070121F0F80121F4F85172
:103D900021F460410022206806F091FD00221146C6
:103DA000206806F0A1FD002211462068FFF7C2FF3F
:103DB000206823F04DFC0A4C20600A4924F0FEF8EC
:103DC00000224FF0FF31206806F095FD0223052206
:103DD0000121206802F0E4FF10BD00BFF8120020AE
:103DE000F4120020A8F60208264B1B68002B48D0CE
:103DF0002DE9F043A7B059EC108B57EC116B04463A
:103E000040464946FCF782FD0546FCF7F3FA0246B8
:103E10000B4640464946FCF7AFF900221A4BFCF727
:103E200063FBFCF773FD804630463946FCF76EFDB8
:103E30008146FCF7DFFA02460B4630463946FCF76E
:103E40009BF90022104BFCF74FFBFCF75FFD0F4A7C
:103E5000A2FB0432520906AE049203940290CDF8FC
:103E60000490CDF800802B46094A802130462AF084
:103E700011FE3146074B186824F0A0F827B0BDE8C2
:103E8000F0837047F812002000408F401F85EB51EF
:103E9000E4F60208F4120020002103E00B4B5B580B
:103EA000435004310A480B4B42189A42F6D30A4A4F
:103EB00002E0002342F8043B084B9A42F9D300F099
:103EC00093F82AF08DFEFDF7ABFA704754400308D3
:103ED00000000020800300208003002044E4002034
:103EE000FEE782B00023019302E0019B01330193BE
:103EF00000EB8003019AB2EB430FF6D302B0704798
:103F0000354A136843F48033136000230133324A87
:103F1000126812F4003F03D14FF6FF729342F5D1BD
:103F20002D4B1B6813F4003F00D1FEE782B02A4BF3
:103F3000DA6942F08052DA6128490A6842F4404264
:103F40000A605A685A605A685A605A6842F4806235
:103F50005A605A6822F440325A605A6842F4403239
:103F60005A605A6822F0904222F470125A605A68DD
:103F700042F450125A601A6842F080721A60164B6E
:103F80001B6813F0007FFAD0144A136843F480339F
:103F90001360124B5B6813F4803FFAD00F4A13682A
:103FA00043F4003313600D4B5B6813F4003FFAD009
:103FB000094A53680193019B23F003030193019B7A
:103FC00043F002030193019B5360034B5B6813F0C2
:103FD000080FFAD002B07047001002400070004095
:103FE00008B5FFF78DFF08BD10B582B04A4AD2F878
:103FF000883043F47003C2F88830484A136843F0AD
:1040000001031360454B1B6813F0020FFAD0434BBA
:104010005B6803F00C03082B1BD0404C636823F053
:1040200003036360C820FFF75CFF236823F08473F9
:1040300023F4803323604FF41F03A360236823F429
:104040008023236000236360E362FFF7C9FF02B0AF
:1040500010BD0023009302E0009B01330093009BFE
:104060004F2BF9D92D4A53680193019B23F0F0039C
:104070000193019B43F080030193019B5360002354
:10408000009302E0009B01330093009B4F2BF9D972
:10409000224A53680193019B23F0F0030193019B93
:1040A00043F090030193019B53600023009302E0CF
:1040B000009B01330093009B4F2BF9D9174A53689B
:1040C0000193019B23F0F0030193019B43F0A003B4
:1040D0000193019B53600023009302E0009B013396
:1040E0000093009B4F2BF9D90C4A53680193019B15
:1040F00023F0F0030193019B43F0B0030193019B74
:1041000053600023009302E0009B01330093009B67
:104110004F2BF9D981E700BF00ED00E0001002400D
:1041200084B02E4B0FCB0DF1100C0CE90F002C4B73
:104130005B68C3F38103012B14D0022B16D0002B34
:1041400048D1284B284A1A60254B5B68C3F30313F8
:1041500010336B4413F8101C224A1368CB401360D1
:1041600004B070471F4B214A1A60EDE71C4B5B6897
:1041700013F4803F0ED01A4BDB6A13F0804F07D147
:104180001A49174B5B6813F4003F04D0490802E05A
:104190001749F6E71749124A5368C3F38343526835
:1041A00012F0006F01D043F010030D4A526812F074
:1041B000804F09D043F0200301333D2B08D801FB89
:1041C00003F3084A1360BFE70E2BF5D80233F6E776
:1041D0003F23F4E7034B044A1A60B5E7CCF4020826
:1041E000001002409402002000127A000024F40023
:1041F000006CDC0200093D000346094A10680344D4
:10420000084A934205D3084A934205D8044A1360EA
:1042100070474FF0FF3070474FF0FF30704700BFDE
:104220009802002044E4002048E80020830903F1BC
:10423000804303F504331A6800F01F000121814018
:104240000A431A6070470000034A536823F440038E
:1042500003435360704700BF0010024010B588B0A0
:1042600084463D4C94E80F000DF1200E0EE90F003E
:1042700002AB103494E8030083E80300CDE90001A9
:10428000364B5B68C3F38103012B35D0022B57D12A
:10429000324B5B6813F4803F0ED0304BDB6A13F077
:1042A000804F07D12E4A2D4B5B6813F4003F04D09A
:1042B000520802E02B4AF6E72B4A284B5868C0F315
:1042C00083405B6813F0006F01D040F01000234B77
:1042D0005B6813F0804F09D040F02000A0F10F037D
:1042E0002F2B07D8013002FB00F006E00E28F5D88E
:1042F0000230F8E73F20F6E7194818494B68C3F346
:10430000031320336B4413F8102C20FA02F24B688D
:10431000C3F3022320336B4413F8183C22FA03F44E
:104320004B68C3F3C22320336B4413F8203C22FABA
:1043300003F3BCF1030F05D8DFE80CF00706090B07
:104340000A48DAE7002000E0104608B010BD204619
:10435000FBE71846F9E700BFDCF402080010024052
:104360000024F400006CDC0200093D0000127A0019
:1043700070B501F00F0E11F0100F03D0042A03D016
:104380004EEA020E002209E04EF0030EC26B1A4301
:10439000C263F7E744610560013292B2072A14D87C
:1043A000012494401C40F7D0066895004FF00F0C94
:1043B0000CFA05FC26EA0C060EFA05F53543282909
:1043C000E8D04829E7D10461E5E7082203E0446129
:1043D0004560013292B20F2A1AD84FF0010C0CFA44
:1043E00002FC1CEA0304F4D04568A2F1080C4FEA71
:1043F0008C0C0F2606FA0CF625EA06050EFA0CFCC4
:104400004CEA05052829E2D04829E1D10461DFE71B
:1044100070BD016170474161704783680B4201D0F4
:1044200001207047002070470023036043608360D1
:10443000C3604361836103617047026802F44152C3
:104440000B681A434B681A438B681A43CB681A43AC
:104450000B691A434B691A438B6913430360C369A1
:1044600023F40063C3617047036843F040030360B3
:104470007047036823F0400303607047036843F408
:1044800080730360704721B9436843F002034360BF
:104490007047436843F001034360704721B94368A4
:1044A00023F0020343607047436823F00103436035
:1044B0007047C1607047C06880B2704783680B4224
:1044C00001D00120704700207047000001B9FEE7CD
:1044D00070B5044616460D460220FFF7BFFE404B5E
:1044E000A3FB00239B0C3F4A904219D21A466168F5
:1044F00021F07F01114361603B498D4219D801339E
:104500003B2B0FD93C2323626B00B0FBF3F3032B4F
:1045100000D80423E269C3F30B031343E36170BDC6
:104520003C22E4E7022B02D802232362ECE7236259
:10453000EAE72E4B9D422AD84FF4967302FB03F311
:104540002B4AA2FB03239B0901332362A6B905EB87
:104550004505B0FBF5F3E26922F48042E261C3F362
:104560000B020AB943F00103E26942F40042E2613E
:10457000E2691343E361D2E705EB850505EB8505A9
:10458000B0FBF5F3E26942F48042E261E7E7C2EB97
:104590000213DB00164AA2FB03239B0901332362AB
:1045A00096B905EB4505B0FBF5F0E36923F48043CC
:1045B000E361E36943F40043E361E3690343E361D7
:1045C0000123C4F89030AAE705EB850505EB8505C6
:1045D000B0FBF5F0E36943F48043E361E9E700BF32
:1045E00083DE1B4300879303A0860100801A060028
:1045F000D34D621010B4046824F0020C4CEA01019F
:104600000160C3F30903134383605DF8044B7047F3
:10461000036823F480630B430360704712F1020FB9
:1046200003D041F001010161704721F00101FAE777
:10463000036843F0010303607047036843F4807329
:1046400003607047036843F40073036070470161BF
:1046500070470069C0B270478B091B5801F01F01F9
:10466000CB4013F0010F01D00120704700207047AC
:1046700040F2015399420CD04FEA911C5CF8003093
:1046800001F01F0101228A4023EA02034CF80030A6
:104690007047436983697047002808DB0901C9B284
:1046A00000F1604000F5614080F80013704700F0B1
:1046B0000F000901C9B2014B1954704714ED00E015
:1046C00000B500F00700C0F1070CBCF1040F28BFD3
:1046D0004FF0040C031D062B0ED9C31E4FF0FF3EF6
:1046E0000EFA0CF021EA000199400EFA03FE22EACC
:1046F0000E0241EA020000BD0023EFE740F0BF6078
:1047000040F40030014BD860704700BF00ED00E07E
:1047100070B504460D461646174BDB6803F4E0639C
:10472000B3F5A06F0AD020D8B3F5407F06D0B3F51B
:10473000806F03D04FF4A060FFF7E0FF0E4BD86806
:1047400032462946C0F30220FFF7BAFF0146204651
:10475000FFF7A2FF002C07DB04F01F02640901230E
:104760009340064A42F8243070BDB3F5C06FE5D0DF
:10477000B3F5E06FDED1E1E700ED00E000E100E03D
:10478000054B984201D001207047042901D801202F
:1047900070470020704700BF0004024038B505464E
:1047A0000C46FFF7EDFF00B9FEE7A10004EB84041F
:1047B00005EB84039A6822F001029A6000229A6055
:1047C000DA601A615A616B680F228A4013436B608A
:1047D00038BD50B100220260426002768260C26041
:1047E00042760261827642617047FEE770B5064606
:1047F0000C461546FFF7C4FF00B9FEE704EB840141
:1048000006EB81032A681A61AA685A612A8ADA606B
:104810009A6822F47C526968E86801436869014338
:10482000114399602A7E012A11D09A6822F0400231
:104830009A606A7E012A0FD09A6822F080029A60FC
:10484000AA7E72B99A6822F010029A6070BD9A68C6
:1048500042F040029A60ECE79A6842F080029A6067
:10486000EEE79A6842F010029A60EFE738B5044626
:104870000D46FFF785FF00B9FEE705EB850104EB68
:104880008100836843F00103836038BD38B5044676
:104890000D46FFF775FF00B9FEE705EB850104EB58
:1048A0008100836823F00103836038BD70B505463D
:1048B0000C461646FFF764FF00B9FEE704EB8401DF
:1048C00005EB8100466170BD70B505460C46164685
:1048D000FFF756FF00B9FEE704EB840105EB81000A
:1048E000B6B2C66070BD436889008A401343436016
:1048F0007047042A13D0082A1ED0022A29D1D0F8E2
:1049000000C08B009A400CEA02020B4400EB8303C8
:104910009B6803F00203EAB1F3B900207047D0F8B6
:1049200000C08B009A400CEA02020B4400EB8303A8
:104930009B6803F00403EEE7D0F800C08B009A40B8
:104940000CEA02020B4400EB8300836803F00803C7
:10495000E1E7FEE7002070470120704743688900C7
:104960008A4013434360704770B504460D461646AF
:10497000FFF706FF00B9FEE705EB850104EB8100B8
:1049800083683343836070BD08B5034608B1186976
:1049900008BD1AF011FB03460028F8D1F8E708B566
:1049A000034608B1586908BD1AF006FB0346002803
:1049B000F8D1F8E708B5034608B1D86908BD1AF080
:1049C000FBFA03460028F8D1F8E708B5034608B11A
:1049D000186A08BD1AF0F0FA03460028F8D1F8E783
:1049E00008B5034608B1986808BD1AF0E5FA034611
:1049F000F9E708B5034630B1D3F854010028D4BF15
:104A00000020012008BD1AF0D7FA03460028F3D190
:104A10000020F7E7806858B1837E03F03F038B42A4
:104A200005D9C06801EB410100EB8100704700200F
:104A300070470000037E13F0040F1ED110B504462A
:104A4000037A233B012B01D8012010BD4FF4804194
:104A5000406801F0DFF80028F7D0237A113BDBB281
:104A60001B2B94BF0021012149B9064A22FA03F306
:104A700013F0010FE9D00846E7E700207047084629
:104A8000E3E700BFFF270F0B10B50C4608B1006825
:104A900003E04B68186800E0006810B10369002B60
:104AA000FAD060B1036963B10023E3600369214672
:104AB0009847237E13F0010F05D1012010BD01207E
:104AC000FCE70120FAE70020F8E7F8B5064600F019
:104AD00001FB58B1006883680BB1317A9847337E87
:104AE00013F0020774D113F0010F5BD1002170683D
:104AF000FFF790FF0446002511E06368F360236828
:104B000030469847337E13F0020763D113F0010F4C
:104B100048D1013529467068FFF77CFF04467CB117
:104B20002368002BF5D0237A94F90820002AF0DAC4
:104B3000802BE2D023F08003327A9342E9D1DCE784
:104B400031460020FFF7A0FF074620B10021706822
:104B5000FFF760FF0446002511E06368F3602368F7
:104B600030469847337E13F002021BD113F0010F39
:104B700032D1013529467068FFF74CFF04467CB1FD
:104B8000012F0DD12368002BF3D0227A94F908303D
:104B9000002BEEDB002AE0D0337A9A42E9D1DCE741
:104BA000012F01D03846F8BD73685B68002BF9D03F
:104BB0003046FFF73FFF0028F4D073685B687360EE
:104BC0003046FFF782FF07460128EBD00027E9E7D0
:104BD0000127E7E70127E5E71746E3E718B310B534
:104BE00088B0019002908DF80C1000230493059278
:104BF0009DF81C2063F300028DF81C20D2B263F3F1
:104C000082028DF81C20D2B263F341028DF81C2081
:104C1000064C2368069301A82060FFF756FF069B09
:104C2000236008B010BD0120704700BFFC120020B7
:104C30000068704740687047007A00F07F00704756
:104C400000697047C0687047084B1B6804E01A7E13
:104C500042F001021A765B6933B15A688242F6D09B
:104C60001A688242F7D1F2E7704700BFFC120020B9
:104C70002DE9F04104460F4616461D4601F050FA54
:104C8000A1688B7E03F03F02013262F305038B764D
:104C9000D4F8088098F81A1001F03F0101EB4101A7
:104CA0008900D8F80C001BF035FDC8F80C00A3688B
:104CB000DA684AB39B7E03F03F0303EB43039B0098
:104CC0000C3BD750A368DA68997E01F03F0101EBF5
:104CD00041039B000C3B13441E72A268D368927E72
:104CE00002F03F0202EB420292000C3A13445D6074
:104CF000A368D8689B7E03F03F0303EB43039B004C
:104D00000C3B1844BDE8F081FEE708B5037A013B8F
:104D1000DBB20F2B02D8FFF793FF08BD0020FCE7A2
:104D200008B5027AA2F11403DBB2022B05D9182AC6
:104D300003D0172A01D0192A02D1FFF781FF08BD3D
:104D40000020FCE7037A132B00D0704710B50C4607
:104D5000FFF776FFB0F90030A342B8BF23460380C7
:104D600010BDF8B5054600201AF084F90446002667
:104D7000374605E02646274620461AF07BF90446CA
:104D80005CB1204600F0ACF9636DAB42F4D102286F
:104D90000ED00428EED02646EEE70FB13846F8BD17
:104DA0000EB13746FAE700201AF064F90746F5E736
:104DB0002746F3E72DE9F047037F13F0010F6ED18B
:104DC00006468A469146C5684FF001080027E5B1BE
:104DD000012357B32BB129463046C84705468742C1
:104DE00068D0002DF3D0286800F020FF10F0800F6D
:104DF000EDD12C681CB30121204600F00BFFC0B997
:104E0000204605F094FD0446F4E7337F13F0080FC5
:104E100001D1002F48D1B8F1000F42D03046D04721
:104E200005464FF000084346D3E7002D3FD02F46FC
:104E3000D0E70121204600F0EDFE0028C7D1F3683D
:104E4000AB423AD08BB11C683046FFF78AFF02466E
:104E50000F212046FFF7C2FE012802D04FF00008C4
:104E60001FE0F368186802F0E3FBF5602C68304639
:104E7000FFF777FF02460E212046FFF7AFFE01281D
:104E800002D04FF000080CE0F368186802F0D0FB85
:104E90003369ABB1304698474FF0010801E04FF05D
:104EA00000084046BDE8F0874FF00008F9E74FF0F2
:104EB0000008F6E74FF00008F3E74FF00008F0E7CE
:104EC0004FF00108EDE7000008B5202101481BF074
:104ED000D7F908BDD8160020014B1868704700BFED
:104EE0000013002010B50446054A0649FFF762FF8B
:104EF00063691BB110B901212046984710BD00BF5E
:104F00001D0302080D03020810B50446054A0649B0
:104F1000FFF750FF63691BB110B900212046984785
:104F200010BD00BF250302081503020838B504466A
:104F3000037FC3F3C00543F008030377DBB213F02C
:104F4000040F06D1FFF7CEFF237F65F3C30323775A
:104F500038BDFFF7D9FFF7E770B5064600F06EFEE3
:104F6000002849D00546C36813B11B68B34213D06B
:104F7000EB6813B11B68B34230D028461BF0C6F96A
:104F80000446002C38D02368B3422AD02146284654
:104F90001BF0C4F90446F4E7037F13F0010F03D0BC
:104FA000037F23F00103037728461BF0AFF9EB687A
:104FB000834203D02846FFF7B9FFD9E728461BF004
:104FC000A9F9EB688342F5D11C682846FFF7C9FEB2
:104FD00002460F212046FFF701FEC9E70023EB60E0
:104FE000CBE7214628461BF0D3F920461BF076FB81
:104FF000B3680BB100229A6070BD002839D070B53B
:105000000C4605460846FFF7A7FF28461BF07EF929
:10501000014639B10B68A3421ED028461BF07EF929
:105020000146F6E7204600F009FE30B1A3689B6810
:105030001BB1DB681B68A3420FD0A36883B1A368D0
:105040009D6028461BF043F9064668B10460284677
:105050001BF05CF9864208D070BDFFF767FFECE7F4
:10506000204601F05DF8EAE7FEE72846FFF75EFF1D
:10507000F2E7704718B1C06808B100687047704720
:10508000F8B170B50446037FC3F340038B4213D0DD
:10509000037F61F341030377FFF7ECFF054658B147
:1050A000E3681E682046FFF75CFE02460E2130468C
:1050B000FFF794FD012800D070BD284602F0B8FA31
:1050C000FAE7704718B1007FC0F340007047002036
:1050D00070470000014B1868704700BF081300209C
:1050E00010B10368187870470020704710B50C465F
:1050F00048B30246437943F002034371284B1B68CF
:10510000834206D013681B78013BDBB2012B04D924
:1051100010BD244B00211960F4E734B1536BA34256
:105120000ED0936AA34204D101E00023536300230D
:10513000936214B1D36AA342EAD10023D362E7E7B2
:1051400000235363EDE7002019F094FF06E00023ED
:10515000436383620023C36219F08CFFD8B14379A3
:1051600043F00203437103681B78013BDBB2012B60
:10517000F2D8002CEBD0436BA34206D0836AA34243
:1051800006D0C36AA342E7D1E4E700234363F5E70F
:1051900000238362F5E7034B00221A60B8E700BFE3
:1051A000081300200413002010B50446437923F0AF
:1051B0000103437119F078FFE06419F075FFA064F2
:1051C00010BD034650B102681278012A0AD0032AA2
:1051D00008D04FF6FF730B804B80704700230B8085
:1051E0004B807047B3F908200A80B3F90A304B802E
:1051F0007047034650B102681278012A01D0032A91
:1052000006D193F8440000F00F007047002070476B
:1052100000207047034638B102681278012A01D095
:10522000032A02D1186B7047704700207047002393
:105230000B804B80034658B102681278012A01D0D6
:10524000032A05D1B3F918200A80B3F91A304B802C
:10525000704718B1437943F0080343717047000069
:10526000014B1868704700BF041300200246E0B1EC
:10527000032907D00C291AD1B0F926301268517EC3
:1052800000200FE0B0F92430F8E7184400B2C1F173
:10529000640202FB03F3074A82FB03C2DB17C3EB82
:1052A00062131BB2002BF0D1704700207047002022
:1052B000704700BF1F85EB5138B505460C460846C0
:1052C00009F092F921224FF48031284604F0D8FDEC
:1052D000C0B2E07002283BD831224FF4803128461A
:1052E00004F0CEFDC0B284F82200022838D845224E
:1052F0004FF48031284604F0C3FDC0B284F8360074
:10530000022843D84FF48031284605F059FAFC288A
:105310000DD8E37800FB03F31B12E370DBB200FB54
:1053200003F3C3F3072384F8223084F83630E3789C
:105330002BB994F8223013B994F8360038B10B2207
:105340004FF48031284604F09BFD2080012038BDB9
:1053500020224FF48031284604F092FDA080BBE764
:1053600032224FF48031284604F08AFD00B22084B6
:10537000002803DC002384F82230B8E730224FF401
:105380008031284604F07CFDE083B0E740224FF4F2
:105390008031284604F074FD00B2E085002803DC6B
:1053A000002384F83630ADE743224FF4803128469D
:1053B00004F066FDA08644224FF48031284604F0B4
:1053C0005FFDA0859EE70000F0B5A5B004460E463F
:1053D00022AD20AA294603F08FFD28461AF0BFF817
:1053E00018B920A81AF0BBF828B112A92046FFF777
:1053F00063FF012801D025B0F0BD3146684601F0B9
:105400002EFB1B4B01930223029312AB04934FF428
:1054100080330D9322A81AF0A2F8B8B920A81AF088
:105420009EF80028E7D020AD03956A461A21204651
:10543000FFF7D4FB03952A4612A9304609F016F966
:105440006A461B212046FFF7C9FBD4E722AF03972A
:105450006A461A212046FFF7C1FB3A4612A9304698
:1054600009F004F96A461B212046FFF7B7FBD5E790
:1054700020FD02082DE9F043A3B00646FFF7DCFB50
:1054800005463046FFF7D4FB0446122D07D0152DF4
:105490006AD0182D00F0FE8023B0BDE8F0833046BE
:1054A000FFF7CEFB05460378022BF5D0172200212B
:1054B000204604F0E5FC10B102232B70ECE70B2230
:1054C0000021204604F0DCFC07B2692200212046BE
:1054D00004F0D6FC06466A220021204604F0D0FCE7
:1054E000B4F91410ADF84010B4F91630ADF84230EC
:1054F000B4F918C0ADF844C0B4F91A20ADF846208C
:1055000089B2B6B2891BADF8401016FA8CFCADF822
:1055100044C09BB280B21B1AADF8423010FA82F23E
:10552000ADF846203A4610A968681AF078F910B923
:1055300001232B70B0E721220021204604F0A0FCBB
:10554000C0B2FC2802D801232B70A5E760220021FD
:10555000204604F095FCC3B2FC2B02D900232B702B
:105560009AE701232B7097E73046FFF7D9FB0646F1
:1055700002A809F039F834220021204604F080FC0A
:1055800028B19DF82B3043F001038DF82B3002AF8A
:105590003A460021204600F05DFF692200212046A6
:1055A00004F06EFC05466A220021204604F068FCE7
:1055B000B4F91420ADF80020B4F91630ADF802307B
:1055C000B4F918C0ADF804C0B4F91A10ADF806105B
:1055D00092B2ADB2521BADF8002015FA8CFCADF8BA
:1055E00004C09BB280B21B1AADF8023010FA81F1F0
:1055F000ADF806100DF140083146404601F02FFA93
:10560000654B1193002512951497CDF84CD01D953C
:1056100042461A212046FFF7E1FA17222946204682
:1056200004F02EFC30B1BDF908301BB1069F069581
:10563000012501E0069F00256A4602A9304609F0CF
:1056400015F82DB910AA1B212046FFF7C7FA23E74A
:1056500018201BF077F805460023BDF9082004F157
:10566000140108F015FF04F59071284608F0EAFCD3
:10567000002FE7D000238DF80B308DF82A308DF8FD
:1056800032308DF83E3006976A4602A9304608F05F
:10569000EDFFD7E73046FFF743FB054601462046BE
:1056A000FFF792FE17220021204604F0E9FB0028B4
:1056B00065D134220021204604F0E2FB00283FF4AB
:1056C000EBAE0DF10808404608F08EFF00268DF87D
:1056D0000B608DF822608DF832608DF83E60424696
:1056E0003146204600F0B6FE69223146204604F0DD
:1056F000C7FB07466A223146204604F0C1FBB4F9D5
:105700001420ADF80020B4F91630ADF80230B4F929
:1057100018C0ADF804C0B4F91A10ADF8061092B272
:10572000BFB2D21BADF8002017FA8CFCADF804C054
:105730009BB280B21B1AADF8023010FA81F1ADF8BD
:10574000061010AF2946384601F089F9124B119323
:1057500001231293CDF85080CDF84CD01D963A46D7
:105760001A212046FFF73AFA6A464146284608F0D1
:105770007DFF3A461B212046FFF730FA8CE604F500
:10578000907008F0B5FC0646002892D008F0CAFCDC
:1057900030461BF039F88CE720FD02082DE9F04176
:1057A0000C464D6825B3284602F054FF06462846AD
:1057B00002F0F0FE0746B5F81680102200212846B8
:1057C00004F05EFB18FA80F39BB2DB1B9AB2E38213
:1057D000531E6383AF8A12220021284604F050FB37
:1057E00017FA80F39BB2981B83B2A082013B2383FC
:1057F0000223E36141F20203E3612DB143F20203AC
:10580000E36143F20233E361E36943F00402E261DE
:1058100043F01402E26143F03402E26143F07402A7
:10582000E26143F4076242F00402E26125B143F40D
:10583000084343F07403E361BDE8F08138B5844662
:10584000144683884FF6FF72934219D0C07948B34B
:10585000012842D9DCF80050864605EB800C002375
:1058600026E012F4004F4DD112F4804F04D1DEF83F
:1058700004302360012015E01BF09AFE2060F9E758
:1058800000239CF807209A420BD9DCF8000000EBBB
:10589000C30E30F83320C2F30D008142E1D0013352
:1058A000EFE7002038BD1BF083FE206011E00133DC
:1058B0009E4510D93CF81320C2F30D008142F6D169
:1058C00012F4004F20D112F4804FECD155F8233060
:1058D00023600120E6E70020E4E7C3F30D008142E6
:1058E00001D00020DEE713F4004F0FD113F4804FF6
:1058F00004D1DCF8003023600120D3E71BF058FE10
:105900002060F9E70220CDE70220CBE70220C9E7BB
:105910002DE9F04F8FB00591078C8F4208D00446D7
:105920000D4601840A46394604F0DFF8064610B9F0
:105930000FB0BDE8F08F4FF420701AF003FF8346DC
:105940004FF420711BF052F84FF00009CA46079738
:10595000089627464C46A94654E00134A74218D978
:1059600004EB84050BEB85056E68304604F0BBF84C
:105970000290304604F0ECF92A89D8F8003033F868
:1059800009309A42E9D18245E7D1039B029A9342BA
:10599000E3D8049DA7420CD00135D8F800304FEA77
:1059A000450933F815303BB31F2F1FD80024049549
:1059B000D4E7D8F80C1007EB87000BEB80032BF82B
:1059C0002010D8F810105980D8F80810D960D8F8ED
:1059D000001031F809101981D8F804101961069ADD
:1059E0005168C1F3170159600137D5E7BA46099CE0
:1059F0000A9FDDF82C9004E0BA46099C0A9FDDF866
:105A00002C9001347B8CC3F30513A3425CD9BAF10B
:105A10001F0F2FD8FE684FEAC40806EBC40568685C
:105A200020F07F4004F05FF80390FB68434458681F
:105A300020F07F4004F08CF90290039B33EA0903C5
:105A4000DFD1EB7913F0020FDBD10DAA672156F8F5
:105A50003400FFF7F3FE0128D3D1DDF834800026AF
:105A60000994069535460A975746DDF808A0CDF803
:105A70002C9092E7089E3C46079F0025B846DDF82B
:105A800014900EE005EB85070BEB8707786804F0B0
:105A90005FF9014600974B464246204604F066FAFD
:105AA0000135AA45EED858461AF0AEFE012E13D0A5
:105AB000032E15D0022E7FF43BAF204601F0B8FD37
:105AC000204600F0DBFF33E7089E3C46079F002599
:105AD000B846DDF81490E4E7204601F0A9FD27E779
