:020000040800F2
:10000000D02A012079570008C1570008C1570008BD
:10001000C1570008C1570008C15700080000000080
:10002000000000000000000000000000619C0008CB
:10003000C157000800000000899D000811A20008B7
:10004000C1570008C1570008C1570008C157000830
:10005000C1570008C1570008290A0008C157000805
:10006000C1570008C1570008C1570008C157000810
:10007000C1570008650A0008C1570008C1570008A9
:10008000C1570008C1570008C15700088D09000872
:1000900081090008C1570008C1570008C15700086E
:1000A000C1570008C1570008C1570008C1570008D0
:1000B000C1570008C1570008C1570008C1570008C0
:1000C000C1570008C1570008C1570008C1570008B0
:1000D000C1570008C1570008C1570008C1570008A0
:1000E00099090008C1570008C1570008C157000806
:1000F000C1570008C1570008C1570008C157000880
:10010000C1570008C1570008C1570008C15700086F
:10011000C1570008C1570008C1570008C15700085F
:10012000C1570008C1570008C1570008C15700084F
:1001300010B5054C237833B9044B13B10448AFF321
:1001400000800123237010BD140300200000000074
:100150000CBC000808B5034B1BB103490348AFF3BF
:10016000008008BD00000000180300200CBC00083F
:100170007BB972B90029BEBF00204FF0004106E0F4
:1001800008BF00281CBF6FF000414FF0FF3000F0A7
:10019000D3B9ADF1080C6DE904CE002909DB002BC1
:1001A0001ADB00F04DF8DDF804E0DDE9022304B0CD
:1001B0007047404261EB4101002B1BDB00F040F82F
:1001C000DDF804E0DDE9022304B0404261EB4101C7
:1001D000524263EB43037047524263EB430300F028
:1001E0002FF8DDF804E0DDE9022304B0404261EBC2
:1001F00041017047524263EB430300F021F8DDF800
:1002000004E0DDE9022304B0524263EB430370478C
:1002100053B94AB9002908BF00281CBF4FF0FF316D
:100220004FF0FF3000F088B9ADF1080C6DE904CE55
:1002300000F006F8DDF804E0DDE9022304B07047C1
:100240002DE9F047089D0F4604468C46002B48D107
:100250008A42164661D9B2FA82F34BB1C3F1200249
:1002600001FA03FC20FA02F29E4042EA0C0C9C4088
:100270004FEA164EB7B2BCFBFEF1220C0EFB11CCBE
:1002800042EA0C4201FB07F0904209D9B21801F191
:10029000FF3C80F0EE80904240F2EB800239324425
:1002A000121AA4B2B2FBFEF00EFB102244EA024482
:1002B00000FB07F7A74209D9341900F1FF3280F09B
:1002C000DA80A74240F2D7803444023840EA014045
:1002D000E41B00211DB1DC400023C5E90043BDE85B
:1002E000F0878B4206D90DB1C5E90001002108460F
:1002F000BDE8F087B3FA83F1002948D1BB4202D3AD
:10030000824200F20781841A67EB030201209446BF
:10031000002DE4D0C5E9004CE1E7002A00F092800E
:10032000B2FA82F3002B40F0A8808A1A4FEA164EE8
:100330001FFA86FC0121200CB2FBFEF70EFB1722F0
:1003400040EA02420CFB07F0904207D9B21807F1CD
:10035000FF3802D2904200F2E2804746121AA4B25D
:10036000B2FBFEF00EFB102244EA02440CFB00FC40
:10037000A44507D9341900F1FF3202D2A44500F296
:10038000CB801046A4EB0C0440EA0740A2E7C1F181
:1003900020068B4022FA06FC4CEA030C07FA01F413
:1003A00020FA06F3F7404FEA1C49234300FA01F80C
:1003B0001FFA8CFEB7FBF9F01C0C09FB107744EA1E
:1003C000074400FB0EF7A74202FA01F20AD91CEB20
:1003D000040400F1FF3A80F09B80A74240F298802D
:1003E00002386444E41B9FB2B4FBF9F309FB1344E5
:1003F00047EA044403FB0EFEA64509D91CEB04049E
:1004000003F1FF3780F08280A6457FD9023B644428
:1004100043EA0040A4EB0E04A0FB02E7BC42734693
:10042000B94663D360D05DB1B8EB030264EB090455
:1004300004FA06F622FA01F31E43CC40C5E9006433
:1004400000214CE76208480842EAC1710B0C43EAFC
:1004500000438AB242EA0342B3FBF6F1E407B44632
:100460003746B6461F23B0FBF6F0D21B41EA0041E7
:1004700061E7614614E7104628E7C3F1200120FA3E
:1004800001F29E4027FA01F19F403A434FEA164E8F
:100490001FFA86FCB1FBFEF70EFB1710110C41EAA8
:1004A000004107FB0CF8884504FA03F43AD97118A7
:1004B00007F1FF3001D288451FD8A1EB0801B1FB3D
:1004C000FEF808FB0CF70EFB181192B242EA01424B
:1004D000BA422FD2B21808F1FF31C6D2BA42C4D202
:1004E000A8F102013244C0E7F0459CD2BEEB020302
:1004F00067EB0C070138B94695E7A6EB08084144BD
:10050000B81EB1FBFEF808FB0CF7DCE73B467FE7C3
:10051000504667E70846FBE63444023832E7023FBC
:1005200032441BE7A1EB08013846B1FBFEF808FB9B
:100530000CF7C8E7414698E7704700BF000000008D
:1005400001F0FF01102A2BDB10F0070F08D010F884
:10055000013B013A8B422DD010F0070F42B3F6D188
:10056000F0B441EA012141EA014122F007047FF0A1
:1005700000070023F0E80256083C85EA010586EAF8
:10058000010685FA47F5A3FA87F586FA47F6A5FA34
:1005900087F68EB9EED1F0BC01F0FF0102F0070240
:1005A00032B110F8013B013A83EA010313B1F8D1EB
:1005B0000020704701387047002D06BF35460338CC
:1005C000073815F0010F07D1013015F4807F02BF05
:1005D000013015F4C03F0130F0BC0138704700BF56
:1005E00080B588B000AF4FF4A06005F035FB022164
:1005F000304806F049FA3B1D184606F0ACFA2E4B7F
:100600007B6000233B770023FB6001237B77002383
:10061000BB6000233B610123BB7700237B614FF468
:100620000053BB613B1D1A460221224806F0BDFA69
:100630000221204806F0E0FB022202211D4806F0BC
:1006400049FC022202211B4806F0E9FC0022052198
:100650000D2006F0D3F90421164806F015FA3B1DCB
:10066000184606F078FA154B7B6000233B77002391
:10067000FB6001237B770023BB6000233B610123E8
:10068000BB7700237B614FF40053BB613B1D1A46CF
:100690000421084806F089FA0421064806F0ACFB5C
:1006A00002220421034806F015FC00BF2037BD4696
:1006B00080BD00BF000002400C3001400C380040FB
:1006C00080B582B000AF78600B467B807B88002BC2
:1006D00075D07B68002B72D03B4B1B684FF0FF310D
:1006E00018460AF09AF87B681A460221374806F045
:1006F000AEFB7B881A460221344806F0C9FB022271
:100700000221324806F0E6FB0221304806F049FBA0
:1007100000212F4805F051FE2E4B1B68642118461E
:100720000AF04CF90346002B19D02A4B1B68002114
:1007300018460AF043F90221244806F05DFB002127
:10074000234805F05AFE224805F017FE204805F020
:1007500004FE1D4B1B6818460AF098F830E000BFF5
:1007600080211B4805F088FE0346012BF8D00222A9
:100770000221164806F0AEFB0221144806F03CFBAD
:100780000021134805F039FE4021114805F074FEA0
:100790000346002B06D00E4805F060FE02E00C4830
:1007A00005F05CFE01210A4805F066FE0346002BB9
:1007B000F5D1054B1B6818460AF068F800E000BF49
:1007C0000837BD4680BD00BF801D012000000240EB
:1007D00000300140741D012080B500AF4FF48051FE
:1007E000024805F02EFC00BF80BD00BF000C014098
:1007F00080B500AF4FF48051024805F012FC00BFF5
:1008000080BD00BF000C014080B582B000AF7860B1
:100810007B681B0CDBB2184600F046FB7B681B0AAA
:10082000DBB2184600F040FB7B68DBB2184600F0F4
:100830003BFB00BF0837BD4680BD80B582B000AF2E
:10084000FFF7CAFF052000F02FFBFF2000F02CFB74
:100850000346FB71FFF7CCFFFB7903F00103002B8C
:10086000EED100BF00BF0837BD4680BD80B500AFE8
:10087000FFF7B2FF062000F017FBFFF7B9FF00BF3C
:1008800080BD80B582B000AF7860FFF7EFFFFFF763
:10089000A3FF202000F008FB7868FFF7B5FFFFF703
:1008A000A7FFFFF7CAFF00BF0837BD4680BD80B570
:1008B00086B000AFF860B9601346FB80FFF7D6FF43
:1008C000FFF78AFF022000F0EFFAF868FFF79CFFBD
:1008D0000023FB8209E0FB8ABA6813441B781846A0
:1008E00000F0E2FAFB8A0133FB82FA8AFB889A4223
:1008F000F1D3FFF77DFFFFF7A0FF00BF1837BD461C
:1009000080BD90B587B000AFF860B9601346FB803A
:10091000FFF762FF032000F0C7FAF868FFF774FFE3
:100920000023FB820AE0FB8ABA68D418FF2000F09B
:10093000BBFA03462370FB8A0133FB82FA8AFB88E9
:100940009A42F0D3FFF754FF00BF1C37BD4690BD5D
:1009500080B582B000AF786039603B68002B05D06D
:100960000F22396802480AF0C5FC00BF00BFFDE74E
:100970003003002080B500AF0AF0AEFB00BF80BDA1
:1009800080B500AF03F0E4FD00BF80BD80B500AFCF
:1009900003F0BEFB00BF80BD80B582B000AF002376
:1009A000FB714FF4005005F04FFC0346002B0CD0B8
:1009B0004FF4005005F060FC0123FB71194B1868DF
:1009C000F91D002300220AF0E7F84FF4804005F0FB
:1009D0003BFC0346002B0CD04FF4804005F04CFC50
:1009E0000223FB710F4B1868F91D002300220AF047
:1009F000D3F84FF4004005F027FC0346002B0CD041
:100A00004FF4004005F038FC0323FB71054B1868D8
:100A1000F91D002300220AF0BFF800BF0837BD46C9
:100A200080BD00BF6C1D012080B582B000AF0023E7
:100A3000FB71012005F008FC0346002B0BD00120C0
:100A400005F01AFC0423FB71054B1868F91D0023FF
:100A500000220AF0A1F800BF0837BD4680BD00BFE4
:100A60006C1D012080B500AF02220221084806F06B
:100A70004AFA0346002B09D002220221044806F05C
:100A8000B5FA044B1B68184609F0EAFF00BF80BDA9
:100A900000000240741D012080B500AF4FF4C0601B
:100AA00005F0DAF840F2026005F0D6F840F2036093
:100AB00005F0D2F840F2046005F0CEF840F205608F
:100AC00005F0CAF8522303221021234805F0F4F957
:100AD0005221214805F0A5FAA023032218211E481F
:100AE00005F0EAF94FF46043032248211B4805F062
:100AF000E3F9012303224821174805F0DDF94FF4FB
:100B0000007303221021164805F0D6F9012000F0E9
:100B100029F8C02303221C21114805F0CDF94FF418
:100B20008053032210210E4805F0C6F94FF480517E
:100B30000B4805F076FA4FF42043032218210848A9
:100B400005F0BAF94FF4804303220421044805F06C
:100B5000B3F900BF80BD00BF000801400010014094
:100B6000000C014080B582B000AF0346FB71FB79F9
:100B7000002B05D04FF40071064805F052FA04E04E
:100B80004FF40071034805F05CFA00BF0837BD461A
:100B900080BD00BF000C014080B500AF40F2157071
:100BA00005F05AF800220A490A4805F07DFC322374
:100BB00000220021074805F083FD064805F0E1FD0D
:100BC0004FF48061034805F0A3FD00BF80BD00BF66
:100BD000A08601000054004080B584B000AFF860EA
:100BE0000B467A60FB7206E07B685A1E7A60002B27
:100BF00001D100230BE0FB689BB21946064805F0C3
:100C00000FFE03461A46FB7A9342EDD101231846A4
:100C10001037BD4680BD00BF0054004080B586B08F
:100C200000AF03460A46FB711346BB710023FB73FA
:100C30000023BB7300237B614CF250333B6106E021
:100C40003B695A1E3A61002B01D1002311E140F2A9
:100C500001618A4805F0E4FD0346012BF0D0874886
:100C600005F09FFD42F2107201214FF4A060FFF7E2
:100C7000B3FF0346002B04D1804805F0A2FD0023FA
:100C8000F7E0FB795B006FF0010219467B4805F045
:100C90005AFD44F620637B611FE040F20151774822
:100CA00005F0BEFD0346012B05D140F2015173480A
:100CB00005F0D8FD16E040F20A51704805F0B0FD8D
:100CC0000346012B09D140F20A516C4805F0CAFDD8
:100CD0006A4805F076FD0023CBE07B695A1E7A61F5
:100CE000002BDAD17B69002B0FD1644805F069FD38
:100CF0000023BEE07B69013B7B617B69002B04D153
:100D00005E4805F05EFD0023B3E040F207515B480A
:100D100005F086FD0346002BECD0BB7919465748F9
:100D200005F05FFD0AE07B69013B7B617B69002B7D
:100D300004D1524805F045FD00239AE040F20251EB
:100D40004E4805F06DFD0346002BECD04B4805F0F6
:100D500028FD42F2107201214FF4A060FFF73CFF22
:100D60000346002B04D1454805F02BFD002380E00D
:100D7000FB795B0001221946404805F0E4FC44F68B
:100D800020637B611FE040F201513C4805F048FDC3
:100D90000346012B05D140F20151384805F062FDB0
:100DA00016E040F20A51354805F03AFD0346012BA2
:100DB00009D140F20A51314805F054FD2F4805F0A1
:100DC00000FD002355E07B695A1E7A61002BDAD1C1
:100DD0007B69002B04D1294805F0F3FC002348E08F
:100DE0004FF48061254805F093FC0AE07B69013BE4
:100DF0007B617B69002B04D1204805F0E2FC0023D5
:100E000037E040F206511D4805F00AFD0346002B6D
:100E1000ECD01A4805F0F6FC0346FB730021174896
:100E200005F076FC0AE07B69013B7B617B69002B66
:100E300004D1124805F0C5FC00231AE040F2065127
:100E40000E4805F0EDFC0346002BECD00B4805F0F6
:100E5000D9FC0346BB73094805F0B3FC012000F040
:100E6000D5F8FB7B9BB21B029AB2BB7B9BB21343B0
:100E70009BB218461837BD4680BD00BF00540040E5
:100E800080B500AF04F018FEFFF706FE00F032F860
:100E9000FFF782FEFFF7A4FB09F0D4F9FFF76AFD24
:100EA00009F0F4F900BFFDE780B582B000AF03465A
:100EB000FB7100BF02210E4805F0DEFA0346002B4D
:100EC000F8D0FB799BB21946094805F0B6FA00BF85
:100ED0000121074805F0D0FA0346002BF8D004485A
:100EE00005F0BCFA0346DBB218460837BD4680BDA4
:100EF0000038004080B588B000AF40F20C6004F0CC
:100F0000ABFE3B1D184605F0C7F94FF44043BB60EC
:100F10004FF482737B600023FB600023BB614FF4BE
:100F200000733B610823FB6100237B613B1D194675
:100F3000164805F0D0F9154805F02FFA134805F0CA
:100F40000CFA40F20E7004F087FE3B1D184605F0C7
:100F5000A3F90023BB604FF482737B600023FB6026
:100F60000023BB614FF400733B611023FB6100233E
:100F70007B613B1D1946064805F0ADF9044805F0B4
:100F8000ECF900BF2037BD4680BD00BF00300140F6
:100F90000038004080B489B000AF78600023BB61A6
:100FA000194B5B687B617A6813461B019B1ADB0057
:100FB0003B61154B9B68FB61134B9B68FB60FA68B8
:100FC000FB699A42F8D0FA68FB699A4206D2FA693C
:100FD000FB68D31ABA691344BB6107E07A69FB68FE
:100FE000D21AFB691344BA691344BB61FB68FB6105
:100FF000BA693B699A4200D2DEE700BF00BF2437DE
:10100000BD465DF8047B704710E000E02DE9B04F6D
:1010100082B000AF786007F089F80346022B3CD11C
:101020007B6800229846914642464B464FF00000AE
:101030004FF00001590141EAD261500102460B46CE
:10104000B2EB080463EB09054FF000024FF0000318
:10105000AB0043EA9473A20014461D4614EB080A41
:1010600045EB090B4FF000024FF000034FEACB03B2
:1010700043EA5A734FEACA0292469B465046594683
:101080004FF47A724FF00003FFF7C2F802460B46A6
:101090001346184606F0E8F907E07B684FF47A72C9
:1010A00002FB03F31846FFF775FF0837BD46BDE89E
:1010B000B08F80B500AF07F039F80346012B03D09D
:1010C00006F088FB034600E00023184680BD80B58B
:1010D00084B000AF0346FB71FB7919464020FFF74F
:1010E0009DFD0346FB81FB8918461037BD4680BD38
:1010F00080B500AF40F2046004F0AEFD40F2026043
:1011000004F0AAFD4FF4C06004F0A6FD4FF4604364
:1011100003224821254804F0CFFE0D21022004F0CF
:10112000A1FF0E21022004F09DFF0F21022004F0F8
:1011300099FF0123032248211D4804F0BDFE002130
:10114000002004F08FFF012200214FF4005005F031
:1011500001F84FF4005005F08FF8012200214FF400
:10116000804004F0F7FF4FF4804005F085F801223D
:1011700000214FF4004004F0EDFF4FF4004005F073
:101180007BF801220021012004F0E4FF012005F09A
:1011900073F800220521282005F030FC00220521EB
:1011A000062005F02BFC00BF80BD00BF00100140F1
:1011B0000008014080B500AF4021024804F041FF23
:1011C00000BF80BD0008014080B500AF402102484B
:1011D00004F027FF00BF80BD0008014080B500AFCC
:1011E0001021024804F02DFF00BF80BD000801401F
:1011F00080B500AF1021024804F013FF00BF80BD8E
:101200000008014080B582B000AF0346FB7100BF0B
:1012100002210C4805F030F90346002BF8D0FB7989
:101220009BB21946074805F008F900BF8021054820
:1012300005F022F90346012BF8D000BF00BF0837A4
:10124000BD4680BD0030014080B582B000AF03468E
:10125000FB710E4B1B684FF0FF31184609F0DDFAA9
:10126000FFF7BCFFFFF7A6FFFB791846FFF7CAFFA1
:10127000FFF7AAFFFFF7BCFF044B1B68184609F0F5
:1012800005FB00BF0837BD4680BD00BF801D0120A3
:1012900080B582B000AF78603960FFF79FFF3B6890
:1012A0009BB219467868FFF70BFAFFF7A1FF00BF62
:1012B0000837BD4680BD80B582B000AF0346FB71E4
:1012C000FB1D01211846FFF7E3FF00BF0837BD46AD
:1012D00080BD90B585B000AF0446084611461A4659
:1012E0002346FB800346BB800B467B8013463B8036
:1012F000FB882833FB807B8828337B80BB88353391
:10130000BB803B8835333B80FB881B0A9BB2DBB23A
:101310003B72FB88DBB27B727B881B0A9BB2DBB221
:10132000BB727B88DBB2FB72BB881B0A9BB2DBB251
:101330003B73BB88DBB27B733B881B0A9BB2DBB27F
:10134000BB733B88DBB2FB732A20FFF77DFF07F1FD
:10135000080304211846FFF79BFF2B20FFF774FFBB
:1013600007F10803043304211846FFF791FF2C20EE
:10137000FFF76AFF00BF1437BD4690BD80B5FCB0D3
:1013800000AF024607F5F873A3F5F5731A80002342
:10139000C7F8EC3123E007F5F873A3F5F5731B8864
:1013A0001B0A9AB2D7F8EC315B00D1B207F5F8729C
:1013B000A2F5F472D154D7F8EC315B00013307F594
:1013C000F872A2F5F5721288D1B207F5F872A2F59B
:1013D000F472D154D7F8EC310133C7F8EC31D7F8B7
:1013E000EC31EF2BD7D98623EF2200210020FFF725
:1013F00070FF0023C7F8E8310BE007F108034FF452
:10140000F0711846FFF744FFD7F8E8310133C7F809
:10141000E831D7F8E831862BEFDD00BF00BF07F5D4
:10142000F877BD4680BD000080B500AF02211B48A3
:1014300004F007FE1E20FFF7E9FD0221174804F023
:10144000F0FD7820FFF7E2FD0120FFF7FDFE96207A
:10145000FFF7DCFD1120FFF7F7FE9620FFF7D6FD22
:101460003620FFF7F1FE6020FFF725FF3A20FFF757
:10147000EBFE0520FFF71FFF2120FFF7E5FE1320FD
:10148000FFF7E2FE2920FFF7DFFE3220FFF7BEFD67
:101490000020FFF773FF00BF80BD00BF00080140C0
:1014A00090B589B000AF7B600346FB810B46BB81E2
:1014B0001346FB727B681B787B777B685B783B7796
:1014C000FB7A1F2B02D9FB7A7E2B01D92023FB72DA
:1014D0007B685A68FB7A03F18053203B1B0113445D
:1014E000BB617B7F9AB2FB8913449BB2013B9CB2E8
:1014F0003B7F9AB2BB8913449BB2013B9BB2B98933
:10150000F8892246FFF7E5FE0023FB7736E0FB7FF4
:10151000BA6913441B78FB750023BB7727E0FA7D7B
:10152000BB7F802141FA03F31340002B01D03B8E97
:1015300000E0BB8EBB82BB8A1B0A99B2FB7F7A7F1D
:1015400003FB02F2BB7F13445B00C9B2144AD154BF
:10155000FB7F7A7F03FB02F2BB7F13445B00013306
:10156000BA8AD1B20E4AD154BB7F0133BB77BA7F5E
:101570007B7F9A42D3D3FB7F0133FB77FA7F3B7F9C
:101580009A42C4D37B7F3A7F02FB03F35B00194688
:101590000348FFF77DFE00BF2437BD4690BD00BF66
:1015A000740E002080B586B002AFBA601A460346BA
:1015B000FB810B46BB811346FB8010E0BB681A78A9
:1015C000B989F8893B8B0193FB880093084BFFF79F
:1015D00067FFFB890833FB81BB680133BB60BB68D5
:1015E0001B78002BEAD100BF00BF1037BD4680BD7D
:1015F0000000002080B489B000AFF86008461146B2
:101600001A4603467B810B463B811346FB80B7F9A4
:101610000A20B7F906309A4205DAFA887B89D31A8C
:101620009BB21BB204E07A89FB88D31A9BB21BB22F
:10163000BB83B7F90820B7F928309A4205DA3A8D0A
:101640003B89D31A9BB21BB204E03A893B8DD31A73
:101650009BB21BB27B83B7F90A20B7F906309A42D6
:1016600001DA012301E04FF0FF333B83B7F9082093
:10167000B7F928309A4201DA012301E04FF0FF3335
:10168000FB82BA8B7B8BD31A9BB2FB83B7F90A30F0
:10169000002B1ADBB7F90A30C72B16DCB7F9083074
:1016A000002B12DBB7F90830722B0EDCB7F90830CB
:1016B0004FF4C87202FB03F3FA681344B7F90A2027
:1016C000B98D49BA89B223F81210B7F90A20B7F9CF
:1016D00006309A4205D1B7F90820B7F928309A4266
:1016E00025D0FB8B5B009BB2BB82B7F91420B7F906
:1016F0001A305B429A4209DDFA8B7B8BD31A9BB27C
:10170000FB837A893B8B13449BB27B81B7F914200E
:10171000B7F91C309A42B9DAFA8BBB8B13449BB2EF
:10172000FB833A89FB8A13449BB23B81AEE700BF3F
:1017300000BF2437BD465DF8047B704780B582B09A
:1017400000AF78607B68D3F8D0309B680120984761
:101750007B6805229A7000BF0837BD4680BD000037
:1017600080B500AF00F0B6FA00F0F2FA054A06497B
:10177000064800F01BFB00F0F2FA0448FFF7DEFF1A
:1017800000BF80BD1002002000020020740F002066
:1017900080B588B000AF786039607B687B610023DA
:1017A000FB617B68002B02D03B68002B01D100233A
:1017B00043E0244B9B78DBB2032B01D000233CE0B9
:1017C000204BD3F8D4303B613B69002B30D1002350
:1017D00033E0FFF76EFCF86008E0FFF76AFC0246B2
:1017E000FB68D31A642B01D9FB6926E0154800F089
:1017F000D5F80346002BF0D13A68FB69D31ABB61D8
:10180000BB69402B01D94023BB613B69D81C7A6975
:10181000FB691344BA69194609F0A6FD3B69BA6928
:101820005A64084800F096F8FA69BB691344FB61F2
:10183000FA693B689A42CCD3FB6918462037BD460B
:1018400080BD00BF740F00200FB480B5C4B000AFDE
:1018500007F58E7207F58873A3F586731A6007F58E
:101860008873A3F5867307F108001B68D7F8182161
:101870004FF4807109F028FDC7F80C01D7F80C313E
:10188000002B02DCD7F80C311BE0D7F80C31FF2B12
:1018900002D9FF23C7F80C31D7F80C2107F1080350
:1018A00011461846FFF774FFC7F80801D7F80C3146
:1018B000D7F808219A4202D04FF0FF3301E0D7F861
:1018C0000C31184607F58877BD46BDE8804004B066
:1018D000704790B585B000AFF8607A603B600B460A
:1018E000FB72FB68D3F8D0301C6AF97A3B687A68DF
:1018F000F868A04700BF1437BD4690BD80B582B0E0
:1019000000AF78600B46FB707B68D3F8D0305B6A21
:10191000FA7811467868984700BF0837BD4680BD01
:1019200080B485B000AFF860B96011461A460B4626
:10193000FB801346BB80FB68BA685A60FB68FA8874
:101940001A81FB68BA885A8100BF1437BD465DF81A
:10195000047B704780B584B000AF78607B68D3F8B3
:10196000D430FB60FB685B6CBB60BB68002B11D0A4
:10197000FB685B78012B0DD1FB6800225A70FB6875
:10198000DA1CBB689BB28121786800F069FAFB68B9
:1019900000225A6400BF1037BD4680BD80B485B0B8
:1019A00000AF78607B68D3F8D430002B0DD07B6813
:1019B000D3F8D430FB60FB689B78012B05D1FB6822
:1019C0001B78012B01D1002300E0052318461437B2
:1019D000BD465DF8047B704780B584B000AF786089
:1019E0000B46FB701E4B4FF4A07200217868FFF786
:1019F00070FF1C4B4FF4807200217868FFF769FF7D
:101A0000194BC02200217868FFF763FF174B9A69D2
:101A10007B68C3F8AC20154BDA697B68C3F8C0203B
:101A2000134B00229A70124B01225A70104B012264
:101A30001A700F4B00225A640D4B0E4A483392E83D
:101A4000030018600433198002330A0C1A707B6893
:101A5000074AC3F8D420002318461037BD4680BD7E
:101A600058000020510000204100002010020020FA
:101A70005410002024BC000880B582B000AF78600C
:101A80000B46FB7081217868FFF738FF03217868E7
:101A9000FFF734FF82217868FFF730FF00231846F4
:101AA0000837BD4680BD80B485B000AF78607B68E4
:101AB000D3F8D430FB607B68D3F8CC301B78FF2B95
:101AC0000AD0FB6801229A70FB6801221A707B68B9
:101AD000D3F8CC30FF221A70002318461437BD46C5
:101AE0005DF8047B704780B584B000AF78600B462A
:101AF000FB70FB781B0158337A681344FB607B68EA
:101B0000D3F8D430BB60FB685A89FB681B889A42C3
:101B100009D1FB7803F07F03D9B200230022786853
:101B200000F09EF905E0BB6801225A70BB680122F3
:101B30001A7000BF1037BD4680BD80B485B000AFBD
:101B400078600B46FB707B68D3F8D430FB60FB6891
:101B500001229A70FB787A6802331B011344023326
:101B60001B881A46FB685A6400BF1437BD465DF8EF
:101B7000047B704780B588B000AF7860396001237E
:101B8000FB7707F1080300221A605A601A817B680C
:101B9000D3F8D430BB6107F108037B613B685B7805
:101BA000232B00F2918001A252F823F0C91C0008F7
:101BB000C91C0008C91C0008C91C0008C91C000871
:101BC000C91C0008C91C0008C91C0008C91C000861
:101BD000C91C0008C91C0008C91C0008C91C000851
:101BE000C91C0008C91C0008C91C0008C91C000841
:101BF000C91C0008C91C0008C91C0008C91C000831
:101C0000C91C0008C91C0008C91C0008C91C000820
:101C1000C91C0008C91C0008C91C0008C91C000810
:101C2000C91C0008C91C0008C91C00083D1C00088C
:101C3000671C0008811C0008C91C00087B68D3F8D9
:101C4000CC303A6852781A707B6803F11800BB698F
:101C500003F148013B68DB889AB20023FFF760FE7E
:101C60000023FB7731E07B6803F15800BB6903F187
:101C7000480100230722FFF753FE0023FB7724E0EF
:101C80007B69A1221A707B6920225A707B6900222D
:101C90001A7100225A717B6900229A700022DA7050
:101CA0007B69002242F002029A710022DA713B68DD
:101CB0005B889BB2DBB203F00303DBB23B7400230F
:101CC0007B740023FB7700E000BFFB7F18462037C2
:101CD000BD4680BD80B582B000AF002003F0F8FFA4
:101CE00078604FF4C16003F0B7FF7B68144A9342F9
:101CF00004D14FF4800003F0D3FF18E07B68114A51
:101D0000934203D1002003F0CBFF10E07B680E4A22
:101D1000934204D14FF4400003F0C2FF07E07B6818
:101D20000A4A934203D14FF4000003F0B9FF40F296
:101D3000177003F091FF00BF0837BD4680BD00BF9C
:101D4000006CDC0200A24A0400D8B805000E270788
:101D500080B400AF00BFBD465DF8047B704780B51E
:101D600000AF4FF4A06004F035FE002202211420E1
:101D700004F044FE00BF80BD80B485B000AFF860C1
:101D8000B96011461A460B46FB801346BB80FB68C0
:101D9000BA685A60FB68FA881A81FB68BA885A8167
:101DA00000BF1437BD465DF8047B704780B584B032
:101DB00000AFF860B9607A60244B08221A70234B98
:101DC00001225A70214B4FF400725A801F4AFB685F
:101DD0005360FB68BA68C3F8C820FB687A68C3F828
:101DE000CC20FB681A4AC3F8D020FB6800221A7581
:101DF000FB68184AC3F89820FB68174AC3F89C2070
:101E0000FB68164AC3F8A020FB68D3F8C8305B68AB
:101E100007331B789B09DBB203F00103DAB2FB68DE
:101E20001A71FB680122DA71FB68D3F8D0301B68A5
:101E30009847FB68D3F8C830DB680C331B6818463A
:101E400000F06EFD00BF1037BD4680BDAC10002015
:101E500074020020D72A00089F2B0008072C0008D6
:101E600090B589B000AFF8607A601A460B46FB72F5
:101E700013463B81FB7A03F07F03FB77FB7F1B015B
:101E80005833FA681344BB61FB7F03F1805303F5B9
:101E9000B8539B001B6803F4C063002B0AD1FB7F7F
:101EA00003F1805303F5B8539B001B6803F4807360
:101EB000002B0BD1FB7F03F1805303F5B8539B003C
:101EC0001B6803F4C063B3F5806F44D1BB691B8802
:101ED0005A003B89934228BF1346FB82FB68D3F824
:101EE000D0301C6BFA8AF97F01237868A0473B89C0
:101EF000002B0CD03B89BA6912881344013BBA69A4
:101F00001288B3FBF2F39AB2BB699A8102E0BB6913
:101F100001229A81BB699B89022B10D1FB8A7A68C6
:101F2000D1183A89FB8AD31A98B2BB691B88FA8AFE
:101F3000D31A9BB20246B869FFF71EFF26E0FB8A60
:101F40007A68D1183A89FB8AD31A9AB2FB8AB8699F
:101F5000FFF712FF1AE0BB691B883A89934228BF3A
:101F60001346FB82FB68D3F8D030DB6AFA8AF97F2C
:101F700078689847FB8A7A68D1183A89FB8AD31A1D
:101F80009AB2FB8AB869FFF7F7FE00BF00BF24379B
:101F9000BD4690BD80B582B000AF78600B46FB7047
:101FA0007B68D3F8D0309B6BFA78114678689847F5
:101FB00000BF0837BD4680BD80B582B000AF7860F5
:101FC0000B46FB707B68D3F8D030DB6BFA78114698
:101FD0007868984700BF0837BD4680BD80B582B09D
:101FE00000AF78600B46FB707B68D3F8D0301B6C79
:101FF000FA78114678689847034618460837BD4670
:1020000080BD80B485B000AFF860B96011461A4653
:102010000B46FB801346BB80FB68BA685A60FB68BE
:10202000FA881A81FB68BA885A8100BF1437BD4606
:102030005DF8047B7047000080B582B000AF786027
:1020400039603B685B781A46054B53F82230396893
:1020500078689847034618460837BD4680BD00BFDC
:102060003002002080B582B000AF786039607B68B4
:102070009B78DBB2032B0ED13B689B889BB2DBB213
:10208000002B08D17B68D3F8CC30DB6839687868DE
:102090009847034600E0012318460837BD4680BD37
:1020A00080B483B000AF78603960012318460C37E4
:1020B000BD465DF8047B704780B483B000AF7860A4
:1020C0003960012318460C37BD465DF8047B704724
:1020D00080B485B000AFF8600B467A60FB72FB6895
:1020E000D3F8C8301B681B781A467B681A80FB68D7
:1020F000D3F8C8301B6818461437BD465DF8047B1A
:10210000704780B485B000AFF8600B467A60FB7210
:10211000FB68D3F8C8305B6802331B781AB2FB68DF
:10212000D3F8C8305B6803331B781BB21B021BB2A9
:1021300013431BB29AB27B681A80FB68D3F8C8308D
:102140005B6818461437BD465DF8047B704780B461
:1021500085B000AFF8600B467A60FB72FB68D3F87D
:10216000C8309B68002B17D0FB68D3F8C8309B6839
:1021700002331B781A46FB68D3F8C8309B680333D8
:102180001B781B029BB213439AB27B681A80FB68D0
:10219000D3F8C8309B6803E07B6800221A800023D4
:1021A00018461437BD465DF8047B704780B487B08D
:1021B00000AFF8600B467A60FB72FB68D3F8C8305A
:1021C000DA68FB7A9B0013441B687B617B691B7890
:1021D0001A467B681A807B6918461C37BD465DF835
:1021E000047B704780B584B000AF786039603B688D
:1021F0009B889BB2BB730123FB733B681B7803F086
:102200000303022B32D0022B4FDC002B02D0012B18
:1022100021D04AE07B689B78DBB2023B012B18D8C7
:102220007B681B79002B03D02A4B01221A7002E035
:10223000284B00221A707B681B7A002B06D0254B96
:102240001B7843F00203DAB2224B1A700023FB73AF
:1022500000E000BF2EE07B689B78DBB2032B26D129
:10226000BB7B002B23D10023FB7320E07B689B7892
:10227000DBB2032B1DD197F90E30002B0ADABB7BA2
:1022800003F07F037A681B0113445A331A78114B09
:102290001A7007E0BB7B7A681B0113441A331A7863
:1022A0000C4B1A700023FB7303E000BF02E000BF79
:1022B00000E000BFFB7B002B07D17B6803F15800D7
:1022C000022302220349FFF79CFEFB7B18461037CE
:1022D000BD4680BDA810002080B584B000AF7860F6
:1022E00039600023FB733B681B7803F00303022B68
:1022F0001AD0022B47DC002B02D0012B45D042E044
:102300007B689B78DBB2023B012B09D83B685B887A
:102310009BB2012B06D17B6800221A72002338E0A1
:1023200000BF35E000BF33E03B689B889BB2FB7386
:102330007B689B78DBB2032B29D1FB7B03F07C030A
:10234000002B24D13B685B889BB2002B1FD1FB7B09
:10235000002B1CD0FB7B802B19D0FB7B19467868A7
:10236000FFF73CFE0346002B11D0FB7B1946786833
:10237000FFF722FE7B68D3F8CC30DB6839687868D9
:102380009847002305E000BF02E000BF00E000BF67
:10239000012318461037BD4680BD80B584B000AF1C
:1023A000786039600023FB733B681B7803F00303FC
:1023B000022B1AD0022B47DC002B02D0012B45D078
:1023C00042E07B689B78DBB2023B012B09D83B687B
:1023D0005B889BB2012B06D17B6801221A72002315
:1023E00038E000BF35E000BF33E03B689B889BB21C
:1023F000FB737B689B78DBB2032B29D1FB7B03F05B
:102400007C03002B24D13B685B889BB2002B1FD13F
:10241000FB7B002B1CD0FB7B802B19D0FB7B194650
:102420007868FFF7DBFD0346002B11D0FB7B1946D4
:102430007868FFF7AFFD7B68D3F8CC30DB6839688C
:1024400078689847002305E000BF02E000BF00E085
:1024500000BF012318461037BD4680BD80B483B04D
:1024600000AF786039603B689B889BB2002B1FD11E
:102470003B68DB889BB2002B1AD13B685B889BB220
:10248000DBB203F07F03DAB27B685A707B689B781B
:10249000DBB2032B0CD07B685B78002B03D07B680E
:1024A00002229A7002E07B6801229A70002300E009
:1024B000012318460C37BD465DF8047B70470000C9
:1024C00080B584B000AF786039600023BB7300230F
:1024D0007B730123FB737B685833BB603B681B78BD
:1024E00003F00303022B00F08880022B00F38780A7
:1024F000002B02D0012B76D081E03B685B889BB239
:102500001B0A9BB2BB733B685B889BB27B73BB7B34
:10251000013B0E2B61D801A252F823F05925000887
:1025200085250008A1250008DB250008DB2500081B
:10253000DB250008DB250008DB250008DB2500087B
:10254000DB250008DB250008DB250008DB2500086B
:10255000DB250008C3250008BB7B013B414A52F83C
:102560002330BA680832797B786898470246BB689E
:102570005A603B68DB889BB2402B30D1BB68082295
:102580001A812CE0BB7B013B364A52F82330BA68F3
:102590000832797B786898470246BB685A6021E028
:1025A0007B7BEE2B1DD8BB7B013B2E4A52F82330A0
:1025B000BA680832797B786898470246BB685A60E7
:1025C0000FE0BB6803F108027B7B19467868FFF7D0
:1025D000BEFD0246BB685A6004E000BF10E000BFC9
:1025E0000EE000BF0CE07B68D3F8CC30DB683968C4
:1025F000786898470346FB7302E000BF00E000BF25
:10260000BB681B89002B28D03B68DB889BB2002B62
:1026100023D03B68DB889AB2BB681B89934228BFF2
:1026200013469AB2BB681A81BB681A897B68B3F8F3
:1026300011309BB29A420ED2BB681B89BA681288CD
:10264000B3FBF2F101FB02F29B1A9BB2002B02D109
:102650007B680122DA740023FB73FB7B184610377A
:10266000BD4680BD6402002080B483B000AF7860B6
:102670003960002318460C37BD465DF8047B70476F
:1026800080B584B000AF786039600123FB737B684C
:102690009B78DBB2022B02D0032B07D010E07B68C3
:1026A0001B78002B09D10023FB7306E07B681B78A5
:1026B000002B04D00023FB7301E000BF00E000BF4B
:1026C000FB7B002B07D17B6803F15800796801235D
:1026D0000122FFF796FCFB7B18461037BD4680BDF4
:1026E00080B584B000AF786039600123FB733B682C
:1026F0005B889BB2DAB2324B1A70314B1B78012BDC
:1027000058D87B689B78DBB2032B1CD0032B4EDCA4
:10271000012B4ED0022B4AD1294B1B78002B0FD016
:102720007B68D3F8CC305B68254A1278114678680C
:102730009847234B1A787B681A707B6803229A703B
:102740000023FB7336E01E4B1B78002B10D17B68F7
:10275000D3F8CC309B681A4A1278114678689847AB
:10276000174B1A787B681A707B6802229A701BE0FC
:102770007B681A78124B1B789A4215D07B68D3F885
:10278000CC309B687A6812781146786898470C4B71
:102790001A787B681A707B68D3F8CC305B68084A7B
:1027A00012781146786898470023FB7302E000BF57
:1027B00000E000BFFB7B18461037BD4680BD00BF60
:1027C000AA10002080B582B000AF786039607B68C5
:1027D0009B78DBB2032B06D0032B17DC012B17D021
:1027E000022B17D012E03B689B889BB2DBB2002B18
:1027F00012D17B6803F158007B68D3F8CC30591CA8
:1028000001230122FFF7FDFB002307E000BF04E0E6
:1028100000BF02E000BF00E000BF012318460837F8
:10282000BD4680BD80B582B000AF786039607B68FE
:102830009B78DBB2032B06D0032B1BDC012B1BD0B8
:10284000022B1BD016E03B689B889BB2DBB2002BAF
:1028500016D13B685B889AB27B68D3F8CC30D2B291
:102860005A707B68D3F8CC30DB6839687868984751
:10287000002307E000BF04E000BF02E000BF00E06B
:1028800000BF012318460837BD4680BD80B483B021
:1028900000AF78603960002318460C37BD465DF8FC
:1028A000047B704780B487B000AFF860B96013460E
:1028B000FB710023FB750023FB7525E0FB681B0FF4
:1028C000092B0AD8FB681B0FDAB2FB7D5B00B968E5
:1028D0000B443032D2B21A7009E0FB681B0FDAB237
:1028E000FB7D5B00B9680B443732D2B21A70FB68CB
:1028F0001B01FB60FB7D5B000133BA6813440022BF
:102900001A70FB7D0133FB75FA7DFB799A42D5D3B2
:1029100000BF00BF1C37BD465DF8047B7047000058
:1029200080B586B000AF78607B681B88DBB2062B71
:102930001ED01A4B1B683B61194B1B68FB60194B7F
:102940001B68BB603A69BB6813443B613B69002B61
:102950001FD07B680233082219463869FFF7A2FFAF
:102960007B68123304221946F868FFF79BFF10E0DA
:102970000D4B1B687B617B69002B0AD07B6802339F
:102980007A6992B21A807B691A0C7B68043392B21E
:102990001A8000BF1837BD4680BD00BFE8F7FF1F93
:1029A000ECF7FF1FF0F7FF1F0021024080B582B057
:1029B00000AF78600B46FB707B68D3F8D0309B6B20
:1029C000FA7811467868984700BF0837BD4680BD41
:1029D00080B485B000AFF860B96011461A460B4666
:1029E000FB801346BB80FB68BA685A60FB68FA88B4
:1029F0001A81FB68BA885A8100BF1437BD465DF85A
:102A0000047B704780B582B000AF786000217868A1
:102A1000FFF7CCFF00BF0837BD4680BD80B582B050
:102A200000AF78607B6801221A757B68DA6D7B687D
:102A3000B3F8603000217868FFF712FA00BF08375A
:102A4000BD4680BD80B582B000AF78607B68032250
:102A50001A757B68D3F8D030DB6A7A68D06D0022B3
:102A60000021984700BF0837BD4680BD80B582B0C1
:102A700000AF78607B6802221A757B68D3F8D0308B
:102A80009B6A00217868984700BF0837BD4680BD23
:102A900080B582B000AF78607B6804221A757B68CD
:102AA000D3F8D0309B6A00217868984700BF083778
:102AB000BD4680BD80B582B000AF78607B68D3F83A
:102AC000D030DB6A7A68D06D00220021984700BFC1
:102AD0000837BD4680BD80B584B000AF78600B4636
:102AE000FB700123FB737B68D3F8D0305B6B7A6893
:102AF00002F10B000022002198470346BB81BB89ED
:102B0000082B03D07868FFF77DFF45E07B68DB7A10
:102B100003F06003402B18D0402B1FD8002B02D0AD
:102B2000202B09D01AE07B680B3319467868FFF731
:102B300083FA0346FB7312E07B680B33194678680F
:102B4000FFF790FA0346FB7309E07B680B331946E5
:102B50007868FFF7A5FA0346FB7300E000BFFB7B34
:102B6000002B16D17B68B3F811309BB2002B03D138
:102B70007868FFF767FF0FE07B68DB7A5BB2002BBA
:102B800003DA7868FFF74AFF06E07868FFF76EFF20
:102B900002E07868FFF736FF1037BD4680BD80B58C
:102BA00082B000AF78600B46FB707B689B78DBB22D
:102BB000032B0BD17B68D3F8CC305B69002B05D09D
:102BC0007B68D3F8CC305B69786898477B681B7D5D
:102BD000022B03D17868FFF735FF10E07B681B7D7F
:102BE000042B0CD1FB781B0118337A68D018002312
:102BF00000220021FFF7ECFE7B6800221A7500BF5F
:102C00000837BD4680BD80B582B000AF78600B4606
:102C1000FB707B68DB7C002B05D07868FFF74AFFF0
:102C20007B680022DA747B689B78DBB2032B0BD1C4
:102C30007B68D3F8CC301B69002B05D07B68D3F8B8
:102C4000CC301B69786898477B681B7D012B03D1CA
:102C50007868FFF71DFF06E07B681B7D032B02D120
:102C60007B6800221A757B685B78002B08D07B6834
:102C7000D3F8D030DB68786898477B6800225A70B8
:102C800000BF0837BD4680BD80B582B000AF786018
:102C90000B46FB707B68D3F8D0301B6CFA7811467A
:102CA00078689847034618460837BD4680BD80B40B
:102CB00085B000AF03460A46FB711346BB71BB7972
:102CC000012B21D1FB7903F1805303F5B8539B000D
:102CD0001B689BB223F4E04323F070039BB243F0E4
:102CE0004003BB81BB8943F07F4343F47F0343F43C
:102CF000004343F080039AB2FB7903F1805303F55C
:102D0000B8539B001A6023E0BB79002B20D1FB79DC
:102D100003F1805303F5B8539B001B689BB223F467
:102D2000E04323F070039BB243F48043FB81FB89B3
:102D300043F07F4343F47F0343F4004343F08003B5
:102D40009AB2FB7903F1805303F5B8539B001A60E4
:102D500000BF1437BD465DF8047B704780B483B074
:102D600000AF0346FB7100BF0C37BD465DF8047B26
:102D70007047000080B400AF0B4B01221A600A4B71
:102D800000221A60094B00221A60094B00221A60C7
:102D9000054B1B68044A43F41F43136000BFBD4644
:102DA0005DF8047B704700BF405C0040445C00401D
:102DB000505C004080B400AF064B01221A60064B05
:102DC00000221A60034B03221A6000BFBD465DF863
:102DD000047B7047405C0040445C004080B483B09A
:102DE00000AF78607B685B7863F07F03DAB2044BF6
:102DF0001A6000BF0C37BD465DF8047B704700BF0A
:102E00004C5C004080B485B000AF78600023FB7359
:102E10007B685833BB60394B1B6880221A60374B84
:102E20001B6800225A60BB6840221A807B681833F6
:102E3000BB60324B1B6840229A60BB6840221A80FC
:102E4000BB681B883E2B1CD9BB681B8803F01F0383
:102E5000002B0AD0BB681B885B099BB29A02274BE8
:102E60001B6842F40042DA6016E0BB681B885B090D
:102E70009BB2013B9A02214B1B6842F40042DA608C
:102E80000AE0BB681B8801335B021C4A126823F40A
:102E90007F7323F00303D3600123FB7316E0FB7BF6
:102EA00003F1805303F5B8539B001B6823F40F43D1
:102EB00023F08F03F97BFA7B02F1805202F5B852BE
:102EC00092000B431360FB7B0133FB73FB7B032BF3
:102ED000E5D90B4B1B689AB2094B1A60084B43F2B9
:102EE00020221A60074B80221A607B6801229A70A8
:102EF00000BF1437BD465DF8047B704770020020A8
:102F0000005C00404C5C004080B48FB000AFF860C3
:102F10007A603B600B46FB723B689B7887F83730E2
:102F200097F8373003F07F0387F836303B681A791B
:102F30005B791B021343BB8600233B633B68DB7852
:102F400003F00303C74A52F8231097F8362097F886
:102F5000363003F1805303F5B8539B00184641EA1D
:102F60000203036097F93730002B80F2658197F8F0
:102F700036301B015833FA6813443B633B6BBA8EFF
:102F80001A80FB7A002B2BD1B74B1A6897F8363092
:102F90001B0113447A681A6097F8363003F18053A6
:102FA00003F5B8539B001B689BB223F4E04323F066
:102FB00040039BB283F020033B823B8A43F07F4374
:102FC00043F47F0343F4004343F080039AB297F83D
:102FD000363003F1805303F5B8539B001A6004E3C5
:102FE000FB7A012B40F0018397F8363003F18053D0
:102FF00003F5B8539B001B689BB223F4E24323F014
:1030000070039BB243F48073FB83FB8B43F07F43DD
:1030100043F47F0343F4004343F080039AB297F8EC
:10302000363003F1805303F5B8539B001A6097F8CC
:10303000363003F1805303F5B8539B001B6803F04F
:103040004003002B22D097F8363003F1805303F56C
:10305000B8539B001B689BB223F4E04323F070033A
:103060009BB243F04003BB83BB8B43F07F4343F4ED
:103070007F0343F4004343F080039AB297F836305D
:1030800003F1805303F5B8539B001A6097F836306C
:1030900003F1805303F5B8539B001B6803F480438E
:1030A000002B22D097F8363003F1805303F5B85344
:1030B0009B001B689BB223F4E04323F070039BB298
:1030C00043F480437B837B8B43F07F4343F47F0354
:1030D00043F4004343F080039AB297F8363003F18B
:1030E000805303F5B8539B001A6097F8363003F10C
:1030F000805303F5B8539B001B689BB223F4E04355
:1031000023F070039BB243F480433B833B8B43F03B
:103110007F4343F47F0343F4004343F080039AB2B8
:1031200097F8363003F1805303F5B8539B001A60CB
:103130004D4B1A6897F836301B0113447A6892B2E7
:103140001A60494B1A6897F836301B0113447A68A5
:10315000120C9A6097F8363003F1805303F5B85398
:103160009B001B6803F4C063B3F5806F23D097F80E
:10317000363003F1805303F5B8539B001B689BB2B4
:1031800023F4E04323F040039BB283F02003BB828F
:10319000BB8A43F07F4343F47F0343F4004343F08F
:1031A00080039AB297F8363003F1805303F5B85391
:1031B0009B001A601FE097F8363003F1805303F547
:1031C000B8539B001B689BB223F4E04323F04003F9
:1031D000FB82FB8A43F07F4343F47F0343F40043C5
:1031E00043F080039AB297F8363003F1805303F529
:1031F000B8539B001A6097F8363003F1805303F5FB
:10320000B8539B001B689BB223F4804323F07003E8
:103210007B827B8A43F07F4343F47F0343F4004384
:1032200043F080039AB297F8363003F1805303F5E8
:10323000B8539B001A60D8E197F836301B01183359
:10324000FA6813443B633B6BBA8E1A80FB7A002BFF
:103250000CD1054B1A6897F836301B0113447A6875
:103260009A60F1E0D4C3000870020020FB7A012BC1
:1032700040F0EA8097F8363003F1805303F5B853F5
:103280009B001B689BB223F4E24323F070039BB2C4
:1032900043F48073FB85FB8D43F07F4343F47F034E
:1032A00043F4004343F080039AB297F8363003F1B9
:1032B000805303F5B8539B001A6097F8363003F13A
:1032C000805303F5B8539B001B6803F48043002B25
:1032D00022D097F8363003F1805303F5B8539B00A2
:1032E0001B689BB223F4E04323F070039BB243F4CA
:1032F0008043BB85BB8D43F07F4343F47F0343F49E
:10330000004343F080039AB297F8363003F18053BC
:1033100003F5B8539B001A6097F8363003F18053D9
:1033200003F5B8539B001B6803F04003002B22D029
:1033300097F8363003F1805303F5B8539B001B68B0
:103340009BB223F4E04323F070039BB243F04003AD
:103350007B857B8D43F07F4343F47F0343F400433D
:1033600043F080039AB297F8363003F1805303F5A7
:10337000B8539B001A6097F8363003F1805303F579
:10338000B8539B001B689BB223F4E04323F0700307
:103390009BB243F040033B853B8D43F07F4343F4B6
:1033A0007F0343F4004343F080039AB297F836302A
:1033B00003F1805303F5B8539B001A608E4B1A68D3
:1033C00097F836301B0113447A6892B21A608A4B20
:1033D0001A6897F836301B0113447A68120C9A6009
:1033E000BB8E3E2B22D93B6B1B8803F01F03002BA7
:1033F0000DD0BB8E5B099BB29A027F4B196897F880
:1034000036301B010B4442F400425A601CE0BB8E74
:103410005B099BB2013B9A02774B196897F83630EB
:103420001B010B4442F400425A600DE0BB8E013395
:103430005B02714A116897F8362012010A4423F49E
:103440007F7323F003035360BB8E3E2B24D93B6B69
:103450001B8803F01F03002B0ED03B6B1B885B09FE
:103460009BB29A02644B196897F836301B010B44E3
:1034700042F40042DA601DE03B6B1B885B099BB2A3
:10348000013B9A025C4B196897F836301B010B44DC
:1034900042F40042DA600DE0BB8E01335B02564A13
:1034A000116897F8362012010A4423F47F7323F041
:1034B0000303D360FB7A002B23D197F8363003F156
:1034C000805303F5B8539B001B689BB223F48043E1
:1034D00023F070039BB283F400533B843B8C43F096
:1034E0007F4343F47F0343F4004343F080039AB2E5
:1034F00097F8363003F1805303F5B8539B001A60F8
:1035000073E0FB7A012B70D197F8363003F18053CA
:1035100003F5B8539B001B6803F4C063B3F5806FD9
:1035200023D097F8363003F1805303F5B8539B004E
:103530001B689BB223F4804323F070039BB283F497
:103540000053BB84BB8C43F07F4343F47F0343F4BD
:10355000004343F080039AB297F8363003F180536A
:1035600003F5B8539B001A601FE097F8363003F15B
:10357000805303F5B8539B001B689BB223F4804330
:1035800023F07003FB84FB8C43F07F4343F47F0301
:1035900043F4004343F080039AB297F8363003F1C6
:1035A000805303F5B8539B001A6097F8363003F147
:1035B000805303F5B8539B001B689BB223F4E04390
:1035C00023F040037B847B8C43F07F4343F47F03F1
:1035D00043F4004343F080039AB297F8363003F186
:1035E000805303F5B8539B001A6000BF3C37BD46BB
:1035F0005DF8047B704700BF7002002080B487B084
:1036000000AF78600B46FB70FB7803F07F03FB751F
:1036100097F90330002B4ADAFB7D03F1805303F561
:10362000B8539B001B6803F04003002B20D0FB7DA8
:1036300003F1805303F5B8539B001B689BB223F43E
:10364000E04323F070039BB243F040033B823B8A8C
:1036500043F07F4343F47F0343F4004343F080038C
:103660009AB2FB7D03F1805303F5B8539B001A60B7
:10367000FB7D03F1805303F5B8539B001B689BB29D
:1036800023F4E04323F04003FB81FB8943F07F43B5
:1036900043F47F0343F4004343F080039AB2FB7D7D
:1036A00003F1805303F5B8539B001A6049E0FB7D9A
:1036B00003F1805303F5B8539B001B6803F4804368
:1036C000002B20D0FB7D03F1805303F5B8539B0002
:1036D0001B689BB223F4E04323F070039BB243F4D6
:1036E0008043BB82BB8A43F07F4343F47F0343F4B0
:1036F000004343F080039AB2FB7D03F1805303F54E
:10370000B8539B001A60FB7D03F1805303F5B85357
:103710009B001B689BB223F4804323F070037B82E1
:103720007B8A43F07F4343F47F0343F4004343F039
:1037300080039AB2FB7D03F1805303F5B8539B00DD
:103740001A6000BF1C37BD465DF8047B704780B42B
:1037500085B000AF78600B46FB70FB7803F07F0309
:1037600003F1805303F5B8539B001B689BB223F40D
:10377000804323F070039BB283F44053FB81FB89A9
:1037800043F07F4343F47F0343F4004343F080035B
:103790009AB2FB7803F07F0303F1805303F5B8532B
:1037A0009B001A6000BF1437BD465DF8047B70476C
:1037B00080B487B000AF78600B46FB70FB7803F0F5
:1037C0007F03FB75FB7D002B2ED1454B1B689BB205
:1037D00023F4E04323F040039BB283F010033B82C9
:1037E0003B8A43F07F4343F47F0343F4004343F0B9
:1037F00080039AB23A4B1A60394B1B689BB223F490
:10380000804323F070039BB283F48053FB81FB89D8
:1038100043F07F4343F47F0343F4004343F08003CA
:103820009AB22F4B1A6054E097F90330002B28DA34
:10383000FB7D7A681B0113445A3301221A70FB7D09
:1038400003F1805303F5B8539B001B689BB223F42C
:10385000E04323F040039BB283F010037B827B8A1A
:1038600043F07F4343F47F0343F4004343F080037A
:103870009AB2FB7D03F1805303F5B8539B001A60A5
:1038800027E0FB7D7A681B0113441A3301221A706A
:10389000FB7D03F1805303F5B8539B001B689BB27B
:1038A00023F4804323F070039BB283F48053BB82E4
:1038B000BB8A43F07F4343F47F0343F4004343F068
:1038C00080039AB2FB7D03F1805303F5B8539B004C
:1038D0001A6000BF1C37BD465DF8047B704700BF0F
:1038E000005C004080B586B000AF78600B46FB708E
:1038F000FB7803F07F03FB7597F90330002B5DDA4B
:10390000FB7819467868FFF7BFF90346102B40F0A3
:10391000B280FB7D03F1805303F5B8539B001B6815
:1039200003F04003002B20D0FB7D03F1805303F50F
:10393000B8539B001B689BB223F4E04323F0700351
:103940009BB243F040033B823B8A43F07F4343F406
:103950007F0343F4004343F080039AB2FB7D03F1FD
:10396000805303F5B8539B001A60FB7D7A681B01F6
:1039700013445A3300221A70FB7D03F1805303F580
:10398000B8539B001B689BB223F4E04323F0400331
:103990009BB283F03003FB81FB8943F07F4343F408
:1039A0007F0343F4004343F080039AB2FB7D03F1AD
:1039B000805303F5B8539B001A605CE0FB7819460E
:1039C0007868FFF761F90346B3F5805F53D1FB7D5B
:1039D00003F1805303F5B8539B001B6803F4804345
:1039E000002B20D0FB7D03F1805303F5B8539B00DF
:1039F0001B689BB223F4E04323F070039BB243F4B3
:103A00008043BB82BB8A43F07F4343F47F0343F48C
:103A1000004343F080039AB2FB7D03F1805303F52A
:103A2000B8539B001A60FB7D7A681B0113441A335C
:103A300000221A70FB7D03F1805303F5B8539B00FD
:103A40001B689BB223F4804323F070039BB283F482
:103A500040537B827B8A43F07F4343F47F0343F4EC
:103A6000004343F080039AB2FB7D03F1805303F5DA
:103A7000B8539B001A6000BF1837BD4680BD80B4A4
:103A800085B000AF78600B46FB70FB7803F07F03D6
:103A900003F1805303F5B8539B001B68FB6097F953
:103AA0000330002B05DAFB689BB203F030039BB2B6
:103AB00004E0FB689BB203F440539BB218461437F2
:103AC000BD465DF8047B704780B487B000AF786076
:103AD0000B46FB7013463B803B88002B21D0284BC4
:103AE0001A68FB781B0113441B6803F1005303F5AC
:103AF00040535B003B6100237B610CE07B681988CD
:103B00003B691A1D3A610A461A607B6802337B6082
:103B10007B6901337B613B8801335B087A699A4298
:103B2000ECD3174B1A68FB781B0113443A885A6090
:103B3000FB7803F1805303F5B8539B001B689BB2DD
:103B400023F4E04323F040039BB283F03003FB8176
:103B5000FB8943F07F4343F47F0343F4004343F086
:103B600080039AB2FB7803F1805303F5B8539B00AE
:103B70001A6000BF1C37BD465DF8047B704700BF6C
:103B80007002002080B48BB000AF78600846114608
:103B90001A460346FB700B463B801346BB70984B9E
:103BA0005B687B61FB7803F1805303F5B8539B009E
:103BB0001B683B61FB781B0158337A691344FB6037
:103BC000FB7803F1805303F5B8539B001B6803F4A3
:103BD000C063002B0AD1FB7803F1805303F5B8537F
:103BE0009B001B6803F48073002B0CD1FB7803F15E
:103BF000805303F5B8539B001B6803F4C063B3F50F
:103C0000806F40F06D81BB78012B40F0FD80FB6838
:103C10001B883A889A4240F2A7807A4B1A68FB7850
:103C20001B0113441B6803F1005303F540535B0071
:103C3000FB61744B1A68FB781B0113449B6803F10A
:103C4000005303F540535B00BB613B6903F0400345
:103C5000002B44D000237B620CE07B681988BB6991
:103C60001A1DBA610A461A607B6802337B607B6A60
:103C700001337B62FB681B8801335B087A6A9A42D6
:103C8000EBD300237B620CE07B681988FB691A1D6B
:103C9000FA610A461A607B6802337B607B6A0133F3
:103CA0007B623B88FA6812889B1A01335B087A6A48
:103CB0009A42E9D3FB681988524B1A68FB781B01BA
:103CC00013440A46DA603B88FA681288991A4D4B09
:103CD0001A68FB781B0113440A465A60DFE0002390
:103CE0007B620CE07B681988FB691A1DFA610A4641
:103CF0001A607B6802337B607B6A01337B62FB68FE
:103D00001B8801335B087A6A9A42EBD300237B62FB
:103D10000CE07B681988BB691A1DBA610A461A60F3
:103D20007B6802337B607B6A01337B623B88FA6885
:103D300012889B1A01335B087A6A9A42E9D3FB68BE
:103D40001988304B1A68FB781B0113440A465A60E5
:103D50003B88FA681288991A2A4B1A68FB781B016B
:103D600013440A46DA609AE03B6903F04003002BF3
:103D70000CD0244B1A68FB781B0113449B6803F199
:103D8000005303F540535B003B620BE01D4B1A6888
:103D9000FB781B0113441B6803F1005303F54053E8
:103DA0005B003B623B88002B15D000237B620CE05C
:103DB0007B6819883B6A1A1D3A620A461A607B685A
:103DC00002337B607B6A01337B623B8801335B0893
:103DD0007A6A9A42ECD33B6903F04003002B07D088
:103DE000084B1A68FB781B0113443A88DA6056E0E6
:103DF000044B1A68FB781B0113443A885A604EE062
:103E0000AC100020700200203B6903F04003002B3F
:103E10000CD0364B1A68FB781B0113441B6803F166
:103E2000005303F540535B003B620BE02F4B1A68D5
:103E3000FB781B0113449B6803F1005303F54053C7
:103E40005B003B623B88002B15D000237B620CE0BB
:103E50007B6819883B6A1A1D3A620A461A607B68B9
:103E600002337B607B6A01337B623B8801335B08F2
:103E70007A6A9A42ECD33B6903F04003002B07D0E7
:103E80001A4B1A68FB781B0113443A885A6006E003
:103E9000164B1A68FB781B0113443A88DA60FB78EA
:103EA00003F1805303F5B8539B001B689BB223F4C6
:103EB000E04323F040039BB283F030037B817B8996
:103EC00043F07F4343F47F0343F4004343F0800314
:103ED0009AB2FB7803F1805303F5B8539B001A6044
:103EE00000BF2C37BD465DF8047B70477002002090
:103EF00080B485B000AF78600B46FB701346BB7092
:103F00000023FB810023BB810023BB60BB78002B17
:103F100016D1394B1A68FB781B011344DB689BB23E
:103F2000C3F30903BB81344B1A68FB781B011344AC
:103F30009B6803F1005303F540535B00BB603DE019
:103F4000BB78012B38D1FB7803F1805303F5B853CC
:103F50009B001B6803F48043002B16D0264B1A6885
:103F6000FB781B0113445B689BB2C3F30903BB815D
:103F7000214B1A68FB781B0113441B6803F10053A3
:103F800003F540535B00BB6018E01B4B1A68FB78DD
:103F90001B011344DB689BB2C3F30903BB81164BBF
:103FA0001A68FB781B0113449B6803F1005303F567
:103FB00040535B00BB6001E0002316E00023FB815F
:103FC0000CE0BB681A1DBA601B689AB27B681A8045
:103FD0007B6802337B60FB890133FB81FA89BB89F3
:103FE00001335B089A42ECD3BB8918461437BD46AF
:103FF0005DF8047B704700BF7002002080B483B07E
:1040000000AF7860084B5B681B7A012B05D1074B2A
:104010001B68064A43F01003136000BF0C37BD460F
:104020005DF8047B704700BFAC100020405C00408E
:1040300080B400AF084B1B68074A23F004031360E9
:10404000054B1B68044A23F00803136000BFBD46FC
:104050005DF8047B704700BF405C004080B400AF57
:10406000054B1B68044A43F00C03136000BFBD46B8
:104070005DF8047B704700BF405C004080B582B0B3
:1040800000AF78607B68D3F8D0305B69984700BF99
:104090000837BD4680BD80B582B000AF78607B68D0
:1040A000D3F8D0301B69984700BF0837BD4680BDA4
:1040B00080B485B000AF0346FB710023FB81FB7920
:1040C00003F1805303F5B8539B001B6803F480434E
:1040D000002B0AD00D4B1A68FB791B0113445B6857
:1040E0009BB2C3F30903FB8109E0084B1A68FB7913
:1040F0001B011344DB689BB2C3F30903FB81FB89FB
:1041000018461437BD465DF8047B704770020020E6
:1041100090B58BB000AFB74B5B683B62B64B1B688A
:104120009BB27B807B889BB2DBB203F00F0387F8E6
:10413000273097F8273003F1805303F5B8539B00DD
:104140001B68FB61D1E17B889BB203F01003002B5D
:1041500000F0DF8097F827301B0118333A6A1344C8
:10416000FB6097F8273003F1805303F5B8539B00A9
:104170001B6803F40043002B00F0A38197F827305D
:1041800003F1805303F5B8539B001B689AB240F6C5
:104190008F7313407B817B8943F080039AB297F839
:1041A000273003F1805303F5B8539B001A6097F84A
:1041B00027301846FFF77CFF03463B81FB685B898D
:1041C0001A463B891344FA68128993420ADAFB685B
:1041D0001B883A899A4205D197F827300121184661
:1041E000FEF765FD3B6AD3F8D0305B6BFA68506828
:1041F00097F8271001229847FB685A683B891A44B0
:10420000FB685A60FB685A893B8913449AB2FB6881
:104210005A81FB685A89FB681B899A4205D2FB6860
:104220001B883A899A4280F04C8197F8273003F135
:10423000805303F5B8539B001B6803F4C063B3F5C8
:10424000806F23D097F8273003F1805303F5B853DC
:104250009B001B689BB223F4804323F070039BB246
:1042600083F40053BB80BB8843F07F4343F47F0358
:1042700043F4004343F080039AB297F8273003F1E8
:10428000805303F5B8539B001A601FE097F827305E
:1042900003F1805303F5B8539B001B689BB223F4D2
:1042A000804323F07003FB80FB8843F07F4343F49B
:1042B0007F0343F4004343F080039AB297F827301A
:1042C00003F1805303F5B8539B001A6097F8273029
:1042D00001211846FEF7EBFC97F82720396A1346B0
:1042E0005B0013449B000B449C331B68002B00F0C5
:1042F000E88097F82720396A13465B0013449B0037
:104300000B449C331B6897F827201146386A98475E
:10431000D7E097F827301B0158333A6A1344BB6142
:1043200097F8273003F1805303F5B8539B001B68BF
:1043300003F08003002B00F0C48097F8273003F1CE
:10434000805303F5B8539B001B689BB223F4E143F1
:1043500023F07003FB82FB8A6FEA43436FEA534307
:104360009AB297F8273003F1805303F5B8539B00B6
:104370001A6097F8273000211846FEF798FCBB69B1
:104380009B89013B9AB2BB699A81BB699B89002BCF
:1043900070D197F8273003F1805303F5B8539B0091
:1043A0001B6803F4C063B3F5806F27D097F82730FC
:1043B00003F1805303F5B8539B001B689BB223F4B1
:1043C000E04323F040039BB283F020033B823B8A0F
:1043D00043F07F4343F47F0343F4004343F08003FF
:1043E0009AB297F8273003F1805303F5B8539B0036
:1043F0001A6023E0AC100020445C004097F827309E
:1044000003F1805303F5B8539B001B689BB223F460
:10441000E04323F040037B827B8A43F07F4343F4F5
:104420007F0343F4004343F080039AB297F82730A8
:1044300003F1805303F5B8539B001A6097F82720C7
:10444000396A13465B0013449B000B44A0331B687E
:10445000002B36D097F82720396A13465B001344A7
:104460009B000B44A0331B6897F827201146386A3D
:10447000984726E0BB699B89012B22D9BB691A8822
:10448000BB691B89934228BF1346BB823B6AD3F8A2
:10449000D0301C6BBB695868BA8A97F82710002384
:1044A000A047BB695A68BB8A1A44BB695A60BB699A
:1044B0001A89BB8AD31A9AB2BB691A81BB69BA8AB4
:1044C0005A81224B1B689BB27B807B889BB2DBB2FC
:1044D00003F00F0387F8273097F8273003F1805354
:1044E00003F5B8539B001B68FB617B889BB21BB232
:1044F000002B26DA97F8273003F1805303F5B853E1
:104500009B001B6803F4C063002B0CD197F8273085
:1045100003F1805303F5B8539B001B6803F48073C9
:10452000002B7FF410AE97F8273003F1805303F58A
:10453000B8539B001B6803F4C063B3F5806F3FF46E
:1045400002AE00BF2C37BD4690BD00BF445C0040AA
:1045500080B588B000AF7F4B1B689BB2BB807D4BA2
:104560001B689BB223F0FF039BB27B807A4B1B68D6
:10457000FB837B889AB2FB8B13409BB27B80774B8B
:104580005B68BB617B889BB21BB2002B80F2F98019
:10459000EEE0BB889BB2DBB203F00F03FB75BB8878
:1045A0009BB203F01003002B00F08B80FB7D03F126
:1045B000805303F5B8539B001B6803F40043002BA2
:1045C00000F0D680FB7D03F1805303F5B8539B00C8
:1045D0001B689AB240F68F731340FB81FB8943F04E
:1045E00080039AB2FB7D03F1805303F5B8539B001F
:1045F0001A60FB7D03F1805303F5B8539B001B68E1
:1046000003F40063002B11D0FB7D002B40F03D81B3
:10461000FA7DB96913465B0013449B000B44983341
:104620001B68FA7D1146B8699847A1E0FB7D1B0124
:104630001833BA691344BB60BB69D3F8D0305B6BE5
:10464000BA685068F97D002298470346FB80BB6832
:104650005A68FB881A44BB685A60BB685A89FB8851
:1046600013449AB2BB685A81BB685A89BB681B89DC
:104670009A4204D2BB681B88FA889A4218D2FA7D03
:10468000B96913465B0013449B000B449C331B68C1
:10469000002B6DD0FA7DB96913465B0013449B0073
:1046A0000B449C331B68FA7D1146B86998475FE05C
:1046B000BB69D3F8D0309B6AFA7D1146B869984738
:1046C00056E0FB7D03F1805303F5B8539B001B6854
:1046D00003F08003002B4BD0FB7D03F1805303F5E7
:1046E000B8539B001B689BB223F4E14323F0700393
:1046F000BB82BB8A6FEA43436FEA53439AB2FB7DA6
:1047000003F1805303F5B8539B001A60FB7D1B0136
:104710005833BA6913443B613B691B89002B1FD195
:10472000FA7DB96913465B0013449B000B44A03328
:104730001B68002B1CD0FA7DB96913465B0013443B
:104740009B000B44A0331B68FA7D1146B86998475B
:104750000EE000BF445C0040405C0040AC10002014
:104760003B695A683B691B89F97DB869FDF778FB9D
:10477000484B1B689BB21A46BA801BB2002BFFF64F
:1047800008AF7B889BB203F480539BB2002B0FD001
:10479000404B6FF480521A60BB69DB78DAB2BB69B8
:1047A0009A70BB695B7A002B02D1B869FFF766FC8F
:1047B0007B889BB203F400639BB2002B0CD0364B7A
:1047C0001B6803F01003002B06D1B86900F068F8ED
:1047D000304B6FF400621A607B889BB203F4007365
:1047E0009BB2002B0CD02B4B6FF400721A602B4B3A
:1047F0001B68002B04D0294B1B681B68B8699847BD
:104800007B889BB203F480739BB2002B2BD0214B8F
:104810006FF480721A60BB699B79002B23D0BB694F
:104820009B79013BDAB2BB699A71BB699B79002B1A
:1048300019D1BB695B7A002B09D0174B1B68164A4C
:1048400023F010031360BB6900225A720BE0124B75
:104850001B68114A43F010031360BB6903229A716D
:10486000BB6901225A727B889BB203F480639BB2BE
:10487000002B0BD0074B6FF480621A60BB69D3F832
:10488000D030DB69B869984700E000BF2037BD46EB
:1048900080BD00BF445C0040405C0040A41000208C
:1048A00080B582B000AF78607B689B78DAB27B68B5
:1048B000DA707B6804229A707B68DB79002B03D066
:1048C0007868FFF7E8FB02E07B6803229A7100BF7B
:1048D0000837BD4680BD80B483B000AF78603960D2
:1048E0007B6800221A707B6800225A607B683A68F5
:1048F0009A607B683A68DA607B6800221A747B6889
:1049000000225A617B6800229A617B680022DA618A
:104910007B6800221A627B6800225A627B68002250
:104920009A627B680022DA627B6800221A6300BF09
:104930000C37BD465DF8047B704780B483B000AF90
:1049400078607B6844F61F62934201DC012307E034
:104950007B684EF65F22934201DC022300E00323D2
:1049600018460C37BD465DF8047B704780B483B0B1
:1049700000AF78607B689968164B1B781A4689B23D
:10498000154B23F822107B68DB68144A82FB031264
:104990009211DB17D21A0F4B1B7811B20E4A9B00F3
:1049A00013440A465A800B4B1B7801330C4A82FB96
:1049B00003121111DA178A1A322101FB02F29A1A34
:1049C000D2B2044B1A7000BF0C37BD465DF8047BB1
:1049D000704700BF0C130020B4100020D34D6210AC
:1049E0001F85EB5180B483B000AF0023FB7118E04A
:1049F000114B1B781A46FB791A44104B83FB0213A8
:104A00001911D317CB1A322101FB03F3D31AFA7908
:104A10000B490C4850F8233041F82230FB79013320
:104A2000FB71FB79312BE3D900BF00BF0C37BD46CA
:104A30005DF8047B704700BF0C1300201F85EB510D
:104A400044120020B4100020B0B483B000AF3B602B
:104A50000346FB710B46BB7113467B710D4AFB7914
:104A600013700D4ABB7913700C4A7B7913700C4A92
:104A70003B6814461D460FCD0FC40FCD0FC42B68E5
:104A80002360084B32221A8000BF0C37BD46B0BCF1
:104A9000704700BF341300200D1300200E130020B8
:104AA000101300203613002080B58CB004AFF860DE
:104AB000B9607A60BB68DB68BB610023FB77FB6889
:104AC0005B68002B03D1FB68BA695A6010E0FB6891
:104AD0005A6813465B0013445B019A1ABB698A4902
:104AE00081FB0301C910DB17CB1A1A44FB685A601B
:104AF000FB681B78002B13D17B68B3F57A7F0DD947
:104B0000B869FFF71AFF03461A46FB681A70FB687C
:104B10001A78FB685A70FB687A68DA600023EFE065
:104B20000023BB77FB685B68642B16DDBB69642BD5
:104B300013DDFB685A6813465B001344BA699A4256
:104B400001DD0123BB77BA6913465B001A44FB6899
:104B50005B689A4201DA0123BB7797F91E30002B7C
:104B60000DD0FB681B78042B09D0FB681A78FB6812
:104B70005A70FB6804221A70FB687A689A60FB68B6
:104B80001B78042B77D1FB689B687A68D31AB3F53E
:104B9000967F70D9B869FFF7D0FE0346FB75FB7DA1
:104BA000012B0DD1FB685B78012B09D00223FB7729
:104BB000FB685978FA7DF87FBB68FFF745FF2FE067
:104BC000FB685B78012B14D1FB7D032B02D0FB7DAE
:104BD000022B0ED10123FB77FB68DB6A5A1CFB68B2
:104BE000DA62FB685978FA7DF87FBB68FFF72CFF23
:104BF00016E0FB685B78022B02D1FB7D032B06D00D
:104C0000FB685B78032B0BD1FB7D022B08D10323C0
:104C1000FB77FB685978FA7DF87FBB68FFF714FFD4
:104C2000FB68DB687A68D31A3B61FB685B78012B11
:104C300006D1FB681A6A3B691A44FB681A6214E0E1
:104C4000FB685B78022B06D1FB685A6A3B691A4401
:104C5000FB685A6209E0FB685B78032B05D1FB68AF
:104C60009A6A3B691A44FB689A62FB68FA7D1A707B
:104C7000FB687A68DA60254BB3F90030002B3EDD23
:104C8000BB689A68214BB3F90030C3F1320391B28B
:104C90001F4A22F82310BB68DB681E4A82FB0312FE
:104CA0009211DB17D21A194BB3F90030C3F132035A
:104CB00011B2174A9B0013440A465A80134BB3F9AA
:104CC00000309BB2013B9BB21AB2104B1A800F4BC3
:104CD000B3F90030002B12D1FFF784FE0E4B187889
:104CE0000E4B19780E4B1A7832230393084B02931C
:104CF000322301930B4B00930B4B00F09FF8FB7F8B
:104D000018462037BD4680BD6766666636130020AC
:104D10007C110020D34D6210341300200D130020AD
:104D20000E130020441200201013002080B586B01E
:104D300000AFF860B9601346FB801EE0FB689BB2D1
:104D4000DBB29BB2C3F58073FB82FA8AFB88934285
:104D500028BF1346BB82BB8A1A46B968F868FBF7BE
:104D6000A6FDBB8AFA681344FB60BB8ABA68134489
:104D7000BB60FA88BB8AD31AFB80FB88002BDDD18D
:104D800000BF00BF1837BD4680BD80B582B000AF00
:104D900078607B68C3F30B03002B02D17868FBF7C4
:104DA00070FD00BF0837BD4680BD000080B500AF74
:104DB000094B1B68094A5360084B9B680133074A3B
:104DC00093600020FBF75DFD102204490020FBF7F3
:104DD0006EFD00BF80BD00BF4813002038130020C7
:104DE00080B500AF102212490020FBF78AFD104B5E
:104DF0001B68104A934214D00D4B0E4A1A600C4B9C
:104E00004FF480525A600A4B00229A60084B0022ED
:104E1000DA600020FBF735FD102205490020FBF782
:104E200046FD034B5B68044A136000BF80BD00BFB2
:104E30003813002031474F4C4813002080B58AB00A
:104E400000AF3B600346FB710B46BB7113467B71A1
:104E500097F8342097F83C3013449BB29B009BB2E8
:104E60000E33FB84FA8C344B1B681344B3F5000FEC
:104E700003D9314B4FF480521A602F4B1B681846F0
:104E8000FFF783FF4EF601233B8305F025FA034627
:104E9000C7F81A30FB79BB77BB79FB777B7987F84A
:104EA0002030002387F821303B68DB68C7F82230C8
:104EB000214B1B6807F118010E221846FFF736FF39
:104EC0001D4B1B680E331C4A13601B4B186897F868
:104ED00034309BB29B009BB21A46396BFFF726FF1A
:104EE00097F834309A00144B1B681344124A13602D
:104EF000114B186897F83C309BB29B009BB21A4646
:104F0000B96BFFF713FF97F83C309A000A4B1B6808
:104F10001344094A1360FFF749FF074B1A68FB8CDB
:104F2000D31A07F108010E221846FBF7EAFC00BF6E
:104F30002837BD4680BD00BF48130020F0B595B0AE
:104F400004AF4FF48053FB630023BB6353E03B1D6E
:104F50000E221946F86BFBF7D4FCBB884EF60122F3
:104F6000934201D000BF50E0D7F80610BB7A1C4630
:104F7000FB7A1D463B7B1E46D7F80E30254A82FB46
:104F800003029211DB17D31A07F114000393029660
:104F9000019500940B46204A202106F031F907F1D3
:104FA000140319461D48FCF74FFCFB6B0E33FB63E3
:104FB0006423BB860023FB8616E03B460422194689
:104FC000F86BFBF79EFCB7F9023019463B881A468E
:104FD0001348FCF739FCFB6B0433FB63012005F03D
:104FE00012FAFB8E0133FB86FA8EBB8E9A42E4D313
:104FF000BB6B0133BB630B4B1B68FA6B9A4204D249
:10500000094B9B68BA6B9A42A1D300BF4437BD4697
:10501000F0BD00BFD34D62102CBC000840BC00089E
:1050200044BC0008481300203813002080B584B029
:1050300000AF78600023FB600023BB600AE0012022
:10504000FCF745F803461A46FB681344FB60BB684F
:105050000133BB60BB68B3F5967FF0DBFB6807EEFE
:10506000903AB8EEE77A7B681B7DDFED076AC7EE02
:10507000267A7A6806339B001344C3ED007A00BF9A
:105080001037BD4680BD00BF000096432DE9B04FEC
:1050900084B000AF78600220FCF719F803461A4686
:1050A0007B685A800120FCF712F803461AB27B682D
:1050B0001A807B68B3F9003007EE903AB8EEE77AD1
:1050C0007B681B7D7A6806339B001344D3ED007A1E
:1050D00077EE677AC7ED037AD7ED037AFDEEE77ACC
:1050E00017EE902A13469B0013449A0013442E4A4D
:1050F00082FB03129210DB17D21A7B685A607B681E
:105100005B881A4613465B019B1A9B001344274A8F
:10511000A2FB03235A097B689A607B681B7D022BE4
:1051200007D17B685B68642203FB02F27B68DA606C
:1051300016E07B681B7D012B04D17B685A687B6875
:10514000DA600DE07B681B7D002B09D17B685B6812
:10515000154A82FB03129210DB17D21A7B68DA60C1
:105160007B689B6800229A4693467B68DB68DA1767
:105170009846914608FB0BF20AFB09F31344AAFB7D
:1051800008452B441D464FF47A724FF00003204629
:105190002946FAF7EDFF02460B467B681A6100BF0D
:1051A0001037BD46BDE8B08F676666661F85EB5158
:1051B00080B483B000AF786039603B68B3F9083BD6
:1051C0001A4613469B0013445B0019463B68B3F92B
:1051D000083B1A463B6843F822107B6899683B6895
:1051E000B3F9083B1A4689B23B6802F5C87223F846
:1051F00012103B68B3F9083B1A467B68D9683B68D4
:1052000002F5967243F822107B6819693B68B3F97E
:10521000083B1A463B6802F5FA7243F822103B68D5
:10522000B3F9083B002B4AD13B68B3F9083B1A4657
:105230003B6802F5C87233F812301A463B68C3F86F
:10524000F02A3B68B3F9083B1A463B6802F5C8727E
:1052500033F812301A463B68C3F8F42A3B68B3F9B6
:10526000083B1A463B6802F5967253F822203B68C9
:10527000C3F8F82A3B68B3F9083B1A463B6802F5C5
:10528000967253F822203B68C3F8FC2A3B68B3F9B6
:10529000083B1A463B6802F5FA7253F822203B6835
:1052A000C3F8002B3B68B3F9083B1A463B6802F58C
:1052B000FA7253F822203B68C3F8042B9FE03B6846
:1052C000B3F9083B1A463B6802F5C87233F812304E
:1052D0001A463B68D3F8F03A9A420CDD3B68B3F9C2
:1052E000083B1A463B6802F5C87233F812301A467A
:1052F0003B68C3F8F02A3B68B3F9083B1A463B68A1
:1053000002F5C87233F812301A463B68D3F8F43A03
:105310009A420CDA3B68B3F9083B1A463B6802F53F
:10532000C87233F812301A463B68C3F8F42A3B6857
:10533000B3F9083B1A463B6802F5967253F82220EF
:105340003B68D3F8F83A9A420BDD3B68B3F9083B67
:105350001A463B6802F5967253F822203B68C3F860
:10536000F82A3B68B3F9083B1A463B6802F5967287
:1053700053F822203B68D3F8FC3A9A420BDA3B6898
:10538000B3F9083B1A463B6802F5967253F822209F
:105390003B68C3F8FC2A3B68B3F9083B1A463B68F4
:1053A00002F5FA7253F822203B68D3F8003B9A4288
:1053B0000BDD3B68B3F9083B1A463B6802F5FA720D
:1053C00053F822203B68C3F8002B3B68B3F9083B35
:1053D0001A463B6802F5FA7253F822203B68D3F86C
:1053E000043B9A420BDA3B68B3F9083B1A463B6828
:1053F00002F5FA7253F822203B68C3F8042B3B688D
:10540000B3F9083B9BB201339BB21AB23B68A3F8D5
:10541000082B3B68B3F9083BC72B07DD3B6800222C
:10542000A3F8082B3B68012283F80A2B00BF0C3736
:10543000BD465DF8047B7047B0B592B004AF7860AC
:105440007B689B687B637B68DB68354A82FB031261
:105450009211DB17D31A3B637B681B69304AA2FBAE
:1054600003239B09FB627B6B42F20F72934202D9CA
:1054700042F20F737B633B6BB3F57A7F03DB40F241
:10548000E7333B6306E03B6B13F1630F02DA6FF027
:1054900062033B63FB6AB3F57A7F02D340F2E733E2
:1054A000FB627B689B681E4AA2FB03239C097B6806
:1054B0009A681B4BA3FB02139B094FF47A7101FB03
:1054C00003F3D31A174AA2FB0323DA087B68DB68CD
:1054D000134981FB03018911DB17CB1A796809692C
:1054E0000F48A0FB010189097868007D054607F196
:1054F0000C00039502910193009223460A4A202151
:1055000005F07EFE07F10C02002300934FF6FF73B7
:1055100000210020FCF746F800BF3837BD46B0BD7B
:10552000D34D6210CDCCCCCC50BC000880B487B039
:1055300000AF78600B46FB7013463B80554B7B6198
:1055400040F6E4433B61544BFB60FB78022B6AD08E
:10555000022B00F39880002B02D0012B33D092E075
:105560003A887B6802F5C87233F81230002B06D1F6
:105570003A887B6802F5C872002123F812103A8835
:105580007B6802F5C87233F812301A463B699342C1
:1055900007DA3A883B6999B27B6802F5C87223F84A
:1055A00012103A887B6802F5C87233F812301A4636
:1055B000722303FB02F23B6992FBF3F39BB2C3F14C
:1055C00086039BB260E03A887B6802F5967253F8D6
:1055D0002230002B06DC3A887B6802F596720021A7
:1055E00043F822103A887B6802F5967253F822300D
:1055F0007A699A4206DA3A887B6802F59672796986
:1056000043F822103A887B6802F5967253F82230EC
:10561000722203FB02F27B6992FBF3F39BB2C3F1AC
:1056200086039BB230E03A887B6802F5FA7253F841
:105630002230002B06DC3A887B6802F5FA720021E2
:1056400043F822103A887B6802F5FA7253F8223048
:10565000FA689A4206DA3A887B6802F5FA72F968C3
:1056600043F822103A887B6802F5FA7253F8223028
:10567000722203FB02F2FB6892FBF3F39BB2C3F1CD
:1056800086039BB200E0002318461C37BD465DF838
:10569000047B7047A08601001009050080B584B026
:1056A00000AF78600B46FB700023FB6010E0FB68E6
:1056B0009AB2FB7819467868FFF738FF0346D9B2EB
:1056C000074AFB6813440A461A70FB680133FB6003
:1056D000FB68C72BEBDD00BF00BF1037BD4680BDA8
:1056E000FCC6002090B587B002AF78600B46FB7017
:1056F000FB7819467868FFF7D1FF4BF2B0320021F2
:105700001B4805F0EFFD0023FB601FE0FB689BB228
:10571000013B9BB219B2FB68013B164AD35C143BB8
:105720009BB21AB2FB6818B2124CFB6823441B7878
:10573000143B9BB21BB24FF4FC64019400930346EC
:105740000B48FBF757FFFB680133FB60FB68C72B77
:10575000DCDD8623EF2214212820FBF7BAFD4BF273
:10576000B0310348FBF794FD00BF1437BD4690BD30
:105770004C130020FCC60020002103E00B4B5B58BB
:10578000435004310A480B4B42189A42F6D30A4A56
:1057900002E0002342F8043B084B9A42F9D300F0A0
:1057A0002BF805F0BBFDFBF76BFB7047E0C400086E
:1057B000000000201403002014030020CC1E012050
:1057C000FEE780B485B000AF78600023FB6002E0A4
:1057D000FB680133FB607A6813469B0013445B004F
:1057E0001A46FB689A42F3D800BF00BF1437BD4683
:1057F0005DF8047B7047000080B582B000AF534B6A
:10580000D3F88830514A43F47003C2F88830504BC3
:105810001B684F4A43F00103136000BF4C4B1B68E9
:1058200003F00203002BF9D04A4B1B6803F00C0372
:10583000082B64D100237B6002E07B6801337B602E
:105840007B684F2BF9D9434B1B683B603B6823F0C7
:10585000F0033B603B6843F080033B603D4A3B689C
:10586000136000237B6002E07B6801337B607B6810
:105870004F2BF9D9374B1B683B603B6823F0F00393
:105880003B603B6843F090033B60324A3B681360E7
:1058900000237B6002E07B6801337B607B684F2BD9
:1058A000F9D92C4B1B683B603B6823F0F0033B604D
:1058B0003B6843F0A0033B60264A3B68136000232B
:1058C0007B6002E07B6801337B607B684F2BF9D9FA
:1058D000204B1B683B603B6823F0F0033B603B6858
:1058E00043F0B0033B601B4A3B68136000237B60BE
:1058F00002E07B6801337B607B684F2BF9D9154B45
:105900001B68144A23F003031360C820FFF759FFF4
:105910000F4B1B680E4A23F0847323F4803313600B
:105920000D4B4FF41F021A60094B1B68084A23F401
:1059300080231360074B00221A60084B00221A6074
:1059400000F00EF800BF0837BD4680BD00ED00E056
:105950000010024004100240081002402C100240C7
:1059600080B500AF00F002F800BF80BD80B485B004
:1059700000AF0023FB600023BB604A4B1B68494A11
:1059800043F480331360FB680133FB60454B1B68B5
:1059900003F40033BB60BB68002B04D1FB684FF6F7
:1059A000FF729342EFD13F4B1B6803F40033002B8F
:1059B00001D100BFFDE73C4B1B683B4A43F08053DD
:1059C00013603A4B1B68394A43F440431360384B29
:1059D000374A1B681360364B354A1B681360344BDB
:1059E0001B68334A43F480631360314B1B68304AB1
:1059F00023F4403313602E4B1B682D4A43F440338D
:105A000013602B4B1B682A4A23F0904323F4701336
:105A10001360274B1B68264A43F450131360214B35
:105A20001B68204A43F08073136000BF1D4B1B6846
:105A300003F00073002BF9D01C4B1B681B4A43F486
:105A40008033136000BF1B4B1B6803F48033002BB3
:105A5000F9D0164B1B68154A43F40033136000BF9E
:105A6000144B1B6803F40033002BF9D0104B1B6858
:105A70007B607B6823F003037B607B6843F0020359
:105A80007B600B4A7B68136000BF094B1B6803F007
:105A90000803002BF9D000BF00BF1437BD465DF8E6
:105AA000047B7047001002401C1002400070004050
:105AB000041002400470004090B48CB000AF484B1A
:105AC0003C460FCB84E80F00464B1B689B0803F055
:105AD00003037B627B6A022B11D07B6A022B63D8A3
